{
  "contractName": "Company",
  "abi": [
    {
      "inputs": [],
      "stateMutability": "nonpayable",
      "type": "constructor"
    },
    {
      "anonymous": false,
      "inputs": [
        {
          "indexed": false,
          "internalType": "string",
          "name": "companyName",
          "type": "string"
        },
        {
          "indexed": false,
          "internalType": "string",
          "name": "city",
          "type": "string"
        },
        {
          "indexed": false,
          "internalType": "string",
          "name": "password",
          "type": "string"
        }
      ],
      "name": "CompanyUpdated",
      "type": "event"
    },
    {
      "anonymous": false,
      "inputs": [
        {
          "indexed": false,
          "internalType": "string",
          "name": "companyAddress",
          "type": "string"
        },
        {
          "indexed": false,
          "internalType": "string",
          "name": "companyName",
          "type": "string"
        },
        {
          "indexed": false,
          "internalType": "string",
          "name": "BnNumber",
          "type": "string"
        },
        {
          "indexed": false,
          "internalType": "string",
          "name": "city",
          "type": "string"
        },
        {
          "indexed": false,
          "internalType": "string",
          "name": "password",
          "type": "string"
        }
      ],
      "name": "companyCreated",
      "type": "event"
    },
    {
      "inputs": [
        {
          "internalType": "uint256",
          "name": "",
          "type": "uint256"
        }
      ],
      "name": "companies",
      "outputs": [
        {
          "internalType": "string",
          "name": "companyAddress",
          "type": "string"
        },
        {
          "internalType": "string",
          "name": "companyName",
          "type": "string"
        },
        {
          "internalType": "string",
          "name": "BnNumber",
          "type": "string"
        },
        {
          "internalType": "string",
          "name": "city",
          "type": "string"
        },
        {
          "internalType": "string",
          "name": "password",
          "type": "string"
        }
      ],
      "stateMutability": "view",
      "type": "function",
      "constant": true
    },
    {
      "inputs": [],
      "name": "companiesCount",
      "outputs": [
        {
          "internalType": "uint256",
          "name": "",
          "type": "uint256"
        }
      ],
      "stateMutability": "view",
      "type": "function",
      "constant": true
    },
    {
      "inputs": [],
      "name": "name",
      "outputs": [
        {
          "internalType": "string",
          "name": "",
          "type": "string"
        }
      ],
      "stateMutability": "view",
      "type": "function",
      "constant": true
    },
    {
      "inputs": [
        {
          "internalType": "string",
          "name": "_companyAddress",
          "type": "string"
        },
        {
          "internalType": "string",
          "name": "_companyName",
          "type": "string"
        },
        {
          "internalType": "string",
          "name": "_BnNumber",
          "type": "string"
        },
        {
          "internalType": "string",
          "name": "_city",
          "type": "string"
        },
        {
          "internalType": "string",
          "name": "_password",
          "type": "string"
        }
      ],
      "name": "createCompany",
      "outputs": [],
      "stateMutability": "nonpayable",
      "type": "function"
    },
    {
      "inputs": [
        {
          "internalType": "uint256",
          "name": "_index",
          "type": "uint256"
        },
        {
          "internalType": "string",
          "name": "_companyName",
          "type": "string"
        },
        {
          "internalType": "string",
          "name": "_city",
          "type": "string"
        },
        {
          "internalType": "string",
          "name": "_password",
          "type": "string"
        }
      ],
      "name": "updateCompany",
      "outputs": [],
      "stateMutability": "nonpayable",
      "type": "function"
    }
  ],
  "bytecode": "0x608060405260006001553480156200001657600080fd5b506040518060400160405280601d81526020017f636f6d70616e7920726567697374726174696f6e20636f6e747261637400000081525060009080519060200190620000649291906200006b565b5062000180565b82805462000079906200011b565b90600052602060002090601f0160209004810192826200009d5760008555620000e9565b82601f10620000b857805160ff1916838001178555620000e9565b82800160010185558215620000e9579182015b82811115620000e8578251825591602001919060010190620000cb565b5b509050620000f89190620000fc565b5090565b5b8082111562000117576000816000905550600101620000fd565b5090565b600060028204905060018216806200013457607f821691505b602082108114156200014b576200014a62000151565b5b50919050565b7f4e487b7100000000000000000000000000000000000000000000000000000000600052602260045260246000fd5b61107a80620001906000396000f3fe608060405234801561001057600080fd5b50600436106100575760003560e01c806306fdde031461005c5780632813d19d1461007a57806368c01634146100ae578063835331e1146100ca578063cfb87f63146100e8575b600080fd5b610064610104565b6040516100719190610d4c565b60405180910390f35b610094600480360381019061008f9190610c30565b610192565b6040516100a5959493929190610dba565b60405180910390f35b6100c860048036038101906100c39190610c59565b610470565b005b6100d26108a7565b6040516100df9190610e30565b60405180910390f35b61010260048036038101906100fd9190610b41565b6108ad565b005b6000805461011190610f14565b80601f016020809104026020016040519081016040528092919081815260200182805461013d90610f14565b801561018a5780601f1061015f5761010080835404028352916020019161018a565b820191906000526020600020905b81548152906001019060200180831161016d57829003601f168201915b505050505081565b60026020528060005260406000206000915090508060000180546101b590610f14565b80601f01602080910402602001604051908101604052809291908181526020018280546101e190610f14565b801561022e5780601f106102035761010080835404028352916020019161022e565b820191906000526020600020905b81548152906001019060200180831161021157829003601f168201915b50505050509080600101805461024390610f14565b80601f016020809104026020016040519081016040528092919081815260200182805461026f90610f14565b80156102bc5780601f10610291576101008083540402835291602001916102bc565b820191906000526020600020905b81548152906001019060200180831161029f57829003601f168201915b5050505050908060020180546102d190610f14565b80601f01602080910402602001604051908101604052809291908181526020018280546102fd90610f14565b801561034a5780601f1061031f5761010080835404028352916020019161034a565b820191906000526020600020905b81548152906001019060200180831161032d57829003601f168201915b50505050509080600301805461035f90610f14565b80601f016020809104026020016040519081016040528092919081815260200182805461038b90610f14565b80156103d85780601f106103ad576101008083540402835291602001916103d8565b820191906000526020600020905b8154815290600101906020018083116103bb57829003601f168201915b5050505050908060040180546103ed90610f14565b80601f016020809104026020016040519081016040528092919081815260200182805461041990610f14565b80156104665780601f1061043b57610100808354040283529160200191610466565b820191906000526020600020905b81548152906001019060200180831161044957829003601f168201915b5050505050905085565b600083511161047e57600080fd5b600082511161048c57600080fd5b600081511161049a57600080fd5b6000600260008681526020019081526020016000206040518060a00160405290816000820180546104ca90610f14565b80601f01602080910402602001604051908101604052809291908181526020018280546104f690610f14565b80156105435780601f1061051857610100808354040283529160200191610543565b820191906000526020600020905b81548152906001019060200180831161052657829003601f168201915b5050505050815260200160018201805461055c90610f14565b80601f016020809104026020016040519081016040528092919081815260200182805461058890610f14565b80156105d55780601f106105aa576101008083540402835291602001916105d5565b820191906000526020600020905b8154815290600101906020018083116105b857829003601f168201915b505050505081526020016002820180546105ee90610f14565b80601f016020809104026020016040519081016040528092919081815260200182805461061a90610f14565b80156106675780601f1061063c57610100808354040283529160200191610667565b820191906000526020600020905b81548152906001019060200180831161064a57829003601f168201915b5050505050815260200160038201805461068090610f14565b80601f01602080910402602001604051908101604052809291908181526020018280546106ac90610f14565b80156106f95780601f106106ce576101008083540402835291602001916106f9565b820191906000526020600020905b8154815290600101906020018083116106dc57829003601f168201915b5050505050815260200160048201805461071290610f14565b80601f016020809104026020016040519081016040528092919081815260200182805461073e90610f14565b801561078b5780601f106107605761010080835404028352916020019161078b565b820191906000526020600020905b81548152906001019060200180831161076e57829003601f168201915b5050505050815250509050838160200181905250828160600181905250818160800181905250806002600087815260200190815260200160002060008201518160000190805190602001906107e1929190610a21565b5060208201518160010190805190602001906107fe929190610a21565b50604082015181600201908051906020019061081b929190610a21565b506060820151816003019080519060200190610838929190610a21565b506080820151816004019080519060200190610855929190610a21565b509050507f55b25e91e2cedc05533de078cc8d561036cc6f25072d85e36ec50f879209b72281602001518260600151836080015160405161089893929190610d6e565b60405180910390a15050505050565b60015481565b60008551116108bb57600080fd5b60008451116108c957600080fd5b60008351116108d757600080fd5b60008251116108e557600080fd5b60008151116108f357600080fd5b6001600081548092919061090690610f46565b91905055506040518060a00160405280868152602001858152602001848152602001838152602001828152506002600060015481526020019081526020016000206000820151816000019080519060200190610963929190610a21565b506020820151816001019080519060200190610980929190610a21565b50604082015181600201908051906020019061099d929190610a21565b5060608201518160030190805190602001906109ba929190610a21565b5060808201518160040190805190602001906109d7929190610a21565b509050507f2201ea3f8dbc232a897ffafb97d0d77fda7d71c65d4f3761c0647f34719f2cae8585858585604051610a12959493929190610dba565b60405180910390a15050505050565b828054610a2d90610f14565b90600052602060002090601f016020900481019282610a4f5760008555610a96565b82601f10610a6857805160ff1916838001178555610a96565b82800160010185558215610a96579182015b82811115610a95578251825591602001919060010190610a7a565b5b509050610aa39190610aa7565b5090565b5b80821115610ac0576000816000905550600101610aa8565b5090565b6000610ad7610ad284610e7c565b610e4b565b905082815260208101848484011115610aef57600080fd5b610afa848285610ed2565b509392505050565b600082601f830112610b1357600080fd5b8135610b23848260208601610ac4565b91505092915050565b600081359050610b3b8161102d565b92915050565b600080600080600060a08688031215610b5957600080fd5b600086013567ffffffffffffffff811115610b7357600080fd5b610b7f88828901610b02565b955050602086013567ffffffffffffffff811115610b9c57600080fd5b610ba888828901610b02565b945050604086013567ffffffffffffffff811115610bc557600080fd5b610bd188828901610b02565b935050606086013567ffffffffffffffff811115610bee57600080fd5b610bfa88828901610b02565b925050608086013567ffffffffffffffff811115610c1757600080fd5b610c2388828901610b02565b9150509295509295909350565b600060208284031215610c4257600080fd5b6000610c5084828501610b2c565b91505092915050565b60008060008060808587031215610c6f57600080fd5b6000610c7d87828801610b2c565b945050602085013567ffffffffffffffff811115610c9a57600080fd5b610ca687828801610b02565b935050604085013567ffffffffffffffff811115610cc357600080fd5b610ccf87828801610b02565b925050606085013567ffffffffffffffff811115610cec57600080fd5b610cf887828801610b02565b91505092959194509250565b6000610d0f82610eac565b610d198185610eb7565b9350610d29818560208601610ee1565b610d328161101c565b840191505092915050565b610d4681610ec8565b82525050565b60006020820190508181036000830152610d668184610d04565b905092915050565b60006060820190508181036000830152610d888186610d04565b90508181036020830152610d9c8185610d04565b90508181036040830152610db08184610d04565b9050949350505050565b600060a0820190508181036000830152610dd48188610d04565b90508181036020830152610de88187610d04565b90508181036040830152610dfc8186610d04565b90508181036060830152610e108185610d04565b90508181036080830152610e248184610d04565b90509695505050505050565b6000602082019050610e456000830184610d3d565b92915050565b6000604051905081810181811067ffffffffffffffff82111715610e7257610e71610fed565b5b8060405250919050565b600067ffffffffffffffff821115610e9757610e96610fed565b5b601f19601f8301169050602081019050919050565b600081519050919050565b600082825260208201905092915050565b6000819050919050565b82818337600083830152505050565b60005b83811015610eff578082015181840152602081019050610ee4565b83811115610f0e576000848401525b50505050565b60006002820490506001821680610f2c57607f821691505b60208210811415610f4057610f3f610fbe565b5b50919050565b6000610f5182610ec8565b91507fffffffffffffffffffffffffffffffffffffffffffffffffffffffffffffffff821415610f8457610f83610f8f565b5b600182019050919050565b7f4e487b7100000000000000000000000000000000000000000000000000000000600052601160045260246000fd5b7f4e487b7100000000000000000000000000000000000000000000000000000000600052602260045260246000fd5b7f4e487b7100000000000000000000000000000000000000000000000000000000600052604160045260246000fd5b6000601f19601f8301169050919050565b61103681610ec8565b811461104157600080fd5b5056fea26469706673582212203725a088a013a80b52c528a145af3788785338541a977432a10b951bfcaa7a6564736f6c63430008000033",
  "immutableReferences": {},
  "source": "// SPDX-License-Identifier: GPL-3.0\r\npragma solidity >=0.5.0 <0.9.0;\r\n\r\ncontract Company {\r\n    string public name;\r\n    uint public companiesCount = 0;\r\n    mapping(uint => Company) public companies;\r\n\r\n    struct Company {\r\n        string companyAddress;\r\n        string companyName;\r\n        string BnNumber;\r\n        string city;\r\n        string password;\r\n\r\n    }\r\n    \r\n    event companyCreated(\r\n        string companyAddress,\r\n        string companyName,\r\n        string BnNumber,\r\n        string city,\r\n        string password\r\n    );\r\n\r\n    event CompanyUpdated(\r\n        string companyName,\r\n        string city,\r\n        string password\r\n    );\r\n\r\n    constructor() public {\r\n        name = \"company registration contract\";\r\n    }\r\n\r\n    function createCompany(string memory _companyAddress, string memory _companyName, string memory _BnNumber, string memory _city, string memory _password) public {\r\n        // Require a valid company address\r\n        require(bytes(_companyAddress).length > 0);\r\n        // Require a valid company name\r\n        require(bytes(_companyName).length > 0);\r\n        // Require a valid Bn number\r\n        require(bytes(_BnNumber).length > 0);\r\n        // Require a valid city\r\n        require(bytes(_city).length > 0);\r\n        // Require a valid password\r\n        require(bytes(_password).length > 0);  \r\n\r\n        // Increment companys count\r\n        companiesCount++;\r\n        // Create the user\r\n        companies[companiesCount] = Company(\r\n            _companyAddress,\r\n            _companyName,\r\n            _BnNumber,\r\n            _city,\r\n            _password\r\n        );\r\n        // Trigger an event\r\n        emit companyCreated(\r\n            _companyAddress,\r\n            _companyName,\r\n            _BnNumber,\r\n            _city,\r\n            _password\r\n        );\r\n    }\r\n\r\n    function updateCompany(uint _index, string memory _companyName,  string memory _city, string memory _password) public {\r\n        // Require a valid company name\r\n        require(bytes(_companyName).length > 0);\r\n       \r\n        // Require a valid city\r\n        require(bytes(_city).length > 0);\r\n        // Require a valid password\r\n        require(bytes(_password).length > 0);  \r\n\r\n        // Make sure the index is valid\r\n        // require(_index > 0 && _index <= usersCount);\r\n        // Update the user\r\n        Company memory company = companies[_index];\r\n\r\n        company.companyName = _companyName;\r\n        company.city = _city;\r\n        company.password = _password;\r\n        companies[_index] = company;\r\n       \r\n        // Trigger an event\r\n        emit CompanyUpdated(company.companyName, company.city, company.password);\r\n    }\r\n\r\n\r\n}",
  "sourcePath": "C:\\Users\\hovav\\finalproject\\src\\contracts\\Company.sol",
  "compiler": {
    "name": "solc",
    "version": "0.8.0+commit.c7dfd78e.Emscripten.clang"
  },
  "schemaVersion": "3.4.13",
  "updatedAt": "2023-06-25T07:55:50.456Z",
  "networkType": "ethereum",
  "devdoc": {
    "kind": "dev",
    "methods": {},
    "version": 1
  },
  "userdoc": {
    "kind": "user",
    "methods": {},
    "version": 1
  }
}