{
  "contractName": "Company",
  "abi": [
    {
      "inputs": [],
      "stateMutability": "nonpayable",
      "type": "constructor"
    },
    {
      "anonymous": false,
      "inputs": [
        {
          "indexed": false,
          "internalType": "string",
          "name": "companyAddress",
          "type": "string"
        },
        {
          "indexed": false,
          "internalType": "string",
          "name": "companyName",
          "type": "string"
        },
        {
          "indexed": false,
          "internalType": "string",
          "name": "BnNumber",
          "type": "string"
        },
        {
          "indexed": false,
          "internalType": "string",
          "name": "city",
          "type": "string"
        },
        {
          "indexed": false,
          "internalType": "string",
          "name": "password",
          "type": "string"
        }
      ],
      "name": "companyCreated",
      "type": "event"
    },
    {
      "inputs": [
        {
          "internalType": "uint256",
          "name": "",
          "type": "uint256"
        }
      ],
      "name": "companies",
      "outputs": [
        {
          "internalType": "string",
          "name": "companyAddress",
          "type": "string"
        },
        {
          "internalType": "string",
          "name": "companyName",
          "type": "string"
        },
        {
          "internalType": "string",
          "name": "BnNumber",
          "type": "string"
        },
        {
          "internalType": "string",
          "name": "city",
          "type": "string"
        },
        {
          "internalType": "string",
          "name": "password",
          "type": "string"
        }
      ],
      "stateMutability": "view",
      "type": "function",
      "constant": true
    },
    {
      "inputs": [],
      "name": "companiesCount",
      "outputs": [
        {
          "internalType": "uint256",
          "name": "",
          "type": "uint256"
        }
      ],
      "stateMutability": "view",
      "type": "function",
      "constant": true
    },
    {
      "inputs": [],
      "name": "name",
      "outputs": [
        {
          "internalType": "string",
          "name": "",
          "type": "string"
        }
      ],
      "stateMutability": "view",
      "type": "function",
      "constant": true
    },
    {
      "inputs": [
        {
          "internalType": "string",
          "name": "_companyAddress",
          "type": "string"
        },
        {
          "internalType": "string",
          "name": "_companyName",
          "type": "string"
        },
        {
          "internalType": "string",
          "name": "_BnNumber",
          "type": "string"
        },
        {
          "internalType": "string",
          "name": "_city",
          "type": "string"
        },
        {
          "internalType": "string",
          "name": "_password",
          "type": "string"
        }
      ],
      "name": "createCompany",
      "outputs": [],
      "stateMutability": "nonpayable",
      "type": "function"
    }
  ],
  "bytecode": "0x6080604052600060015534801561001557600080fd5b506040518060400160405280601d81526020017f636f6d70616e7920726567697374726174696f6e20636f6e747261637400000081525060009080519060200190610061929190610067565b5061016b565b8280546100739061010a565b90600052602060002090601f01602090048101928261009557600085556100dc565b82601f106100ae57805160ff19168380011785556100dc565b828001600101855582156100dc579182015b828111156100db5782518255916020019190600101906100c0565b5b5090506100e991906100ed565b5090565b5b808211156101065760008160009055506001016100ee565b5090565b6000600282049050600182168061012257607f821691505b602082108114156101365761013561013c565b5b50919050565b7f4e487b7100000000000000000000000000000000000000000000000000000000600052602260045260246000fd5b610b258061017a6000396000f3fe608060405234801561001057600080fd5b506004361061004c5760003560e01c806306fdde03146100515780632813d19d1461006f578063835331e1146100a3578063cfb87f63146100c1575b600080fd5b6100596100dd565b6040516100669190610843565b60405180910390f35b610089600480360381019061008491906107d2565b61016b565b60405161009a959493929190610865565b60405180910390f35b6100ab610449565b6040516100b891906108db565b60405180910390f35b6100db60048036038101906100d691906106e3565b61044f565b005b600080546100ea906109bf565b80601f0160208091040260200160405190810160405280929190818152602001828054610116906109bf565b80156101635780601f1061013857610100808354040283529160200191610163565b820191906000526020600020905b81548152906001019060200180831161014657829003601f168201915b505050505081565b600260205280600052604060002060009150905080600001805461018e906109bf565b80601f01602080910402602001604051908101604052809291908181526020018280546101ba906109bf565b80156102075780601f106101dc57610100808354040283529160200191610207565b820191906000526020600020905b8154815290600101906020018083116101ea57829003601f168201915b50505050509080600101805461021c906109bf565b80601f0160208091040260200160405190810160405280929190818152602001828054610248906109bf565b80156102955780601f1061026a57610100808354040283529160200191610295565b820191906000526020600020905b81548152906001019060200180831161027857829003601f168201915b5050505050908060020180546102aa906109bf565b80601f01602080910402602001604051908101604052809291908181526020018280546102d6906109bf565b80156103235780601f106102f857610100808354040283529160200191610323565b820191906000526020600020905b81548152906001019060200180831161030657829003601f168201915b505050505090806003018054610338906109bf565b80601f0160208091040260200160405190810160405280929190818152602001828054610364906109bf565b80156103b15780601f10610386576101008083540402835291602001916103b1565b820191906000526020600020905b81548152906001019060200180831161039457829003601f168201915b5050505050908060040180546103c6906109bf565b80601f01602080910402602001604051908101604052809291908181526020018280546103f2906109bf565b801561043f5780601f106104145761010080835404028352916020019161043f565b820191906000526020600020905b81548152906001019060200180831161042257829003601f168201915b5050505050905085565b60015481565b600085511161045d57600080fd5b600084511161046b57600080fd5b600083511161047957600080fd5b600082511161048757600080fd5b600081511161049557600080fd5b600160008154809291906104a8906109f1565b91905055506040518060a001604052808681526020018581526020018481526020018381526020018281525060026000600154815260200190815260200160002060008201518160000190805190602001906105059291906105c3565b5060208201518160010190805190602001906105229291906105c3565b50604082015181600201908051906020019061053f9291906105c3565b50606082015181600301908051906020019061055c9291906105c3565b5060808201518160040190805190602001906105799291906105c3565b509050507f2201ea3f8dbc232a897ffafb97d0d77fda7d71c65d4f3761c0647f34719f2cae85858585856040516105b4959493929190610865565b60405180910390a15050505050565b8280546105cf906109bf565b90600052602060002090601f0160209004810192826105f15760008555610638565b82601f1061060a57805160ff1916838001178555610638565b82800160010185558215610638579182015b8281111561063757825182559160200191906001019061061c565b5b5090506106459190610649565b5090565b5b8082111561066257600081600090555060010161064a565b5090565b600061067961067484610927565b6108f6565b90508281526020810184848401111561069157600080fd5b61069c84828561097d565b509392505050565b600082601f8301126106b557600080fd5b81356106c5848260208601610666565b91505092915050565b6000813590506106dd81610ad8565b92915050565b600080600080600060a086880312156106fb57600080fd5b600086013567ffffffffffffffff81111561071557600080fd5b610721888289016106a4565b955050602086013567ffffffffffffffff81111561073e57600080fd5b61074a888289016106a4565b945050604086013567ffffffffffffffff81111561076757600080fd5b610773888289016106a4565b935050606086013567ffffffffffffffff81111561079057600080fd5b61079c888289016106a4565b925050608086013567ffffffffffffffff8111156107b957600080fd5b6107c5888289016106a4565b9150509295509295909350565b6000602082840312156107e457600080fd5b60006107f2848285016106ce565b91505092915050565b600061080682610957565b6108108185610962565b935061082081856020860161098c565b61082981610ac7565b840191505092915050565b61083d81610973565b82525050565b6000602082019050818103600083015261085d81846107fb565b905092915050565b600060a082019050818103600083015261087f81886107fb565b9050818103602083015261089381876107fb565b905081810360408301526108a781866107fb565b905081810360608301526108bb81856107fb565b905081810360808301526108cf81846107fb565b90509695505050505050565b60006020820190506108f06000830184610834565b92915050565b6000604051905081810181811067ffffffffffffffff8211171561091d5761091c610a98565b5b8060405250919050565b600067ffffffffffffffff82111561094257610941610a98565b5b601f19601f8301169050602081019050919050565b600081519050919050565b600082825260208201905092915050565b6000819050919050565b82818337600083830152505050565b60005b838110156109aa57808201518184015260208101905061098f565b838111156109b9576000848401525b50505050565b600060028204905060018216806109d757607f821691505b602082108114156109eb576109ea610a69565b5b50919050565b60006109fc82610973565b91507fffffffffffffffffffffffffffffffffffffffffffffffffffffffffffffffff821415610a2f57610a2e610a3a565b5b600182019050919050565b7f4e487b7100000000000000000000000000000000000000000000000000000000600052601160045260246000fd5b7f4e487b7100000000000000000000000000000000000000000000000000000000600052602260045260246000fd5b7f4e487b7100000000000000000000000000000000000000000000000000000000600052604160045260246000fd5b6000601f19601f8301169050919050565b610ae181610973565b8114610aec57600080fd5b5056fea2646970667358221220be43789a25ebed1633ab3862eef4ef6e86b29af628412023f68a9a6500ac8f7664736f6c63430008000033",
  "immutableReferences": {},
  "source": "// SPDX-License-Identifier: GPL-3.0\r\npragma solidity >=0.5.0 <0.9.0;\r\n\r\ncontract Company {\r\n    string public name;\r\n    uint public companiesCount = 0;\r\n    mapping(uint => Company) public companies;\r\n\r\n    struct Company {\r\n        string companyAddress;\r\n        string companyName;\r\n        string BnNumber;\r\n        string city;\r\n        string password;\r\n\r\n    }\r\n    \r\n    event companyCreated(\r\n        string companyAddress,\r\n        string companyName,\r\n        string BnNumber,\r\n        string city,\r\n        string password\r\n    );\r\n\r\n    constructor() public {\r\n        name = \"company registration contract\";\r\n    }\r\n\r\n    function createCompany(string memory _companyAddress, string memory _companyName, string memory _BnNumber, string memory _city, string memory _password) public {\r\n        // Require a valid company address\r\n        require(bytes(_companyAddress).length > 0);\r\n        // Require a valid company name\r\n        require(bytes(_companyName).length > 0);\r\n        // Require a valid Bn number\r\n        require(bytes(_BnNumber).length > 0);\r\n        // Require a valid city\r\n        require(bytes(_city).length > 0);\r\n        // Require a valid password\r\n        require(bytes(_password).length > 0);  \r\n\r\n        // Increment companys count\r\n        companiesCount++;\r\n        // Create the user\r\n        companies[companiesCount] = Company(\r\n            _companyAddress,\r\n            _companyName,\r\n            _BnNumber,\r\n            _city,\r\n            _password\r\n        );\r\n        // Trigger an event\r\n        emit companyCreated(\r\n            _companyAddress,\r\n            _companyName,\r\n            _BnNumber,\r\n            _city,\r\n            _password\r\n        );\r\n    }\r\n\r\n}",
  "sourcePath": "C:\\Users\\hovav\\finalproject\\src\\contracts\\Company.sol",
  "compiler": {
    "name": "solc",
    "version": "0.8.0+commit.c7dfd78e.Emscripten.clang"
  },
  "schemaVersion": "3.4.13",
  "updatedAt": "2023-06-15T09:29:58.537Z",
  "networkType": "ethereum",
  "devdoc": {
    "kind": "dev",
    "methods": {},
    "version": 1
  },
  "userdoc": {
    "kind": "user",
    "methods": {},
    "version": 1
  }
}