{
  "contractName": "GarageRegistration",
  "abi": [
    {
      "inputs": [],
      "stateMutability": "nonpayable",
      "type": "constructor"
    },
    {
      "anonymous": false,
      "inputs": [
        {
          "indexed": false,
          "internalType": "string",
          "name": "garageName",
          "type": "string"
        },
        {
          "indexed": false,
          "internalType": "string",
          "name": "BnNumber",
          "type": "string"
        },
        {
          "indexed": false,
          "internalType": "string",
          "name": "city",
          "type": "string"
        },
        {
          "indexed": false,
          "internalType": "string",
          "name": "password",
          "type": "string"
        }
      ],
      "name": "garageCreated",
      "type": "event"
    },
    {
      "inputs": [
        {
          "internalType": "uint256",
          "name": "",
          "type": "uint256"
        }
      ],
      "name": "garages",
      "outputs": [
        {
          "internalType": "string",
          "name": "garageName",
          "type": "string"
        },
        {
          "internalType": "string",
          "name": "BnNumber",
          "type": "string"
        },
        {
          "internalType": "string",
          "name": "city",
          "type": "string"
        },
        {
          "internalType": "string",
          "name": "password",
          "type": "string"
        }
      ],
      "stateMutability": "view",
      "type": "function",
      "constant": true
    },
    {
      "inputs": [],
      "name": "garagesCount",
      "outputs": [
        {
          "internalType": "uint256",
          "name": "",
          "type": "uint256"
        }
      ],
      "stateMutability": "view",
      "type": "function",
      "constant": true
    },
    {
      "inputs": [],
      "name": "name",
      "outputs": [
        {
          "internalType": "string",
          "name": "",
          "type": "string"
        }
      ],
      "stateMutability": "view",
      "type": "function",
      "constant": true
    },
    {
      "inputs": [
        {
          "internalType": "string",
          "name": "_garageName",
          "type": "string"
        },
        {
          "internalType": "string",
          "name": "_BnNumber",
          "type": "string"
        },
        {
          "internalType": "string",
          "name": "_city",
          "type": "string"
        },
        {
          "internalType": "string",
          "name": "_password",
          "type": "string"
        }
      ],
      "name": "createGarage",
      "outputs": [],
      "stateMutability": "nonpayable",
      "type": "function"
    }
  ],
  "bytecode": "0x6080604052600060015534801561001557600080fd5b506040518060400160405280601c81526020017f67617261676520726567697374726174696f6e20636f6e74726163740000000081525060009080519060200190610061929190610067565b5061016b565b8280546100739061010a565b90600052602060002090601f01602090048101928261009557600085556100dc565b82601f106100ae57805160ff19168380011785556100dc565b828001600101855582156100dc579182015b828111156100db5782518255916020019190600101906100c0565b5b5090506100e991906100ed565b5090565b5b808211156101065760008160009055506001016100ee565b5090565b6000600282049050600182168061012257607f821691505b602082108114156101365761013561013c565b5b50919050565b7f4e487b7100000000000000000000000000000000000000000000000000000000600052602260045260246000fd5b610a218061017a6000396000f3fe608060405234801561001057600080fd5b506004361061004c5760003560e01c806306fdde031461005157806328f65a071461006f57806359091672146100a2578063e1d9e31c146100c0575b600080fd5b6100596100dc565b6040516100669190610754565b60405180910390f35b610089600480360381019061008491906106e3565b61016a565b6040516100999493929190610776565b60405180910390f35b6100aa6103ba565b6040516100b791906107d7565b60405180910390f35b6100da60048036038101906100d59190610620565b6103c0565b005b600080546100e9906108bb565b80601f0160208091040260200160405190810160405280929190818152602001828054610115906108bb565b80156101625780601f1061013757610100808354040283529160200191610162565b820191906000526020600020905b81548152906001019060200180831161014557829003601f168201915b505050505081565b600260205280600052604060002060009150905080600001805461018d906108bb565b80601f01602080910402602001604051908101604052809291908181526020018280546101b9906108bb565b80156102065780601f106101db57610100808354040283529160200191610206565b820191906000526020600020905b8154815290600101906020018083116101e957829003601f168201915b50505050509080600101805461021b906108bb565b80601f0160208091040260200160405190810160405280929190818152602001828054610247906108bb565b80156102945780601f1061026957610100808354040283529160200191610294565b820191906000526020600020905b81548152906001019060200180831161027757829003601f168201915b5050505050908060020180546102a9906108bb565b80601f01602080910402602001604051908101604052809291908181526020018280546102d5906108bb565b80156103225780601f106102f757610100808354040283529160200191610322565b820191906000526020600020905b81548152906001019060200180831161030557829003601f168201915b505050505090806003018054610337906108bb565b80601f0160208091040260200160405190810160405280929190818152602001828054610363906108bb565b80156103b05780601f10610385576101008083540402835291602001916103b0565b820191906000526020600020905b81548152906001019060200180831161039357829003601f168201915b5050505050905084565b60015481565b60008451116103ce57600080fd5b60008351116103dc57600080fd5b60008251116103ea57600080fd5b60008151116103f857600080fd5b6001600081548092919061040b906108ed565b91905055506040518060800160405280858152602001848152602001838152602001828152506002600060015481526020019081526020016000206000820151816000019080519060200190610462929190610500565b50602082015181600101908051906020019061047f929190610500565b50604082015181600201908051906020019061049c929190610500565b5060608201518160030190805190602001906104b9929190610500565b509050507faa855a28d4351e56c1ec66f12924abcfc637de0ab4fd84c7bee614b54c25ad0a848484846040516104f29493929190610776565b60405180910390a150505050565b82805461050c906108bb565b90600052602060002090601f01602090048101928261052e5760008555610575565b82601f1061054757805160ff1916838001178555610575565b82800160010185558215610575579182015b82811115610574578251825591602001919060010190610559565b5b5090506105829190610586565b5090565b5b8082111561059f576000816000905550600101610587565b5090565b60006105b66105b184610823565b6107f2565b9050828152602081018484840111156105ce57600080fd5b6105d9848285610879565b509392505050565b600082601f8301126105f257600080fd5b81356106028482602086016105a3565b91505092915050565b60008135905061061a816109d4565b92915050565b6000806000806080858703121561063657600080fd5b600085013567ffffffffffffffff81111561065057600080fd5b61065c878288016105e1565b945050602085013567ffffffffffffffff81111561067957600080fd5b610685878288016105e1565b935050604085013567ffffffffffffffff8111156106a257600080fd5b6106ae878288016105e1565b925050606085013567ffffffffffffffff8111156106cb57600080fd5b6106d7878288016105e1565b91505092959194509250565b6000602082840312156106f557600080fd5b60006107038482850161060b565b91505092915050565b600061071782610853565b610721818561085e565b9350610731818560208601610888565b61073a816109c3565b840191505092915050565b61074e8161086f565b82525050565b6000602082019050818103600083015261076e818461070c565b905092915050565b60006080820190508181036000830152610790818761070c565b905081810360208301526107a4818661070c565b905081810360408301526107b8818561070c565b905081810360608301526107cc818461070c565b905095945050505050565b60006020820190506107ec6000830184610745565b92915050565b6000604051905081810181811067ffffffffffffffff8211171561081957610818610994565b5b8060405250919050565b600067ffffffffffffffff82111561083e5761083d610994565b5b601f19601f8301169050602081019050919050565b600081519050919050565b600082825260208201905092915050565b6000819050919050565b82818337600083830152505050565b60005b838110156108a657808201518184015260208101905061088b565b838111156108b5576000848401525b50505050565b600060028204905060018216806108d357607f821691505b602082108114156108e7576108e6610965565b5b50919050565b60006108f88261086f565b91507fffffffffffffffffffffffffffffffffffffffffffffffffffffffffffffffff82141561092b5761092a610936565b5b600182019050919050565b7f4e487b7100000000000000000000000000000000000000000000000000000000600052601160045260246000fd5b7f4e487b7100000000000000000000000000000000000000000000000000000000600052602260045260246000fd5b7f4e487b7100000000000000000000000000000000000000000000000000000000600052604160045260246000fd5b6000601f19601f8301169050919050565b6109dd8161086f565b81146109e857600080fd5b5056fea2646970667358221220d8dc5c7a6b740f960ea7820c643d81d1ecfec64af97945fa1976899538cbe9ee64736f6c63430008000033",
  "immutableReferences": {},
  "source": "// SPDX-License-Identifier: GPL-3.0\r\npragma solidity >=0.5.0 <0.9.0;\r\n\r\ncontract GarageRegistration {\r\n    string public name;\r\n    uint public garagesCount = 0;\r\n    mapping(uint => Garage) public garages;\r\n\r\n    struct Garage {\r\n        string garageName;\r\n        string BnNumber;\r\n        string city;\r\n        string password;\r\n\r\n    }\r\n    \r\n    event garageCreated(\r\n        string garageName,\r\n        string BnNumber,\r\n        string city,\r\n        string password\r\n    );\r\n\r\n    constructor() public {\r\n        name = \"garage registration contract\";\r\n    }\r\n\r\n    function createGarage(string memory _garageName, string memory _BnNumber, string memory _city, string memory _password) public {\r\n        // Require a valid garage name\r\n        require(bytes(_garageName).length > 0);\r\n        // Require a valid Bn number\r\n        require(bytes(_BnNumber).length > 0);\r\n        // Require a valid city\r\n        require(bytes(_city).length > 0);\r\n        // Require a valid password\r\n        require(bytes(_password).length > 0);  \r\n\r\n        // Increment garages count\r\n        garagesCount++;\r\n        // Create the user\r\n        garages[garagesCount] = Garage(\r\n            _garageName,\r\n            _BnNumber,\r\n            _city,\r\n            _password\r\n        );\r\n        // Trigger an event\r\n        emit garageCreated(\r\n            _garageName,\r\n            _BnNumber,\r\n            _city,\r\n            _password\r\n        );\r\n    }\r\n\r\n}",
  "sourcePath": "C:\\Users\\hovav\\finalproject\\src\\contracts\\GarageRegistration.sol",
  "compiler": {
    "name": "solc",
    "version": "0.8.0+commit.c7dfd78e.Emscripten.clang"
  },
  "schemaVersion": "3.4.13",
  "updatedAt": "2023-05-24T10:10:12.957Z",
  "networkType": "ethereum",
  "devdoc": {
    "kind": "dev",
    "methods": {},
    "version": 1
  },
  "userdoc": {
    "kind": "user",
    "methods": {},
    "version": 1
  }
}