{
    "contractName": "GarageRegistration",
    "abi": [
        {
            "inputs": [],
            "stateMutability": "nonpayable",
            "type": "constructor"
        },
        {
            "anonymous": false,
            "inputs": [
                {
                    "indexed": false,
                    "internalType": "string",
                    "name": "garageName",
                    "type": "string"
                },
                {
                    "indexed": false,
                    "internalType": "string",
                    "name": "city",
                    "type": "string"
                },
                {
                    "indexed": false,
                    "internalType": "string",
                    "name": "password",
                    "type": "string"
                }
            ],
            "name": "GarageUpdated",
            "type": "event"
        },
        {
            "anonymous": false,
            "inputs": [
                {
                    "indexed": false,
                    "internalType": "string",
                    "name": "garageAddress",
                    "type": "string"
                },
                {
                    "indexed": false,
                    "internalType": "string",
                    "name": "garageName",
                    "type": "string"
                },
                {
                    "indexed": false,
                    "internalType": "string",
                    "name": "BnNumber",
                    "type": "string"
                },
                {
                    "indexed": false,
                    "internalType": "string",
                    "name": "city",
                    "type": "string"
                },
                {
                    "indexed": false,
                    "internalType": "string",
                    "name": "password",
                    "type": "string"
                }
            ],
            "name": "garageCreated",
            "type": "event"
        },
        {
            "inputs": [
                {
                    "internalType": "uint256",
                    "name": "",
                    "type": "uint256"
                }
            ],
            "name": "garages",
            "outputs": [
                {
                    "internalType": "string",
                    "name": "garageAddress",
                    "type": "string"
                },
                {
                    "internalType": "string",
                    "name": "garageName",
                    "type": "string"
                },
                {
                    "internalType": "string",
                    "name": "BnNumber",
                    "type": "string"
                },
                {
                    "internalType": "string",
                    "name": "city",
                    "type": "string"
                },
                {
                    "internalType": "string",
                    "name": "password",
                    "type": "string"
                }
            ],
            "stateMutability": "view",
            "type": "function",
            "constant": true
        },
        {
            "inputs": [],
            "name": "garagesCount",
            "outputs": [
                {
                    "internalType": "uint256",
                    "name": "",
                    "type": "uint256"
                }
            ],
            "stateMutability": "view",
            "type": "function",
            "constant": true
        },
        {
            "inputs": [],
            "name": "name",
            "outputs": [
                {
                    "internalType": "string",
                    "name": "",
                    "type": "string"
                }
            ],
            "stateMutability": "view",
            "type": "function",
            "constant": true
        },
        {
            "inputs": [
                {
                    "internalType": "string",
                    "name": "_garageAddress",
                    "type": "string"
                },
                {
                    "internalType": "string",
                    "name": "_garageName",
                    "type": "string"
                },
                {
                    "internalType": "string",
                    "name": "_BnNumber",
                    "type": "string"
                },
                {
                    "internalType": "string",
                    "name": "_city",
                    "type": "string"
                },
                {
                    "internalType": "string",
                    "name": "_password",
                    "type": "string"
                }
            ],
            "name": "createGarage",
            "outputs": [],
            "stateMutability": "nonpayable",
            "type": "function"
        },
        {
            "inputs": [
                {
                    "internalType": "uint256",
                    "name": "_index",
                    "type": "uint256"
                },
                {
                    "internalType": "string",
                    "name": "_garageName",
                    "type": "string"
                },
                {
                    "internalType": "string",
                    "name": "_city",
                    "type": "string"
                },
                {
                    "internalType": "string",
                    "name": "_password",
                    "type": "string"
                }
            ],
            "name": "updateGarage",
            "outputs": [],
            "stateMutability": "nonpayable",
            "type": "function"
        }
    ],
    "bytecode": "0x608060405260006001553480156200001657600080fd5b506040518060400160405280601c81526020017f67617261676520726567697374726174696f6e20636f6e74726163740000000081525060009080519060200190620000649291906200006b565b5062000180565b82805462000079906200011b565b90600052602060002090601f0160209004810192826200009d5760008555620000e9565b82601f10620000b857805160ff1916838001178555620000e9565b82800160010185558215620000e9579182015b82811115620000e8578251825591602001919060010190620000cb565b5b509050620000f89190620000fc565b5090565b5b8082111562000117576000816000905550600101620000fd565b5090565b600060028204905060018216806200013457607f821691505b602082108114156200014b576200014a62000151565b5b50919050565b7f4e487b7100000000000000000000000000000000000000000000000000000000600052602260045260246000fd5b61107a80620001906000396000f3fe608060405234801561001057600080fd5b50600436106100575760003560e01c806306fdde031461005c57806328f65a071461007a57806346cb84c2146100ae57806359091672146100ca578063bfeddc84146100e8575b600080fd5b610064610104565b6040516100719190610d4c565b60405180910390f35b610094600480360381019061008f9190610c30565b610192565b6040516100a5959493929190610dba565b60405180910390f35b6100c860048036038101906100c39190610b41565b610470565b005b6100d26105e4565b6040516100df9190610e30565b60405180910390f35b61010260048036038101906100fd9190610c59565b6105ea565b005b6000805461011190610f14565b80601f016020809104026020016040519081016040528092919081815260200182805461013d90610f14565b801561018a5780601f1061015f5761010080835404028352916020019161018a565b820191906000526020600020905b81548152906001019060200180831161016d57829003601f168201915b505050505081565b60026020528060005260406000206000915090508060000180546101b590610f14565b80601f01602080910402602001604051908101604052809291908181526020018280546101e190610f14565b801561022e5780601f106102035761010080835404028352916020019161022e565b820191906000526020600020905b81548152906001019060200180831161021157829003601f168201915b50505050509080600101805461024390610f14565b80601f016020809104026020016040519081016040528092919081815260200182805461026f90610f14565b80156102bc5780601f10610291576101008083540402835291602001916102bc565b820191906000526020600020905b81548152906001019060200180831161029f57829003601f168201915b5050505050908060020180546102d190610f14565b80601f01602080910402602001604051908101604052809291908181526020018280546102fd90610f14565b801561034a5780601f1061031f5761010080835404028352916020019161034a565b820191906000526020600020905b81548152906001019060200180831161032d57829003601f168201915b50505050509080600301805461035f90610f14565b80601f016020809104026020016040519081016040528092919081815260200182805461038b90610f14565b80156103d85780601f106103ad576101008083540402835291602001916103d8565b820191906000526020600020905b8154815290600101906020018083116103bb57829003601f168201915b5050505050908060040180546103ed90610f14565b80601f016020809104026020016040519081016040528092919081815260200182805461041990610f14565b80156104665780601f1061043b57610100808354040283529160200191610466565b820191906000526020600020905b81548152906001019060200180831161044957829003601f168201915b5050505050905085565b600085511161047e57600080fd5b600084511161048c57600080fd5b600083511161049a57600080fd5b60008251116104a857600080fd5b60008151116104b657600080fd5b600160008154809291906104c990610f46565b91905055506040518060a00160405280868152602001858152602001848152602001838152602001828152506002600060015481526020019081526020016000206000820151816000019080519060200190610526929190610a21565b506020820151816001019080519060200190610543929190610a21565b506040820151816002019080519060200190610560929190610a21565b50606082015181600301908051906020019061057d929190610a21565b50608082015181600401908051906020019061059a929190610a21565b509050507f1230802bebe312587de8919779031c202087c9daeea00a22d30ede2916b48e8485858585856040516105d5959493929190610dba565b60405180910390a15050505050565b60015481565b60008351116105f857600080fd5b600082511161060657600080fd5b600081511161061457600080fd5b6000600260008681526020019081526020016000206040518060a001604052908160008201805461064490610f14565b80601f016020809104026020016040519081016040528092919081815260200182805461067090610f14565b80156106bd5780601f10610692576101008083540402835291602001916106bd565b820191906000526020600020905b8154815290600101906020018083116106a057829003601f168201915b505050505081526020016001820180546106d690610f14565b80601f016020809104026020016040519081016040528092919081815260200182805461070290610f14565b801561074f5780601f106107245761010080835404028352916020019161074f565b820191906000526020600020905b81548152906001019060200180831161073257829003601f168201915b5050505050815260200160028201805461076890610f14565b80601f016020809104026020016040519081016040528092919081815260200182805461079490610f14565b80156107e15780601f106107b6576101008083540402835291602001916107e1565b820191906000526020600020905b8154815290600101906020018083116107c457829003601f168201915b505050505081526020016003820180546107fa90610f14565b80601f016020809104026020016040519081016040528092919081815260200182805461082690610f14565b80156108735780601f1061084857610100808354040283529160200191610873565b820191906000526020600020905b81548152906001019060200180831161085657829003601f168201915b5050505050815260200160048201805461088c90610f14565b80601f01602080910402602001604051908101604052809291908181526020018280546108b890610f14565b80156109055780601f106108da57610100808354040283529160200191610905565b820191906000526020600020905b8154815290600101906020018083116108e857829003601f168201915b50505050508152505090508381602001819052508281606001819052508181608001819052508060026000878152602001908152602001600020600082015181600001908051906020019061095b929190610a21565b506020820151816001019080519060200190610978929190610a21565b506040820151816002019080519060200190610995929190610a21565b5060608201518160030190805190602001906109b2929190610a21565b5060808201518160040190805190602001906109cf929190610a21565b509050507fd30e0f3671f568d30269add3828189052521b3783dff7dc6c4ec007ddb238d2c816020015182606001518360800151604051610a1293929190610d6e565b60405180910390a15050505050565b828054610a2d90610f14565b90600052602060002090601f016020900481019282610a4f5760008555610a96565b82601f10610a6857805160ff1916838001178555610a96565b82800160010185558215610a96579182015b82811115610a95578251825591602001919060010190610a7a565b5b509050610aa39190610aa7565b5090565b5b80821115610ac0576000816000905550600101610aa8565b5090565b6000610ad7610ad284610e7c565b610e4b565b905082815260208101848484011115610aef57600080fd5b610afa848285610ed2565b509392505050565b600082601f830112610b1357600080fd5b8135610b23848260208601610ac4565b91505092915050565b600081359050610b3b8161102d565b92915050565b600080600080600060a08688031215610b5957600080fd5b600086013567ffffffffffffffff811115610b7357600080fd5b610b7f88828901610b02565b955050602086013567ffffffffffffffff811115610b9c57600080fd5b610ba888828901610b02565b945050604086013567ffffffffffffffff811115610bc557600080fd5b610bd188828901610b02565b935050606086013567ffffffffffffffff811115610bee57600080fd5b610bfa88828901610b02565b925050608086013567ffffffffffffffff811115610c1757600080fd5b610c2388828901610b02565b9150509295509295909350565b600060208284031215610c4257600080fd5b6000610c5084828501610b2c565b91505092915050565b60008060008060808587031215610c6f57600080fd5b6000610c7d87828801610b2c565b945050602085013567ffffffffffffffff811115610c9a57600080fd5b610ca687828801610b02565b935050604085013567ffffffffffffffff811115610cc357600080fd5b610ccf87828801610b02565b925050606085013567ffffffffffffffff811115610cec57600080fd5b610cf887828801610b02565b91505092959194509250565b6000610d0f82610eac565b610d198185610eb7565b9350610d29818560208601610ee1565b610d328161101c565b840191505092915050565b610d4681610ec8565b82525050565b60006020820190508181036000830152610d668184610d04565b905092915050565b60006060820190508181036000830152610d888186610d04565b90508181036020830152610d9c8185610d04565b90508181036040830152610db08184610d04565b9050949350505050565b600060a0820190508181036000830152610dd48188610d04565b90508181036020830152610de88187610d04565b90508181036040830152610dfc8186610d04565b90508181036060830152610e108185610d04565b90508181036080830152610e248184610d04565b90509695505050505050565b6000602082019050610e456000830184610d3d565b92915050565b6000604051905081810181811067ffffffffffffffff82111715610e7257610e71610fed565b5b8060405250919050565b600067ffffffffffffffff821115610e9757610e96610fed565b5b601f19601f8301169050602081019050919050565b600081519050919050565b600082825260208201905092915050565b6000819050919050565b82818337600083830152505050565b60005b83811015610eff578082015181840152602081019050610ee4565b83811115610f0e576000848401525b50505050565b60006002820490506001821680610f2c57607f821691505b60208210811415610f4057610f3f610fbe565b5b50919050565b6000610f5182610ec8565b91507fffffffffffffffffffffffffffffffffffffffffffffffffffffffffffffffff821415610f8457610f83610f8f565b5b600182019050919050565b7f4e487b7100000000000000000000000000000000000000000000000000000000600052601160045260246000fd5b7f4e487b7100000000000000000000000000000000000000000000000000000000600052602260045260246000fd5b7f4e487b7100000000000000000000000000000000000000000000000000000000600052604160045260246000fd5b6000601f19601f8301169050919050565b61103681610ec8565b811461104157600080fd5b5056fea26469706673582212207371e97b4d03b26937ae46112bbe5ccd719ae1ca53680dd874bb9f59c6dc836b64736f6c63430008000033",
    "immutableReferences": {},
    "source": "// SPDX-License-Identifier: GPL-3.0\r\npragma solidity >=0.5.0 <0.9.0;\r\n\r\ncontract GarageRegistration {\r\n    string public name;\r\n    uint public garagesCount = 0;\r\n    mapping(uint => Garage) public garages;\r\n\r\n    struct Garage {\r\n        string garageAddress;\r\n        string garageName;\r\n        string BnNumber;\r\n        string city;\r\n        string password;\r\n\r\n    }\r\n    \r\n    event garageCreated(\r\n        string garageAddress,\r\n        string garageName,\r\n        string BnNumber,\r\n        string city,\r\n        string password\r\n    );\r\n\r\n    event GarageUpdated(\r\n        string garageName,\r\n        string city,\r\n        string password\r\n    );\r\n\r\n    constructor() public {\r\n        name = \"garage registration contract\";\r\n    }\r\n\r\n    function createGarage(string memory _garageAddress, string memory _garageName, string memory _BnNumber, string memory _city, string memory _password) public {\r\n        // Require a valid garage address\r\n        require(bytes(_garageAddress).length > 0);\r\n        // Require a valid garage name\r\n        require(bytes(_garageName).length > 0);\r\n        // Require a valid Bn number\r\n        require(bytes(_BnNumber).length > 0);\r\n        // Require a valid city\r\n        require(bytes(_city).length > 0);\r\n        // Require a valid password\r\n        require(bytes(_password).length > 0);  \r\n\r\n        // Increment garages count\r\n        garagesCount++;\r\n        // Create the user\r\n        garages[garagesCount] = Garage(\r\n            _garageAddress,\r\n            _garageName,\r\n            _BnNumber,\r\n            _city,\r\n            _password\r\n        );\r\n        // Trigger an event\r\n        emit garageCreated(\r\n            _garageAddress,\r\n            _garageName,\r\n            _BnNumber,\r\n            _city,\r\n            _password\r\n        );\r\n    }\r\n\r\n    function updateGarage(uint _index, string memory _garageName, string memory _city, string memory _password) public {\r\n        // Require a valid company name\r\n        require(bytes(_garageName).length > 0);\r\n        // Require a valid city\r\n        require(bytes(_city).length > 0);\r\n        // Require a valid password\r\n        require(bytes(_password).length > 0);  \r\n\r\n        // Make sure the index is valid\r\n        // require(_index > 0 && _index <= usersCount);\r\n        // Update the user\r\n        Garage memory garage = garages[_index];\r\n\r\n        garage.garageName = _garageName;\r\n        garage.city = _city;\r\n        garage.password = _password;\r\n        garages[_index] = garage;\r\n       \r\n        // Trigger an event\r\n        emit GarageUpdated(garage.garageName, garage.city, garage.password);\r\n    }\r\n\r\n\r\n\r\n}",
    "sourcePath": "C:\\Users\\hovav\\finalproject\\src\\contracts\\GarageRegistration.sol",
    "compiler": {
        "name": "solc",
        "version": "0.8.0+commit.c7dfd78e.Emscripten.clang"
    },
    "schemaVersion": "3.4.13",
    "updatedAt": "2023-06-24T18:02:36.316Z",
    "networkType": "ethereum",
    "devdoc": {
        "kind": "dev",
        "methods": {},
        "version": 1
    },
    "userdoc": {
        "kind": "user",
        "methods": {},
        "version": 1
    }
}