{
  "contractName": "Marketplace",
  "abi": [
    {
      "inputs": [],
      "stateMutability": "nonpayable",
      "type": "constructor"
    },
    {
      "anonymous": false,
      "inputs": [
        {
          "indexed": false,
          "internalType": "uint256",
          "name": "vin",
          "type": "uint256"
        },
        {
          "indexed": false,
          "internalType": "string",
          "name": "vehicleType",
          "type": "string"
        },
        {
          "indexed": false,
          "internalType": "uint256",
          "name": "vehiclePricePerDay",
          "type": "uint256"
        },
        {
          "indexed": false,
          "internalType": "address payable",
          "name": "owner",
          "type": "address"
        },
        {
          "indexed": false,
          "internalType": "string[]",
          "name": "unaviableDates",
          "type": "string[]"
        },
        {
          "indexed": false,
          "internalType": "uint256",
          "name": "numOfSeats",
          "type": "uint256"
        },
        {
          "indexed": false,
          "internalType": "string",
          "name": "gearboxType",
          "type": "string"
        }
      ],
      "name": "VehicleCreated",
      "type": "event"
    },
    {
      "anonymous": false,
      "inputs": [
        {
          "indexed": false,
          "internalType": "uint256",
          "name": "vin",
          "type": "uint256"
        },
        {
          "indexed": false,
          "internalType": "string",
          "name": "vehicleType",
          "type": "string"
        },
        {
          "indexed": false,
          "internalType": "uint256",
          "name": "vehiclePricePerDay",
          "type": "uint256"
        },
        {
          "indexed": false,
          "internalType": "address payable",
          "name": "owner",
          "type": "address"
        },
        {
          "indexed": false,
          "internalType": "string[]",
          "name": "unaviableDates",
          "type": "string[]"
        },
        {
          "indexed": false,
          "internalType": "uint256",
          "name": "numOfSeats",
          "type": "uint256"
        },
        {
          "indexed": false,
          "internalType": "string",
          "name": "gearboxType",
          "type": "string"
        }
      ],
      "name": "VehiclePurchased",
      "type": "event"
    },
    {
      "inputs": [],
      "name": "name",
      "outputs": [
        {
          "internalType": "string",
          "name": "",
          "type": "string"
        }
      ],
      "stateMutability": "view",
      "type": "function",
      "constant": true
    },
    {
      "inputs": [],
      "name": "vehicleCount",
      "outputs": [
        {
          "internalType": "uint256",
          "name": "",
          "type": "uint256"
        }
      ],
      "stateMutability": "view",
      "type": "function",
      "constant": true
    },
    {
      "inputs": [
        {
          "internalType": "uint256",
          "name": "",
          "type": "uint256"
        }
      ],
      "name": "vehicles",
      "outputs": [
        {
          "internalType": "uint256",
          "name": "vin",
          "type": "uint256"
        },
        {
          "internalType": "string",
          "name": "vehicleType",
          "type": "string"
        },
        {
          "internalType": "uint256",
          "name": "vehiclePricePerDay",
          "type": "uint256"
        },
        {
          "internalType": "address payable",
          "name": "owner",
          "type": "address"
        },
        {
          "internalType": "uint256",
          "name": "numOfSeats",
          "type": "uint256"
        },
        {
          "internalType": "string",
          "name": "gearboxType",
          "type": "string"
        }
      ],
      "stateMutability": "view",
      "type": "function",
      "constant": true
    },
    {
      "inputs": [
        {
          "internalType": "string",
          "name": "_vin",
          "type": "string"
        },
        {
          "internalType": "string",
          "name": "_vehicleType",
          "type": "string"
        },
        {
          "internalType": "uint256",
          "name": "_price",
          "type": "uint256"
        },
        {
          "internalType": "uint256",
          "name": "_numOfSeats",
          "type": "uint256"
        },
        {
          "internalType": "string",
          "name": "_gearboxType",
          "type": "string"
        }
      ],
      "name": "createVehicle",
      "outputs": [],
      "stateMutability": "nonpayable",
      "type": "function"
    },
    {
      "inputs": [
        {
          "internalType": "uint256",
          "name": "_id",
          "type": "uint256"
        }
      ],
      "name": "purchaseVehicle",
      "outputs": [],
      "stateMutability": "payable",
      "type": "function",
      "payable": true
    }
  ],
  "bytecode": "0x608060405260006001553480156200001657600080fd5b506040518060400160405280601b81526020017f4368656e20262059617264656e2066696e616c2070726f6a6563740000000000815250600090816200005d9190620002de565b50620003c5565b600081519050919050565b7f4e487b7100000000000000000000000000000000000000000000000000000000600052604160045260246000fd5b7f4e487b7100000000000000000000000000000000000000000000000000000000600052602260045260246000fd5b60006002820490506001821680620000e657607f821691505b602082108103620000fc57620000fb6200009e565b5b50919050565b60008190508160005260206000209050919050565b60006020601f8301049050919050565b600082821b905092915050565b600060088302620001667fffffffffffffffffffffffffffffffffffffffffffffffffffffffffffffffff8262000127565b62000172868362000127565b95508019841693508086168417925050509392505050565b6000819050919050565b6000819050919050565b6000620001bf620001b9620001b3846200018a565b62000194565b6200018a565b9050919050565b6000819050919050565b620001db836200019e565b620001f3620001ea82620001c6565b84845462000134565b825550505050565b600090565b6200020a620001fb565b62000217818484620001d0565b505050565b5b818110156200023f576200023360008262000200565b6001810190506200021d565b5050565b601f8211156200028e57620002588162000102565b620002638462000117565b8101602085101562000273578190505b6200028b620002828562000117565b8301826200021c565b50505b505050565b600082821c905092915050565b6000620002b36000198460080262000293565b1980831691505092915050565b6000620002ce8383620002a0565b9150826002028217905092915050565b620002e98262000064565b67ffffffffffffffff8111156200030557620003046200006f565b5b620003118254620000cd565b6200031e82828562000243565b600060209050601f83116001811462000356576000841562000341578287015190505b6200034d8582620002c0565b865550620003bd565b601f198416620003668662000102565b60005b82811015620003905784890151825560018201915060208501945060208101905062000369565b86831015620003b05784890151620003ac601f891682620002a0565b8355505b6001600288020188555050505b505050505050565b6108a680620003d56000396000f3fe60806040526004361061004a5760003560e01c806302ffbc541461004f57806306fdde031461006b5780638cb5ece61461009657806399704937146100bf578063b8ba95fa146100ea575b600080fd5b610069600480360381019061006491906103dc565b61012c565b005b34801561007757600080fd5b5061008061012f565b60405161008d9190610499565b60405180910390f35b3480156100a257600080fd5b506100bd60048036038101906100b891906105f0565b6101bd565b005b3480156100cb57600080fd5b506100d4610220565b6040516100e191906106ce565b60405180910390f35b3480156100f657600080fd5b50610111600480360381019061010c91906103dc565b610226565b6040516101239695949392919061072a565b60405180910390f35b50565b6000805461013c906107c8565b80601f0160208091040260200160405190810160405280929190818152602001828054610168906107c8565b80156101b55780601f1061018a576101008083540402835291602001916101b5565b820191906000526020600020905b81548152906001019060200180831161019857829003601f168201915b505050505081565b60008551116101cb57600080fd5b600083116101d857600080fd5b60008451116101e657600080fd5b600082116101f357600080fd5b600081511161020157600080fd5b6001600081548092919061021490610828565b91905055505050505050565b60015481565b600260205280600052604060002060009150905080600001549080600101805461024f906107c8565b80601f016020809104026020016040519081016040528092919081815260200182805461027b906107c8565b80156102c85780601f1061029d576101008083540402835291602001916102c8565b820191906000526020600020905b8154815290600101906020018083116102ab57829003601f168201915b5050505050908060020154908060030160009054906101000a900473ffffffffffffffffffffffffffffffffffffffff169080600501549080600601805461030f906107c8565b80601f016020809104026020016040519081016040528092919081815260200182805461033b906107c8565b80156103885780601f1061035d57610100808354040283529160200191610388565b820191906000526020600020905b81548152906001019060200180831161036b57829003601f168201915b5050505050905086565b6000604051905090565b600080fd5b600080fd5b6000819050919050565b6103b9816103a6565b81146103c457600080fd5b50565b6000813590506103d6816103b0565b92915050565b6000602082840312156103f2576103f161039c565b5b6000610400848285016103c7565b91505092915050565b600081519050919050565b600082825260208201905092915050565b60005b83811015610443578082015181840152602081019050610428565b60008484015250505050565b6000601f19601f8301169050919050565b600061046b82610409565b6104758185610414565b9350610485818560208601610425565b61048e8161044f565b840191505092915050565b600060208201905081810360008301526104b38184610460565b905092915050565b600080fd5b600080fd5b7f4e487b7100000000000000000000000000000000000000000000000000000000600052604160045260246000fd5b6104fd8261044f565b810181811067ffffffffffffffff8211171561051c5761051b6104c5565b5b80604052505050565b600061052f610392565b905061053b82826104f4565b919050565b600067ffffffffffffffff82111561055b5761055a6104c5565b5b6105648261044f565b9050602081019050919050565b82818337600083830152505050565b600061059361058e84610540565b610525565b9050828152602081018484840111156105af576105ae6104c0565b5b6105ba848285610571565b509392505050565b600082601f8301126105d7576105d66104bb565b5b81356105e7848260208601610580565b91505092915050565b600080600080600060a0868803121561060c5761060b61039c565b5b600086013567ffffffffffffffff81111561062a576106296103a1565b5b610636888289016105c2565b955050602086013567ffffffffffffffff811115610657576106566103a1565b5b610663888289016105c2565b9450506040610674888289016103c7565b9350506060610685888289016103c7565b925050608086013567ffffffffffffffff8111156106a6576106a56103a1565b5b6106b2888289016105c2565b9150509295509295909350565b6106c8816103a6565b82525050565b60006020820190506106e360008301846106bf565b92915050565b600073ffffffffffffffffffffffffffffffffffffffff82169050919050565b6000610714826106e9565b9050919050565b61072481610709565b82525050565b600060c08201905061073f60008301896106bf565b81810360208301526107518188610460565b905061076060408301876106bf565b61076d606083018661071b565b61077a60808301856106bf565b81810360a083015261078c8184610460565b9050979650505050505050565b7f4e487b7100000000000000000000000000000000000000000000000000000000600052602260045260246000fd5b600060028204905060018216806107e057607f821691505b6020821081036107f3576107f2610799565b5b50919050565b7f4e487b7100000000000000000000000000000000000000000000000000000000600052601160045260246000fd5b6000610833826103a6565b91507fffffffffffffffffffffffffffffffffffffffffffffffffffffffffffffffff8203610865576108646107f9565b5b60018201905091905056fea2646970667358221220ad6625b5ce27cc49a581eb4f56e91395179b09bcbf1070f13e05f9977429884864736f6c63430008130033",
  "immutableReferences": {},
  "source": "// SPDX-License-Identifier: GPL-3.0\r\npragma solidity >=0.5.0 <0.9.0;\r\n\r\ncontract Marketplace {\r\n    string public name;\r\n    uint public vehicleCount = 0;\r\n    mapping(uint => Vehicle) public vehicles;\r\n\r\n    struct Vehicle {\r\n        uint vin;\r\n        string vehicleType;\r\n        uint vehiclePricePerDay;\r\n        address payable owner;\r\n        string[] unaviableDates;\r\n        uint numOfSeats;\r\n        string gearboxType;\r\n    }\r\n\r\n    event VehicleCreated(\r\n        uint vin,\r\n        string vehicleType,\r\n        uint vehiclePricePerDay,\r\n        address payable owner,\r\n        string[] unaviableDates,\r\n        uint numOfSeats,\r\n        string gearboxType\r\n    );\r\n\r\n    event VehiclePurchased(\r\n        uint vin,\r\n        string vehicleType,\r\n        uint vehiclePricePerDay,\r\n        address payable owner,\r\n        string[] unaviableDates,\r\n        uint numOfSeats,\r\n        string gearboxType\r\n    );\r\n\r\n    constructor() public {\r\n        name = \"Chen & Yarden final project\";\r\n    }\r\n\r\n    function createVehicle(string memory _vin, string memory _vehicleType, uint _price, uint _numOfSeats, string memory _gearboxType) public {\r\n        // Require a valid vin\r\n        require(bytes(_vin).length > 0);\r\n        // Require a valid price\r\n        require(_price > 0);\r\n        // Require a valid vehicle type\r\n        require(bytes(_vehicleType).length > 0);\r\n        // Require a valid number of seats in the vehicle\r\n        require(_numOfSeats > 0);\r\n        // Require a valid gearbox type\r\n        require(bytes(_gearboxType).length > 0);\r\n        // Increment Vehicle count\r\n        vehicleCount++;\r\n        // Create the Vehicle\r\n        // vehicles[vehicleCount] = Vehicle(\r\n        //     vehicleCount,\r\n        //     _vin,\r\n        //     _price,\r\n        //     payable(msg.sender),\r\n        //     new string[](0),\r\n        //     _numOfSeats,\r\n        //     _gearboxType\r\n        // );\r\n        // // Trigger an event\r\n        // emit VehicleCreated(\r\n        //     vehicleCount,\r\n        //     _vin,\r\n        //     _price,\r\n        //     payable(msg.sender),\r\n        //     new string[](0),\r\n        //     _numOfSeats,\r\n        //     _gearboxType\r\n        // );\r\n    }\r\n\r\n    function purchaseVehicle(uint _id) public payable {\r\n    //     // Fetch the product\r\n    //     Product memory _product = products[_id];\r\n    //     // Fetch the owner\r\n    //     address payable _seller = _product.owner;\r\n    //     // Make sure the product has a valid id\r\n    //     require(_product.id > 0 && _product.id <= productCount);\r\n    //     // Require that there is enough Ether in the transaction\r\n    //     require(msg.value >= _product.price);\r\n    //     // Require that the product has not been purchased already\r\n    //     require(!_product.purchased);\r\n    //     // Require that the buyer is not the seller\r\n    //     require(_seller != msg.sender);\r\n    //     // Transfer ownership to the buyer\r\n    //     _product.owner = payable(msg.sender);\r\n    //     // Mark as purchased\r\n    //     _product.purchased = true;\r\n    //     // Update the product\r\n    //     products[_id] = _product;\r\n    //     // Pay the seller by sending them Ether\r\n    //     payable(address(_seller)).transfer(msg.value);\r\n    //     // Trigger an event\r\n    //     emit ProductPurchased(\r\n    //         productCount,\r\n    //         _product.name,\r\n    //         _product.price,\r\n    //         payable(msg.sender),\r\n    //         true\r\n    //     );\r\n    }\r\n}\r\n\r\n\r\n// TODO: handle string[] unaviableDates\r\n// TODO: need to add vehicle status",
  "sourcePath": "C:\\Users\\hovav\\finalproject\\src\\contracts\\Marketplace.sol",
  "compiler": {
    "name": "solc",
    "version": "0.8.19+commit.7dd6d404.Emscripten.clang"
  },
  "schemaVersion": "3.4.13",
  "updatedAt": "2023-04-27T10:57:32.301Z",
  "networkType": "ethereum",
  "devdoc": {
    "kind": "dev",
    "methods": {},
    "version": 1
  },
  "userdoc": {
    "kind": "user",
    "methods": {},
    "version": 1
  }
}