{
  "contractName": "Marketplace",
  "abi": [
    {
      "inputs": [],
      "stateMutability": "nonpayable",
      "type": "constructor"
    },
    {
      "anonymous": false,
      "inputs": [
        {
          "indexed": false,
          "internalType": "string",
          "name": "vin",
          "type": "string"
        },
        {
          "indexed": false,
          "internalType": "string",
          "name": "vehicleType",
          "type": "string"
        },
        {
          "indexed": false,
          "internalType": "uint256",
          "name": "vehiclePricePerDay",
          "type": "uint256"
        },
        {
          "indexed": false,
          "internalType": "address payable",
          "name": "owner",
          "type": "address"
        },
        {
          "indexed": false,
          "internalType": "string",
          "name": "unavailableDates",
          "type": "string"
        },
        {
          "indexed": false,
          "internalType": "uint256",
          "name": "numOfSeats",
          "type": "uint256"
        },
        {
          "indexed": false,
          "internalType": "string",
          "name": "gearboxType",
          "type": "string"
        },
        {
          "indexed": false,
          "internalType": "string",
          "name": "gasType",
          "type": "string"
        },
        {
          "indexed": false,
          "internalType": "string",
          "name": "deleteFlag",
          "type": "string"
        }
      ],
      "name": "VehicleCreated",
      "type": "event"
    },
    {
      "anonymous": false,
      "inputs": [
        {
          "indexed": false,
          "internalType": "string",
          "name": "vin",
          "type": "string"
        },
        {
          "indexed": false,
          "internalType": "string",
          "name": "deleteFlag",
          "type": "string"
        }
      ],
      "name": "VehicleDeleted",
      "type": "event"
    },
    {
      "anonymous": false,
      "inputs": [
        {
          "indexed": false,
          "internalType": "string",
          "name": "vin",
          "type": "string"
        },
        {
          "indexed": false,
          "internalType": "uint256",
          "name": "vehiclePricePerDay",
          "type": "uint256"
        }
      ],
      "name": "VehicleEdited",
      "type": "event"
    },
    {
      "anonymous": false,
      "inputs": [
        {
          "indexed": false,
          "internalType": "string",
          "name": "vin",
          "type": "string"
        },
        {
          "indexed": false,
          "internalType": "string",
          "name": "vehicleType",
          "type": "string"
        },
        {
          "indexed": false,
          "internalType": "uint256",
          "name": "vehiclePricePerDay",
          "type": "uint256"
        },
        {
          "indexed": false,
          "internalType": "address payable",
          "name": "owner",
          "type": "address"
        },
        {
          "indexed": false,
          "internalType": "string",
          "name": "unavailableDates",
          "type": "string"
        },
        {
          "indexed": false,
          "internalType": "uint256",
          "name": "numOfSeats",
          "type": "uint256"
        },
        {
          "indexed": false,
          "internalType": "string",
          "name": "gearboxType",
          "type": "string"
        },
        {
          "indexed": false,
          "internalType": "string",
          "name": "gasType",
          "type": "string"
        },
        {
          "indexed": false,
          "internalType": "string",
          "name": "deleteFlag",
          "type": "string"
        }
      ],
      "name": "VehiclePurchased",
      "type": "event"
    },
    {
      "inputs": [],
      "name": "name",
      "outputs": [
        {
          "internalType": "string",
          "name": "",
          "type": "string"
        }
      ],
      "stateMutability": "view",
      "type": "function",
      "constant": true
    },
    {
      "inputs": [],
      "name": "vehicleCount",
      "outputs": [
        {
          "internalType": "uint256",
          "name": "",
          "type": "uint256"
        }
      ],
      "stateMutability": "view",
      "type": "function",
      "constant": true
    },
    {
      "inputs": [
        {
          "internalType": "uint256",
          "name": "",
          "type": "uint256"
        }
      ],
      "name": "vehicles",
      "outputs": [
        {
          "internalType": "string",
          "name": "vin",
          "type": "string"
        },
        {
          "internalType": "string",
          "name": "vehicleType",
          "type": "string"
        },
        {
          "internalType": "uint256",
          "name": "vehiclePricePerDay",
          "type": "uint256"
        },
        {
          "internalType": "address payable",
          "name": "owner",
          "type": "address"
        },
        {
          "internalType": "string",
          "name": "unavailableDates",
          "type": "string"
        },
        {
          "internalType": "uint256",
          "name": "numOfSeats",
          "type": "uint256"
        },
        {
          "internalType": "string",
          "name": "gearboxType",
          "type": "string"
        },
        {
          "internalType": "string",
          "name": "gasType",
          "type": "string"
        },
        {
          "internalType": "string",
          "name": "deleteFlag",
          "type": "string"
        }
      ],
      "stateMutability": "view",
      "type": "function",
      "constant": true
    },
    {
      "inputs": [
        {
          "internalType": "string",
          "name": "_vin",
          "type": "string"
        },
        {
          "internalType": "string",
          "name": "_vehicleType",
          "type": "string"
        },
        {
          "internalType": "uint256",
          "name": "_price",
          "type": "uint256"
        },
        {
          "internalType": "uint256",
          "name": "_numOfSeats",
          "type": "uint256"
        },
        {
          "internalType": "string",
          "name": "_gearboxType",
          "type": "string"
        },
        {
          "internalType": "string",
          "name": "_gasType",
          "type": "string"
        },
        {
          "internalType": "string",
          "name": "_unavailableDates",
          "type": "string"
        }
      ],
      "name": "createVehicle",
      "outputs": [],
      "stateMutability": "nonpayable",
      "type": "function"
    },
    {
      "inputs": [
        {
          "internalType": "uint256",
          "name": "_index",
          "type": "uint256"
        },
        {
          "internalType": "string",
          "name": "_dates",
          "type": "string"
        },
        {
          "internalType": "uint256",
          "name": "_price",
          "type": "uint256"
        }
      ],
      "name": "editVehicle",
      "outputs": [],
      "stateMutability": "nonpayable",
      "type": "function"
    },
    {
      "inputs": [
        {
          "internalType": "uint256",
          "name": "_index",
          "type": "uint256"
        }
      ],
      "name": "deleteVehicle",
      "outputs": [],
      "stateMutability": "nonpayable",
      "type": "function"
    }
  ],
  "bytecode": "0x608060405260006001553480156200001657600080fd5b506040518060400160405280601b81526020017f4368656e20262059617264656e2066696e616c2070726f6a656374000000000081525060009080519060200190620000649291906200006b565b5062000180565b82805462000079906200011b565b90600052602060002090601f0160209004810192826200009d5760008555620000e9565b82601f10620000b857805160ff1916838001178555620000e9565b82800160010185558215620000e9579182015b82811115620000e8578251825591602001919060010190620000cb565b5b509050620000f89190620000fc565b5090565b5b8082111562000117576000816000905550600101620000fd565b5090565b600060028204905060018216806200013457607f821691505b602082108114156200014b576200014a62000151565b5b50919050565b7f4e487b7100000000000000000000000000000000000000000000000000000000600052602260045260246000fd5b611aeb80620001906000396000f3fe608060405234801561001057600080fd5b50600436106100625760003560e01c806306fdde03146100675780631baf145b146100855780633a4a2c0b146100a15780637c4822a0146100bd57806399704937146100d9578063b8ba95fa146100f7575b600080fd5b61006f61012f565b60405161007c919061167c565b60405180910390f35b61009f600480360381019061009a919061153e565b6101bd565b005b6100bb60048036038101906100b69190611515565b61073e565b005b6100d760048036038101906100d291906113ff565b610cd6565b005b6100e1610f3b565b6040516100ee919061186f565b60405180910390f35b610111600480360381019061010c9190611515565b610f41565b6040516101269998979695949392919061169e565b60405180910390f35b6000805461013c90611985565b80601f016020809104026020016040519081016040528092919081815260200182805461016890611985565b80156101b55780601f1061018a576101008083540402835291602001916101b5565b820191906000526020600020905b81548152906001019060200180831161019857829003601f168201915b505050505081565b600081116101ca57600080fd5b600060026000858152602001908152602001600020604051806101200160405290816000820180546101fb90611985565b80601f016020809104026020016040519081016040528092919081815260200182805461022790611985565b80156102745780601f1061024957610100808354040283529160200191610274565b820191906000526020600020905b81548152906001019060200180831161025757829003601f168201915b5050505050815260200160018201805461028d90611985565b80601f01602080910402602001604051908101604052809291908181526020018280546102b990611985565b80156103065780601f106102db57610100808354040283529160200191610306565b820191906000526020600020905b8154815290600101906020018083116102e957829003601f168201915b50505050508152602001600282015481526020016003820160009054906101000a900473ffffffffffffffffffffffffffffffffffffffff1673ffffffffffffffffffffffffffffffffffffffff1673ffffffffffffffffffffffffffffffffffffffff16815260200160048201805461037f90611985565b80601f01602080910402602001604051908101604052809291908181526020018280546103ab90611985565b80156103f85780601f106103cd576101008083540402835291602001916103f8565b820191906000526020600020905b8154815290600101906020018083116103db57829003601f168201915b505050505081526020016005820154815260200160068201805461041b90611985565b80601f016020809104026020016040519081016040528092919081815260200182805461044790611985565b80156104945780601f1061046957610100808354040283529160200191610494565b820191906000526020600020905b81548152906001019060200180831161047757829003601f168201915b505050505081526020016007820180546104ad90611985565b80601f01602080910402602001604051908101604052809291908181526020018280546104d990611985565b80156105265780601f106104fb57610100808354040283529160200191610526565b820191906000526020600020905b81548152906001019060200180831161050957829003601f168201915b5050505050815260200160088201805461053f90611985565b80601f016020809104026020016040519081016040528092919081815260200182805461056b90611985565b80156105b85780601f1061058d576101008083540402835291602001916105b8565b820191906000526020600020905b81548152906001019060200180831161059b57829003601f168201915b505050505081525050905081816040018181525050828160800181905250806002600086815260200190815260200160002060008201518160000190805190602001906106069291906112df565b5060208201518160010190805190602001906106239291906112df565b506040820151816002015560608201518160030160006101000a81548173ffffffffffffffffffffffffffffffffffffffff021916908373ffffffffffffffffffffffffffffffffffffffff16021790555060808201518160040190805190602001906106919291906112df565b5060a0820151816005015560c08201518160060190805190602001906106b89291906112df565b5060e08201518160070190805190602001906106d59291906112df565b506101008201518160080190805190602001906106f39291906112df565b509050507fba5163c97a01b22d3c086c07ced1a41c86c20470fe90c69d0b2df7f6e5b104c48160000151826040015160405161073092919061183f565b60405180910390a150505050565b6000600260008381526020019081526020016000206040518061012001604052908160008201805461076f90611985565b80601f016020809104026020016040519081016040528092919081815260200182805461079b90611985565b80156107e85780601f106107bd576101008083540402835291602001916107e8565b820191906000526020600020905b8154815290600101906020018083116107cb57829003601f168201915b5050505050815260200160018201805461080190611985565b80601f016020809104026020016040519081016040528092919081815260200182805461082d90611985565b801561087a5780601f1061084f5761010080835404028352916020019161087a565b820191906000526020600020905b81548152906001019060200180831161085d57829003601f168201915b50505050508152602001600282015481526020016003820160009054906101000a900473ffffffffffffffffffffffffffffffffffffffff1673ffffffffffffffffffffffffffffffffffffffff1673ffffffffffffffffffffffffffffffffffffffff1681526020016004820180546108f390611985565b80601f016020809104026020016040519081016040528092919081815260200182805461091f90611985565b801561096c5780601f106109415761010080835404028352916020019161096c565b820191906000526020600020905b81548152906001019060200180831161094f57829003601f168201915b505050505081526020016005820154815260200160068201805461098f90611985565b80601f01602080910402602001604051908101604052809291908181526020018280546109bb90611985565b8015610a085780601f106109dd57610100808354040283529160200191610a08565b820191906000526020600020905b8154815290600101906020018083116109eb57829003601f168201915b50505050508152602001600782018054610a2190611985565b80601f0160208091040260200160405190810160405280929190818152602001828054610a4d90611985565b8015610a9a5780601f10610a6f57610100808354040283529160200191610a9a565b820191906000526020600020905b815481529060010190602001808311610a7d57829003601f168201915b50505050508152602001600882018054610ab390611985565b80601f0160208091040260200160405190810160405280929190818152602001828054610adf90611985565b8015610b2c5780601f10610b0157610100808354040283529160200191610b2c565b820191906000526020600020905b815481529060010190602001808311610b0f57829003601f168201915b50505050508152505090506040518060400160405280600481526020017f747275650000000000000000000000000000000000000000000000000000000081525081610100018190525080600260008481526020019081526020016000206000820151816000019080519060200190610ba69291906112df565b506020820151816001019080519060200190610bc39291906112df565b506040820151816002015560608201518160030160006101000a81548173ffffffffffffffffffffffffffffffffffffffff021916908373ffffffffffffffffffffffffffffffffffffffff1602179055506080820151816004019080519060200190610c319291906112df565b5060a0820151816005015560c0820151816006019080519060200190610c589291906112df565b5060e0820151816007019080519060200190610c759291906112df565b50610100820151816008019080519060200190610c939291906112df565b509050507fa78461cd93a9d71bd26b04d7fb4d74b3b6e79f30958bc84ee92c13b255254cd78160000151604051610cca919061180a565b60405180910390a15050565b6000875111610ce457600080fd5b60008511610cf157600080fd5b6000865111610cff57600080fd5b60008411610d0c57600080fd5b6000835111610d1a57600080fd5b6000825111610d2857600080fd5b60016000815480929190610d3b906119b7565b91905055506040518061012001604052808881526020018781526020018681526020013373ffffffffffffffffffffffffffffffffffffffff1681526020018281526020018581526020018481526020018381526020016040518060400160405280600581526020017f66616c73650000000000000000000000000000000000000000000000000000008152508152506002600060015481526020019081526020016000206000820151816000019080519060200190610dfc9291906112df565b506020820151816001019080519060200190610e199291906112df565b506040820151816002015560608201518160030160006101000a81548173ffffffffffffffffffffffffffffffffffffffff021916908373ffffffffffffffffffffffffffffffffffffffff1602179055506080820151816004019080519060200190610e879291906112df565b5060a0820151816005015560c0820151816006019080519060200190610eae9291906112df565b5060e0820151816007019080519060200190610ecb9291906112df565b50610100820151816008019080519060200190610ee99291906112df565b509050507ffdfbf91679990f70d8e13e002c464a232e4fb85168a138a0271b2b5876054d9a8787873385898989604051610f2a989796959493929190611755565b60405180910390a150505050505050565b60015481565b6002602052806000526040600020600091509050806000018054610f6490611985565b80601f0160208091040260200160405190810160405280929190818152602001828054610f9090611985565b8015610fdd5780601f10610fb257610100808354040283529160200191610fdd565b820191906000526020600020905b815481529060010190602001808311610fc057829003601f168201915b505050505090806001018054610ff290611985565b80601f016020809104026020016040519081016040528092919081815260200182805461101e90611985565b801561106b5780601f106110405761010080835404028352916020019161106b565b820191906000526020600020905b81548152906001019060200180831161104e57829003601f168201915b5050505050908060020154908060030160009054906101000a900473ffffffffffffffffffffffffffffffffffffffff16908060040180546110ac90611985565b80601f01602080910402602001604051908101604052809291908181526020018280546110d890611985565b80156111255780601f106110fa57610100808354040283529160200191611125565b820191906000526020600020905b81548152906001019060200180831161110857829003601f168201915b50505050509080600501549080600601805461114090611985565b80601f016020809104026020016040519081016040528092919081815260200182805461116c90611985565b80156111b95780601f1061118e576101008083540402835291602001916111b9565b820191906000526020600020905b81548152906001019060200180831161119c57829003601f168201915b5050505050908060070180546111ce90611985565b80601f01602080910402602001604051908101604052809291908181526020018280546111fa90611985565b80156112475780601f1061121c57610100808354040283529160200191611247565b820191906000526020600020905b81548152906001019060200180831161122a57829003601f168201915b50505050509080600801805461125c90611985565b80601f016020809104026020016040519081016040528092919081815260200182805461128890611985565b80156112d55780601f106112aa576101008083540402835291602001916112d5565b820191906000526020600020905b8154815290600101906020018083116112b857829003601f168201915b5050505050905089565b8280546112eb90611985565b90600052602060002090601f01602090048101928261130d5760008555611354565b82601f1061132657805160ff1916838001178555611354565b82800160010185558215611354579182015b82811115611353578251825591602001919060010190611338565b5b5090506113619190611365565b5090565b5b8082111561137e576000816000905550600101611366565b5090565b6000611395611390846118bb565b61188a565b9050828152602081018484840111156113ad57600080fd5b6113b8848285611943565b509392505050565b600082601f8301126113d157600080fd5b81356113e1848260208601611382565b91505092915050565b6000813590506113f981611a9e565b92915050565b600080600080600080600060e0888a03121561141a57600080fd5b600088013567ffffffffffffffff81111561143457600080fd5b6114408a828b016113c0565b975050602088013567ffffffffffffffff81111561145d57600080fd5b6114698a828b016113c0565b965050604061147a8a828b016113ea565b955050606061148b8a828b016113ea565b945050608088013567ffffffffffffffff8111156114a857600080fd5b6114b48a828b016113c0565b93505060a088013567ffffffffffffffff8111156114d157600080fd5b6114dd8a828b016113c0565b92505060c088013567ffffffffffffffff8111156114fa57600080fd5b6115068a828b016113c0565b91505092959891949750929550565b60006020828403121561152757600080fd5b6000611535848285016113ea565b91505092915050565b60008060006060848603121561155357600080fd5b6000611561868287016113ea565b935050602084013567ffffffffffffffff81111561157e57600080fd5b61158a868287016113c0565b925050604061159b868287016113ea565b9150509250925092565b6115ae81611907565b82525050565b60006115bf826118eb565b6115c981856118f6565b93506115d9818560208601611952565b6115e281611a8d565b840191505092915050565b60006115fa6004836118f6565b91507f74727565000000000000000000000000000000000000000000000000000000006000830152602082019050919050565b600061163a6005836118f6565b91507f66616c73650000000000000000000000000000000000000000000000000000006000830152602082019050919050565b61167681611939565b82525050565b6000602082019050818103600083015261169681846115b4565b905092915050565b60006101208201905081810360008301526116b9818c6115b4565b905081810360208301526116cd818b6115b4565b90506116dc604083018a61166d565b6116e960608301896115a5565b81810360808301526116fb81886115b4565b905061170a60a083018761166d565b81810360c083015261171c81866115b4565b905081810360e083015261173081856115b4565b905081810361010083015261174581846115b4565b90509a9950505050505050505050565b6000610120820190508181036000830152611770818b6115b4565b90508181036020830152611784818a6115b4565b9050611793604083018961166d565b6117a060608301886115a5565b81810360808301526117b281876115b4565b90506117c160a083018661166d565b81810360c08301526117d381856115b4565b905081810360e08301526117e781846115b4565b90508181036101008301526117fb8161162d565b90509998505050505050505050565b6000604082019050818103600083015261182481846115b4565b90508181036020830152611837816115ed565b905092915050565b6000604082019050818103600083015261185981856115b4565b9050611868602083018461166d565b9392505050565b6000602082019050611884600083018461166d565b92915050565b6000604051905081810181811067ffffffffffffffff821117156118b1576118b0611a5e565b5b8060405250919050565b600067ffffffffffffffff8211156118d6576118d5611a5e565b5b601f19601f8301169050602081019050919050565b600081519050919050565b600082825260208201905092915050565b600061191282611919565b9050919050565b600073ffffffffffffffffffffffffffffffffffffffff82169050919050565b6000819050919050565b82818337600083830152505050565b60005b83811015611970578082015181840152602081019050611955565b8381111561197f576000848401525b50505050565b6000600282049050600182168061199d57607f821691505b602082108114156119b1576119b0611a2f565b5b50919050565b60006119c282611939565b91507fffffffffffffffffffffffffffffffffffffffffffffffffffffffffffffffff8214156119f5576119f4611a00565b5b600182019050919050565b7f4e487b7100000000000000000000000000000000000000000000000000000000600052601160045260246000fd5b7f4e487b7100000000000000000000000000000000000000000000000000000000600052602260045260246000fd5b7f4e487b7100000000000000000000000000000000000000000000000000000000600052604160045260246000fd5b6000601f19601f8301169050919050565b611aa781611939565b8114611ab257600080fd5b5056fea2646970667358221220859cc6daa88f00f51abc4853ad91753da32d0a96d1ac796951b01619b374362264736f6c63430008000033",
  "immutableReferences": {},
  "source": "// SPDX-License-Identifier: GPL-3.0\r\npragma solidity >=0.5.0 <0.9.0;\r\n\r\ncontract Marketplace {\r\n    string public name;\r\n    uint public vehicleCount = 0;\r\n    mapping(uint => Vehicle) public vehicles;\r\n\r\n    struct Vehicle {\r\n        string vin;\r\n        string vehicleType;\r\n        uint vehiclePricePerDay;\r\n        address payable owner;\r\n        string unavailableDates;\r\n        uint numOfSeats;\r\n        string gearboxType;\r\n        string gasType;\r\n        string deleteFlag;\r\n    }\r\n\r\n    event VehicleCreated(\r\n        string vin,\r\n        string vehicleType,\r\n        uint vehiclePricePerDay,\r\n        address payable owner,\r\n        string unavailableDates,\r\n        uint numOfSeats,\r\n        string gearboxType,\r\n        string gasType,\r\n        string deleteFlag\r\n    );\r\n\r\n    event VehiclePurchased(\r\n        string vin,\r\n        string vehicleType,\r\n        uint vehiclePricePerDay,\r\n        address payable owner,\r\n        string unavailableDates,\r\n        uint numOfSeats,\r\n        string gearboxType,\r\n        string gasType,\r\n        string deleteFlag\r\n    );\r\n\r\n    // event VehicleRented(\r\n    //     string vin,\r\n    //     string vehicleType,\r\n    //     uint vehiclePricePerDay,\r\n    //     address payable owner,\r\n    //     string unavailableDates,\r\n    //     uint numOfSeats,\r\n    //     string gearboxType,\r\n    //     string gasType,\r\n    //     string deleteFlag\r\n    // );\r\n\r\n    event VehicleEdited(\r\n        string vin,\r\n        uint vehiclePricePerDay \r\n    );\r\n\r\n    event VehicleDeleted(\r\n        string vin,\r\n        string deleteFlag\r\n    );\r\n\r\n    constructor() public {\r\n        name = \"Chen & Yarden final project\";\r\n    }\r\n\r\n    function createVehicle(string memory _vin, string memory _vehicleType, uint _price, uint _numOfSeats, string memory _gearboxType, string memory _gasType, string memory _unavailableDates) public {\r\n        // Require a valid vin\r\n        require(bytes(_vin).length > 0);\r\n        // Require a valid price\r\n        require(_price > 0);\r\n        // Require a valid vehicle type\r\n        require(bytes(_vehicleType).length > 0);\r\n        // Require a valid number of seats in the vehicle\r\n        require(_numOfSeats > 0);\r\n        // Require a valid gearbox type\r\n        require(bytes(_gearboxType).length > 0);\r\n        // Require a valid gearbox type\r\n        require(bytes(_gasType).length > 0);\r\n        // Increment Vehicle count\r\n        vehicleCount++;\r\n        // Create the Vehicle\r\n        vehicles[vehicleCount] = Vehicle(\r\n            _vin,\r\n            _vehicleType,\r\n            _price,\r\n            payable(msg.sender),\r\n            _unavailableDates,\r\n            _numOfSeats,\r\n            _gearboxType,\r\n            _gasType,\r\n            \"false\"\r\n        );\r\n\r\n\r\n        // Trigger an event\r\n        emit VehicleCreated(\r\n            _vin,\r\n            _vehicleType,\r\n            _price,\r\n            payable(msg.sender),\r\n            _unavailableDates,\r\n            _numOfSeats,\r\n            _gearboxType,\r\n            _gasType,\r\n            \"false\"\r\n        );\r\n    }\r\n\r\nfunction editVehicle(uint _index, string memory _dates, uint _price) public {\r\n        // Require a valid price\r\n        require(_price > 0);\r\n        // Require a valid price\r\n        // require(bytes(_dates).length > 0);\r\n        // Update the Vehicle\r\n        Vehicle memory _vehicle = vehicles[_index];\r\n        _vehicle.vehiclePricePerDay = _price;\r\n        _vehicle.unavailableDates = _dates;\r\n        vehicles[_index] = _vehicle;\r\n        // Trigger an event\r\n        emit VehicleEdited(_vehicle.vin, _vehicle.vehiclePricePerDay);\r\n    }\r\n\r\n  function deleteVehicle(uint _index) public {\r\n        // delete vehicle\r\n         Vehicle memory _vehicle = vehicles[_index];\r\n        _vehicle.deleteFlag = \"true\";\r\n        vehicles[_index] = _vehicle;\r\n        // Trigger an event\r\n        emit VehicleDeleted(_vehicle.vin, \"true\");\r\n    }  \r\n\r\n    // function purchaseVehicle(uint _id) public payable {\r\n\r\n    // }\r\n}\r\n",
  "sourcePath": "C:\\Users\\chenb\\final project\\blockchain-project\\src\\contracts\\Marketplace.sol",
  "compiler": {
    "name": "solc",
    "version": "0.8.0+commit.c7dfd78e.Emscripten.clang"
  },
  "schemaVersion": "3.4.13",
  "updatedAt": "2023-07-07T13:39:49.310Z",
  "networkType": "ethereum",
  "devdoc": {
    "kind": "dev",
    "methods": {},
    "version": 1
  },
  "userdoc": {
    "kind": "user",
    "methods": {},
    "version": 1
  }
}