{
  "contractName": "Marketplace",
  "abi": [
    {
      "inputs": [],
      "stateMutability": "nonpayable",
      "type": "constructor"
    },
    {
      "anonymous": false,
      "inputs": [
        {
          "indexed": false,
          "internalType": "string",
          "name": "vin",
          "type": "string"
        },
        {
          "indexed": false,
          "internalType": "string",
          "name": "vehicleType",
          "type": "string"
        },
        {
          "indexed": false,
          "internalType": "uint256",
          "name": "vehiclePricePerDay",
          "type": "uint256"
        },
        {
          "indexed": false,
          "internalType": "address payable",
          "name": "owner",
          "type": "address"
        },
        {
          "indexed": false,
          "internalType": "string",
          "name": "unavailableDates",
          "type": "string"
        },
        {
          "indexed": false,
          "internalType": "uint256",
          "name": "numOfSeats",
          "type": "uint256"
        },
        {
          "indexed": false,
          "internalType": "string",
          "name": "gearboxType",
          "type": "string"
        },
        {
          "indexed": false,
          "internalType": "string",
          "name": "gasType",
          "type": "string"
        }
      ],
      "name": "VehicleCreated",
      "type": "event"
    },
    {
      "anonymous": false,
      "inputs": [
        {
          "indexed": false,
          "internalType": "string",
          "name": "vin",
          "type": "string"
        },
        {
          "indexed": false,
          "internalType": "uint256",
          "name": "vehiclePricePerDay",
          "type": "uint256"
        }
      ],
      "name": "VehicleEdited",
      "type": "event"
    },
    {
      "anonymous": false,
      "inputs": [
        {
          "indexed": false,
          "internalType": "string",
          "name": "vin",
          "type": "string"
        },
        {
          "indexed": false,
          "internalType": "string",
          "name": "vehicleType",
          "type": "string"
        },
        {
          "indexed": false,
          "internalType": "uint256",
          "name": "vehiclePricePerDay",
          "type": "uint256"
        },
        {
          "indexed": false,
          "internalType": "address payable",
          "name": "owner",
          "type": "address"
        },
        {
          "indexed": false,
          "internalType": "string",
          "name": "unavailableDates",
          "type": "string"
        },
        {
          "indexed": false,
          "internalType": "uint256",
          "name": "numOfSeats",
          "type": "uint256"
        },
        {
          "indexed": false,
          "internalType": "string",
          "name": "gearboxType",
          "type": "string"
        },
        {
          "indexed": false,
          "internalType": "string",
          "name": "gasType",
          "type": "string"
        }
      ],
      "name": "VehiclePurchased",
      "type": "event"
    },
    {
      "anonymous": false,
      "inputs": [
        {
          "indexed": false,
          "internalType": "string",
          "name": "vin",
          "type": "string"
        },
        {
          "indexed": false,
          "internalType": "string",
          "name": "vehicleType",
          "type": "string"
        },
        {
          "indexed": false,
          "internalType": "uint256",
          "name": "vehiclePricePerDay",
          "type": "uint256"
        },
        {
          "indexed": false,
          "internalType": "address payable",
          "name": "owner",
          "type": "address"
        },
        {
          "indexed": false,
          "internalType": "string",
          "name": "unavailableDates",
          "type": "string"
        },
        {
          "indexed": false,
          "internalType": "uint256",
          "name": "numOfSeats",
          "type": "uint256"
        },
        {
          "indexed": false,
          "internalType": "string",
          "name": "gearboxType",
          "type": "string"
        },
        {
          "indexed": false,
          "internalType": "string",
          "name": "gasType",
          "type": "string"
        }
      ],
      "name": "VehicleRented",
      "type": "event"
    },
    {
      "inputs": [],
      "name": "name",
      "outputs": [
        {
          "internalType": "string",
          "name": "",
          "type": "string"
        }
      ],
      "stateMutability": "view",
      "type": "function",
      "constant": true
    },
    {
      "inputs": [],
      "name": "vehicleCount",
      "outputs": [
        {
          "internalType": "uint256",
          "name": "",
          "type": "uint256"
        }
      ],
      "stateMutability": "view",
      "type": "function",
      "constant": true
    },
    {
      "inputs": [
        {
          "internalType": "uint256",
          "name": "",
          "type": "uint256"
        }
      ],
      "name": "vehicles",
      "outputs": [
        {
          "internalType": "string",
          "name": "vin",
          "type": "string"
        },
        {
          "internalType": "string",
          "name": "vehicleType",
          "type": "string"
        },
        {
          "internalType": "uint256",
          "name": "vehiclePricePerDay",
          "type": "uint256"
        },
        {
          "internalType": "address payable",
          "name": "owner",
          "type": "address"
        },
        {
          "internalType": "string",
          "name": "unavailableDates",
          "type": "string"
        },
        {
          "internalType": "uint256",
          "name": "numOfSeats",
          "type": "uint256"
        },
        {
          "internalType": "string",
          "name": "gearboxType",
          "type": "string"
        },
        {
          "internalType": "string",
          "name": "gasType",
          "type": "string"
        }
      ],
      "stateMutability": "view",
      "type": "function",
      "constant": true
    },
    {
      "inputs": [
        {
          "internalType": "string",
          "name": "_vin",
          "type": "string"
        },
        {
          "internalType": "string",
          "name": "_vehicleType",
          "type": "string"
        },
        {
          "internalType": "uint256",
          "name": "_price",
          "type": "uint256"
        },
        {
          "internalType": "uint256",
          "name": "_numOfSeats",
          "type": "uint256"
        },
        {
          "internalType": "string",
          "name": "_gearboxType",
          "type": "string"
        },
        {
          "internalType": "string",
          "name": "_gasType",
          "type": "string"
        },
        {
          "internalType": "string",
          "name": "_unavailableDates",
          "type": "string"
        }
      ],
      "name": "createVehicle",
      "outputs": [],
      "stateMutability": "nonpayable",
      "type": "function"
    },
    {
      "inputs": [
        {
          "internalType": "uint256",
          "name": "_index",
          "type": "uint256"
        },
        {
          "internalType": "string",
          "name": "_dates",
          "type": "string"
        },
        {
          "internalType": "uint256",
          "name": "_price",
          "type": "uint256"
        }
      ],
      "name": "editVehicle",
      "outputs": [],
      "stateMutability": "nonpayable",
      "type": "function"
    },
    {
      "inputs": [
        {
          "internalType": "uint256",
          "name": "_id",
          "type": "uint256"
        }
      ],
      "name": "purchaseVehicle",
      "outputs": [],
      "stateMutability": "payable",
      "type": "function",
      "payable": true
    }
  ],
  "bytecode": "0x608060405260006001553480156200001657600080fd5b506040518060400160405280601b81526020017f4368656e20262059617264656e2066696e616c2070726f6a656374000000000081525060009080519060200190620000649291906200006b565b5062000180565b82805462000079906200011b565b90600052602060002090601f0160209004810192826200009d5760008555620000e9565b82601f10620000b857805160ff1916838001178555620000e9565b82800160010185558215620000e9579182015b82811115620000e8578251825591602001919060010190620000cb565b5b509050620000f89190620000fc565b5090565b5b8082111562000117576000816000905550600101620000fd565b5090565b600060028204905060018216806200013457607f821691505b602082108114156200014b576200014a62000151565b5b50919050565b7f4e487b7100000000000000000000000000000000000000000000000000000000600052602260045260246000fd5b61127280620001906000396000f3fe6080604052600436106100555760003560e01c806302ffbc541461005a57806306fdde03146100765780631baf145b146100a15780637c4822a0146100ca57806399704937146100f3578063b8ba95fa1461011e575b600080fd5b610074600480360381019061006f9190610e1c565b610162565b005b34801561008257600080fd5b5061008b610165565b6040516100989190610f03565b60405180910390f35b3480156100ad57600080fd5b506100c860048036038101906100c39190610e45565b6101f3565b005b3480156100d657600080fd5b506100f160048036038101906100ec9190610d06565b6106c4565b005b3480156100ff57600080fd5b506101086108d0565b6040516101159190610ff6565b60405180910390f35b34801561012a57600080fd5b5061014560048036038101906101409190610e1c565b6108d6565b604051610159989796959493929190610f25565b60405180910390f35b50565b600080546101729061110c565b80601f016020809104026020016040519081016040528092919081815260200182805461019e9061110c565b80156101eb5780601f106101c0576101008083540402835291602001916101eb565b820191906000526020600020905b8154815290600101906020018083116101ce57829003601f168201915b505050505081565b6000811161020057600080fd5b600060026000858152602001908152602001600020604051806101000160405290816000820180546102319061110c565b80601f016020809104026020016040519081016040528092919081815260200182805461025d9061110c565b80156102aa5780601f1061027f576101008083540402835291602001916102aa565b820191906000526020600020905b81548152906001019060200180831161028d57829003601f168201915b505050505081526020016001820180546102c39061110c565b80601f01602080910402602001604051908101604052809291908181526020018280546102ef9061110c565b801561033c5780601f106103115761010080835404028352916020019161033c565b820191906000526020600020905b81548152906001019060200180831161031f57829003601f168201915b50505050508152602001600282015481526020016003820160009054906101000a900473ffffffffffffffffffffffffffffffffffffffff1673ffffffffffffffffffffffffffffffffffffffff1673ffffffffffffffffffffffffffffffffffffffff1681526020016004820180546103b59061110c565b80601f01602080910402602001604051908101604052809291908181526020018280546103e19061110c565b801561042e5780601f106104035761010080835404028352916020019161042e565b820191906000526020600020905b81548152906001019060200180831161041157829003601f168201915b50505050508152602001600582015481526020016006820180546104519061110c565b80601f016020809104026020016040519081016040528092919081815260200182805461047d9061110c565b80156104ca5780601f1061049f576101008083540402835291602001916104ca565b820191906000526020600020905b8154815290600101906020018083116104ad57829003601f168201915b505050505081526020016007820180546104e39061110c565b80601f016020809104026020016040519081016040528092919081815260200182805461050f9061110c565b801561055c5780601f106105315761010080835404028352916020019161055c565b820191906000526020600020905b81548152906001019060200180831161053f57829003601f168201915b505050505081525050905081816040018181525050828160800181905250806002600086815260200190815260200160002060008201518160000190805190602001906105aa929190610be6565b5060208201518160010190805190602001906105c7929190610be6565b506040820151816002015560608201518160030160006101000a81548173ffffffffffffffffffffffffffffffffffffffff021916908373ffffffffffffffffffffffffffffffffffffffff1602179055506080820151816004019080519060200190610635929190610be6565b5060a0820151816005015560c082015181600601908051906020019061065c929190610be6565b5060e0820151816007019080519060200190610679929190610be6565b509050507fba5163c97a01b22d3c086c07ced1a41c86c20470fe90c69d0b2df7f6e5b104c4816000015182604001516040516106b6929190610fc6565b60405180910390a150505050565b60008751116106d257600080fd5b600085116106df57600080fd5b60008651116106ed57600080fd5b600084116106fa57600080fd5b600083511161070857600080fd5b600082511161071657600080fd5b600160008154809291906107299061113e565b91905055506040518061010001604052808881526020018781526020018681526020013373ffffffffffffffffffffffffffffffffffffffff1681526020018281526020018581526020018481526020018381525060026000600154815260200190815260200160002060008201518160000190805190602001906107af929190610be6565b5060208201518160010190805190602001906107cc929190610be6565b506040820151816002015560608201518160030160006101000a81548173ffffffffffffffffffffffffffffffffffffffff021916908373ffffffffffffffffffffffffffffffffffffffff160217905550608082015181600401908051906020019061083a929190610be6565b5060a0820151816005015560c0820151816006019080519060200190610861929190610be6565b5060e082015181600701908051906020019061087e929190610be6565b509050507f95383a89edccda3f06e11c0346a148caeae58c547e5ec61da31a808ca23cd34487878733858989896040516108bf989796959493929190610f25565b60405180910390a150505050505050565b60015481565b60026020528060005260406000206000915090508060000180546108f99061110c565b80601f01602080910402602001604051908101604052809291908181526020018280546109259061110c565b80156109725780601f1061094757610100808354040283529160200191610972565b820191906000526020600020905b81548152906001019060200180831161095557829003601f168201915b5050505050908060010180546109879061110c565b80601f01602080910402602001604051908101604052809291908181526020018280546109b39061110c565b8015610a005780601f106109d557610100808354040283529160200191610a00565b820191906000526020600020905b8154815290600101906020018083116109e357829003601f168201915b5050505050908060020154908060030160009054906101000a900473ffffffffffffffffffffffffffffffffffffffff1690806004018054610a419061110c565b80601f0160208091040260200160405190810160405280929190818152602001828054610a6d9061110c565b8015610aba5780601f10610a8f57610100808354040283529160200191610aba565b820191906000526020600020905b815481529060010190602001808311610a9d57829003601f168201915b505050505090806005015490806006018054610ad59061110c565b80601f0160208091040260200160405190810160405280929190818152602001828054610b019061110c565b8015610b4e5780601f10610b2357610100808354040283529160200191610b4e565b820191906000526020600020905b815481529060010190602001808311610b3157829003601f168201915b505050505090806007018054610b639061110c565b80601f0160208091040260200160405190810160405280929190818152602001828054610b8f9061110c565b8015610bdc5780601f10610bb157610100808354040283529160200191610bdc565b820191906000526020600020905b815481529060010190602001808311610bbf57829003601f168201915b5050505050905088565b828054610bf29061110c565b90600052602060002090601f016020900481019282610c145760008555610c5b565b82601f10610c2d57805160ff1916838001178555610c5b565b82800160010185558215610c5b579182015b82811115610c5a578251825591602001919060010190610c3f565b5b509050610c689190610c6c565b5090565b5b80821115610c85576000816000905550600101610c6d565b5090565b6000610c9c610c9784611042565b611011565b905082815260208101848484011115610cb457600080fd5b610cbf8482856110ca565b509392505050565b600082601f830112610cd857600080fd5b8135610ce8848260208601610c89565b91505092915050565b600081359050610d0081611225565b92915050565b600080600080600080600060e0888a031215610d2157600080fd5b600088013567ffffffffffffffff811115610d3b57600080fd5b610d478a828b01610cc7565b975050602088013567ffffffffffffffff811115610d6457600080fd5b610d708a828b01610cc7565b9650506040610d818a828b01610cf1565b9550506060610d928a828b01610cf1565b945050608088013567ffffffffffffffff811115610daf57600080fd5b610dbb8a828b01610cc7565b93505060a088013567ffffffffffffffff811115610dd857600080fd5b610de48a828b01610cc7565b92505060c088013567ffffffffffffffff811115610e0157600080fd5b610e0d8a828b01610cc7565b91505092959891949750929550565b600060208284031215610e2e57600080fd5b6000610e3c84828501610cf1565b91505092915050565b600080600060608486031215610e5a57600080fd5b6000610e6886828701610cf1565b935050602084013567ffffffffffffffff811115610e8557600080fd5b610e9186828701610cc7565b9250506040610ea286828701610cf1565b9150509250925092565b610eb58161108e565b82525050565b6000610ec682611072565b610ed0818561107d565b9350610ee08185602086016110d9565b610ee981611214565b840191505092915050565b610efd816110c0565b82525050565b60006020820190508181036000830152610f1d8184610ebb565b905092915050565b6000610100820190508181036000830152610f40818b610ebb565b90508181036020830152610f54818a610ebb565b9050610f636040830189610ef4565b610f706060830188610eac565b8181036080830152610f828187610ebb565b9050610f9160a0830186610ef4565b81810360c0830152610fa38185610ebb565b905081810360e0830152610fb78184610ebb565b90509998505050505050505050565b60006040820190508181036000830152610fe08185610ebb565b9050610fef6020830184610ef4565b9392505050565b600060208201905061100b6000830184610ef4565b92915050565b6000604051905081810181811067ffffffffffffffff82111715611038576110376111e5565b5b8060405250919050565b600067ffffffffffffffff82111561105d5761105c6111e5565b5b601f19601f8301169050602081019050919050565b600081519050919050565b600082825260208201905092915050565b6000611099826110a0565b9050919050565b600073ffffffffffffffffffffffffffffffffffffffff82169050919050565b6000819050919050565b82818337600083830152505050565b60005b838110156110f75780820151818401526020810190506110dc565b83811115611106576000848401525b50505050565b6000600282049050600182168061112457607f821691505b60208210811415611138576111376111b6565b5b50919050565b6000611149826110c0565b91507fffffffffffffffffffffffffffffffffffffffffffffffffffffffffffffffff82141561117c5761117b611187565b5b600182019050919050565b7f4e487b7100000000000000000000000000000000000000000000000000000000600052601160045260246000fd5b7f4e487b7100000000000000000000000000000000000000000000000000000000600052602260045260246000fd5b7f4e487b7100000000000000000000000000000000000000000000000000000000600052604160045260246000fd5b6000601f19601f8301169050919050565b61122e816110c0565b811461123957600080fd5b5056fea2646970667358221220d09232387cd664b9c8f5cce226ff426d39b4f8c1f44d7c55557ef083d9b6617d64736f6c63430008000033",
  "immutableReferences": {},
  "source": "// SPDX-License-Identifier: GPL-3.0\r\npragma solidity >=0.5.0 <0.9.0;\r\n\r\ncontract Marketplace {\r\n    string public name;\r\n    uint public vehicleCount = 0;\r\n    mapping(uint => Vehicle) public vehicles;\r\n\r\n    struct Vehicle {\r\n        string vin;\r\n        string vehicleType;\r\n        uint vehiclePricePerDay;\r\n        address payable owner;\r\n        string unavailableDates;\r\n        uint numOfSeats;\r\n        string gearboxType;\r\n        string gasType;\r\n    }\r\n\r\n    event VehicleCreated(\r\n        string vin,\r\n        string vehicleType,\r\n        uint vehiclePricePerDay,\r\n        address payable owner,\r\n        string unavailableDates,\r\n        uint numOfSeats,\r\n        string gearboxType,\r\n        string gasType\r\n    );\r\n\r\n    event VehiclePurchased(\r\n        string vin,\r\n        string vehicleType,\r\n        uint vehiclePricePerDay,\r\n        address payable owner,\r\n        string unavailableDates,\r\n        uint numOfSeats,\r\n        string gearboxType,\r\n        string gasType\r\n    );\r\n\r\n    event VehicleRented(\r\n        string vin,\r\n        string vehicleType,\r\n        uint vehiclePricePerDay,\r\n        address payable owner,\r\n        string unavailableDates,\r\n        uint numOfSeats,\r\n        string gearboxType,\r\n        string gasType\r\n    );\r\n\r\n    event VehicleEdited(\r\n        string vin,\r\n        uint vehiclePricePerDay \r\n    );\r\n\r\n    constructor() public {\r\n        name = \"Chen & Yarden final project\";\r\n    }\r\n\r\n    function createVehicle(string memory _vin, string memory _vehicleType, uint _price, uint _numOfSeats, string memory _gearboxType, string memory _gasType, string memory _unavailableDates) public {\r\n        // Require a valid vin\r\n        require(bytes(_vin).length > 0);\r\n        // Require a valid price\r\n        require(_price > 0);\r\n        // Require a valid vehicle type\r\n        require(bytes(_vehicleType).length > 0);\r\n        // Require a valid number of seats in the vehicle\r\n        require(_numOfSeats > 0);\r\n        // Require a valid gearbox type\r\n        require(bytes(_gearboxType).length > 0);\r\n        // Require a valid gearbox type\r\n        require(bytes(_gasType).length > 0);\r\n        // Increment Vehicle count\r\n        vehicleCount++;\r\n        // Create the Vehicle\r\n        vehicles[vehicleCount] = Vehicle(\r\n            _vin,\r\n            _vehicleType,\r\n            _price,\r\n            payable(msg.sender),\r\n            _unavailableDates,\r\n            _numOfSeats,\r\n            _gearboxType,\r\n            _gasType\r\n        );\r\n\r\n\r\n        // Trigger an event\r\n        emit VehicleCreated(\r\n            _vin,\r\n            _vehicleType,\r\n            _price,\r\n            payable(msg.sender),\r\n            _unavailableDates,\r\n            _numOfSeats,\r\n            _gearboxType,\r\n            _gasType\r\n        );\r\n    }\r\n\r\nfunction editVehicle(uint _index, string memory _dates, uint _price) public {\r\n        // Require a valid price\r\n        require(_price > 0);\r\n        // Require a valid price\r\n        // require(bytes(_dates).length > 0);\r\n        // Update the Vehicle\r\n        Vehicle memory _vehicle = vehicles[_index];\r\n        _vehicle.vehiclePricePerDay = _price;\r\n        _vehicle.unavailableDates = _dates;\r\n        vehicles[_index] = _vehicle;\r\n        // Trigger an event\r\n        emit VehicleEdited(_vehicle.vin, _vehicle.vehiclePricePerDay);\r\n    }\r\n\r\n    function purchaseVehicle(uint _id) public payable {\r\n    //     // Fetch the product\r\n    //     Product memory _product = products[_id];\r\n    //     // Fetch the owner\r\n    //     address payable _seller = _product.owner;\r\n    //     // Make sure the product has a valid id\r\n    //     require(_product.id > 0 && _product.id <= productCount);\r\n    //     // Require that there is enough Ether in the transaction\r\n    //     require(msg.value >= _product.price);\r\n    //     // Require that the product has not been purchased already\r\n    //     require(!_product.purchased);\r\n    //     // Require that the buyer is not the seller\r\n    //     require(_seller != msg.sender);\r\n    //     // Transfer ownership to the buyer\r\n    //     _product.owner = payable(msg.sender);\r\n    //     // Mark as purchased\r\n    //     _product.purchased = true;\r\n    //     // Update the product\r\n    //     products[_id] = _product;\r\n    //     // Pay the seller by sending them Ether\r\n    //     payable(address(_seller)).transfer(msg.value);\r\n    //     // Trigger an event\r\n    //     emit ProductPurchased(\r\n    //         productCount,\r\n    //         _product.name,\r\n    //         _product.price,\r\n    //         payable(msg.sender),\r\n    //         true\r\n    //     );\r\n    }\r\n}\r\n",
  "sourcePath": "C:\\Users\\chenb\\final project\\blockchain-project\\src\\contracts\\Marketplace.sol",
  "compiler": {
    "name": "solc",
    "version": "0.8.0+commit.c7dfd78e.Emscripten.clang"
  },
  "schemaVersion": "3.4.13",
  "updatedAt": "2023-07-07T08:19:45.867Z",
  "networkType": "ethereum",
  "devdoc": {
    "kind": "dev",
    "methods": {},
    "version": 1
  },
  "userdoc": {
    "kind": "user",
    "methods": {},
    "version": 1
  }
}