{
  "contractName": "Marketplace",
  "abi": [
    {
      "inputs": [],
      "stateMutability": "nonpayable",
      "type": "constructor"
    },
    {
      "anonymous": false,
      "inputs": [
        {
          "indexed": false,
          "internalType": "string",
          "name": "vin",
          "type": "string"
        },
        {
          "indexed": false,
          "internalType": "string",
          "name": "vehicleType",
          "type": "string"
        },
        {
          "indexed": false,
          "internalType": "uint256",
          "name": "vehiclePricePerDay",
          "type": "uint256"
        },
        {
          "indexed": false,
          "internalType": "address payable",
          "name": "owner",
          "type": "address"
        },
        {
          "indexed": false,
          "internalType": "string",
          "name": "unavailableDates",
          "type": "string"
        },
        {
          "indexed": false,
          "internalType": "uint256",
          "name": "numOfSeats",
          "type": "uint256"
        },
        {
          "indexed": false,
          "internalType": "string",
          "name": "gearboxType",
          "type": "string"
        }
      ],
      "name": "VehicleCreated",
      "type": "event"
    },
    {
      "anonymous": false,
      "inputs": [
        {
          "indexed": false,
          "internalType": "string",
          "name": "vin",
          "type": "string"
        },
        {
          "indexed": false,
          "internalType": "uint256",
          "name": "vehiclePricePerDay",
          "type": "uint256"
        }
      ],
      "name": "VehicleEdited",
      "type": "event"
    },
    {
      "anonymous": false,
      "inputs": [
        {
          "indexed": false,
          "internalType": "string",
          "name": "vin",
          "type": "string"
        },
        {
          "indexed": false,
          "internalType": "string",
          "name": "vehicleType",
          "type": "string"
        },
        {
          "indexed": false,
          "internalType": "uint256",
          "name": "vehiclePricePerDay",
          "type": "uint256"
        },
        {
          "indexed": false,
          "internalType": "address payable",
          "name": "owner",
          "type": "address"
        },
        {
          "indexed": false,
          "internalType": "string",
          "name": "unavailableDates",
          "type": "string"
        },
        {
          "indexed": false,
          "internalType": "uint256",
          "name": "numOfSeats",
          "type": "uint256"
        },
        {
          "indexed": false,
          "internalType": "string",
          "name": "gearboxType",
          "type": "string"
        }
      ],
      "name": "VehiclePurchased",
      "type": "event"
    },
    {
      "anonymous": false,
      "inputs": [
        {
          "indexed": false,
          "internalType": "string",
          "name": "vin",
          "type": "string"
        },
        {
          "indexed": false,
          "internalType": "string",
          "name": "vehicleType",
          "type": "string"
        },
        {
          "indexed": false,
          "internalType": "uint256",
          "name": "vehiclePricePerDay",
          "type": "uint256"
        },
        {
          "indexed": false,
          "internalType": "address payable",
          "name": "owner",
          "type": "address"
        },
        {
          "indexed": false,
          "internalType": "string",
          "name": "unavailableDates",
          "type": "string"
        },
        {
          "indexed": false,
          "internalType": "uint256",
          "name": "numOfSeats",
          "type": "uint256"
        },
        {
          "indexed": false,
          "internalType": "string",
          "name": "gearboxType",
          "type": "string"
        }
      ],
      "name": "VehicleRented",
      "type": "event"
    },
    {
      "inputs": [],
      "name": "name",
      "outputs": [
        {
          "internalType": "string",
          "name": "",
          "type": "string"
        }
      ],
      "stateMutability": "view",
      "type": "function",
      "constant": true
    },
    {
      "inputs": [],
      "name": "vehicleCount",
      "outputs": [
        {
          "internalType": "uint256",
          "name": "",
          "type": "uint256"
        }
      ],
      "stateMutability": "view",
      "type": "function",
      "constant": true
    },
    {
      "inputs": [
        {
          "internalType": "uint256",
          "name": "",
          "type": "uint256"
        }
      ],
      "name": "vehicles",
      "outputs": [
        {
          "internalType": "string",
          "name": "vin",
          "type": "string"
        },
        {
          "internalType": "string",
          "name": "vehicleType",
          "type": "string"
        },
        {
          "internalType": "uint256",
          "name": "vehiclePricePerDay",
          "type": "uint256"
        },
        {
          "internalType": "address payable",
          "name": "owner",
          "type": "address"
        },
        {
          "internalType": "string",
          "name": "unavailableDates",
          "type": "string"
        },
        {
          "internalType": "uint256",
          "name": "numOfSeats",
          "type": "uint256"
        },
        {
          "internalType": "string",
          "name": "gearboxType",
          "type": "string"
        }
      ],
      "stateMutability": "view",
      "type": "function",
      "constant": true
    },
    {
      "inputs": [
        {
          "internalType": "string",
          "name": "_vin",
          "type": "string"
        },
        {
          "internalType": "string",
          "name": "_vehicleType",
          "type": "string"
        },
        {
          "internalType": "uint256",
          "name": "_price",
          "type": "uint256"
        },
        {
          "internalType": "uint256",
          "name": "_numOfSeats",
          "type": "uint256"
        },
        {
          "internalType": "string",
          "name": "_gearboxType",
          "type": "string"
        },
        {
          "internalType": "string",
          "name": "_unavailableDates",
          "type": "string"
        }
      ],
      "name": "createVehicle",
      "outputs": [],
      "stateMutability": "nonpayable",
      "type": "function"
    },
    {
      "inputs": [
        {
          "internalType": "uint256",
          "name": "_index",
          "type": "uint256"
        },
        {
          "internalType": "string",
          "name": "_dates",
          "type": "string"
        },
        {
          "internalType": "uint256",
          "name": "_price",
          "type": "uint256"
        }
      ],
      "name": "editVehicle",
      "outputs": [],
      "stateMutability": "nonpayable",
      "type": "function"
    },
    {
      "inputs": [
        {
          "internalType": "uint256",
          "name": "_id",
          "type": "uint256"
        }
      ],
      "name": "purchaseVehicle",
      "outputs": [],
      "stateMutability": "payable",
      "type": "function",
      "payable": true
    }
  ],
  "bytecode": "0x608060405260006001553480156200001657600080fd5b506040518060400160405280601b81526020017f4368656e20262059617264656e2066696e616c2070726f6a656374000000000081525060009080519060200190620000649291906200006b565b5062000180565b82805462000079906200011b565b90600052602060002090601f0160209004810192826200009d5760008555620000e9565b82601f10620000b857805160ff1916838001178555620000e9565b82800160010185558215620000e9579182015b82811115620000e8578251825591602001919060010190620000cb565b5b509050620000f89190620000fc565b5090565b5b8082111562000117576000816000905550600101620000fd565b5090565b600060028204905060018216806200013457607f821691505b602082108114156200014b576200014a62000151565b5b50919050565b7f4e487b7100000000000000000000000000000000000000000000000000000000600052602260045260246000fd5b6110bb80620001906000396000f3fe6080604052600436106100555760003560e01c806302ffbc541461005a57806306fdde03146100765780631baf145b146100a157806399704937146100ca578063b8ba95fa146100f5578063d0bd5e9a14610138575b600080fd5b610074600480360381019061006f9190610c7b565b610161565b005b34801561008257600080fd5b5061008b610164565b6040516100989190610d62565b60405180910390f35b3480156100ad57600080fd5b506100c860048036038101906100c39190610ca4565b6101f2565b005b3480156100d657600080fd5b506100df610613565b6040516100ec9190610e3f565b60405180910390f35b34801561010157600080fd5b5061011c60048036038101906101179190610c7b565b610619565b60405161012f9796959493929190610d84565b60405180910390f35b34801561014457600080fd5b5061015f600480360381019061015a9190610b92565b61089b565b005b50565b6000805461017190610f55565b80601f016020809104026020016040519081016040528092919081815260200182805461019d90610f55565b80156101ea5780601f106101bf576101008083540402835291602001916101ea565b820191906000526020600020905b8154815290600101906020018083116101cd57829003601f168201915b505050505081565b600081116101ff57600080fd5b6000600260008581526020019081526020016000206040518060e001604052908160008201805461022f90610f55565b80601f016020809104026020016040519081016040528092919081815260200182805461025b90610f55565b80156102a85780601f1061027d576101008083540402835291602001916102a8565b820191906000526020600020905b81548152906001019060200180831161028b57829003601f168201915b505050505081526020016001820180546102c190610f55565b80601f01602080910402602001604051908101604052809291908181526020018280546102ed90610f55565b801561033a5780601f1061030f5761010080835404028352916020019161033a565b820191906000526020600020905b81548152906001019060200180831161031d57829003601f168201915b50505050508152602001600282015481526020016003820160009054906101000a900473ffffffffffffffffffffffffffffffffffffffff1673ffffffffffffffffffffffffffffffffffffffff1673ffffffffffffffffffffffffffffffffffffffff1681526020016004820180546103b390610f55565b80601f01602080910402602001604051908101604052809291908181526020018280546103df90610f55565b801561042c5780601f106104015761010080835404028352916020019161042c565b820191906000526020600020905b81548152906001019060200180831161040f57829003601f168201915b505050505081526020016005820154815260200160068201805461044f90610f55565b80601f016020809104026020016040519081016040528092919081815260200182805461047b90610f55565b80156104c85780601f1061049d576101008083540402835291602001916104c8565b820191906000526020600020905b8154815290600101906020018083116104ab57829003601f168201915b50505050508152505090508181604001818152505082816080018190525080600260008681526020019081526020016000206000820151816000019080519060200190610516929190610a72565b506020820151816001019080519060200190610533929190610a72565b506040820151816002015560608201518160030160006101000a81548173ffffffffffffffffffffffffffffffffffffffff021916908373ffffffffffffffffffffffffffffffffffffffff16021790555060808201518160040190805190602001906105a1929190610a72565b5060a0820151816005015560c08201518160060190805190602001906105c8929190610a72565b509050507fba5163c97a01b22d3c086c07ced1a41c86c20470fe90c69d0b2df7f6e5b104c481600001518260400151604051610605929190610e0f565b60405180910390a150505050565b60015481565b600260205280600052604060002060009150905080600001805461063c90610f55565b80601f016020809104026020016040519081016040528092919081815260200182805461066890610f55565b80156106b55780601f1061068a576101008083540402835291602001916106b5565b820191906000526020600020905b81548152906001019060200180831161069857829003601f168201915b5050505050908060010180546106ca90610f55565b80601f01602080910402602001604051908101604052809291908181526020018280546106f690610f55565b80156107435780601f1061071857610100808354040283529160200191610743565b820191906000526020600020905b81548152906001019060200180831161072657829003601f168201915b5050505050908060020154908060030160009054906101000a900473ffffffffffffffffffffffffffffffffffffffff169080600401805461078490610f55565b80601f01602080910402602001604051908101604052809291908181526020018280546107b090610f55565b80156107fd5780601f106107d2576101008083540402835291602001916107fd565b820191906000526020600020905b8154815290600101906020018083116107e057829003601f168201915b50505050509080600501549080600601805461081890610f55565b80601f016020809104026020016040519081016040528092919081815260200182805461084490610f55565b80156108915780601f1061086657610100808354040283529160200191610891565b820191906000526020600020905b81548152906001019060200180831161087457829003601f168201915b5050505050905087565b60008651116108a957600080fd5b600084116108b657600080fd5b60008551116108c457600080fd5b600083116108d157600080fd5b60008251116108df57600080fd5b600160008154809291906108f290610f87565b91905055506040518060e001604052808781526020018681526020018581526020013373ffffffffffffffffffffffffffffffffffffffff168152602001828152602001848152602001838152506002600060015481526020019081526020016000206000820151816000019080519060200190610971929190610a72565b50602082015181600101908051906020019061098e929190610a72565b506040820151816002015560608201518160030160006101000a81548173ffffffffffffffffffffffffffffffffffffffff021916908373ffffffffffffffffffffffffffffffffffffffff16021790555060808201518160040190805190602001906109fc929190610a72565b5060a0820151816005015560c0820151816006019080519060200190610a23929190610a72565b509050507f1f36f1594d64fe0b2f8abaf4850750c671b9d31f8540d87498f39c31feba772286868633858888604051610a629796959493929190610d84565b60405180910390a1505050505050565b828054610a7e90610f55565b90600052602060002090601f016020900481019282610aa05760008555610ae7565b82601f10610ab957805160ff1916838001178555610ae7565b82800160010185558215610ae7579182015b82811115610ae6578251825591602001919060010190610acb565b5b509050610af49190610af8565b5090565b5b80821115610b11576000816000905550600101610af9565b5090565b6000610b28610b2384610e8b565b610e5a565b905082815260208101848484011115610b4057600080fd5b610b4b848285610f13565b509392505050565b600082601f830112610b6457600080fd5b8135610b74848260208601610b15565b91505092915050565b600081359050610b8c8161106e565b92915050565b60008060008060008060c08789031215610bab57600080fd5b600087013567ffffffffffffffff811115610bc557600080fd5b610bd189828a01610b53565b965050602087013567ffffffffffffffff811115610bee57600080fd5b610bfa89828a01610b53565b9550506040610c0b89828a01610b7d565b9450506060610c1c89828a01610b7d565b935050608087013567ffffffffffffffff811115610c3957600080fd5b610c4589828a01610b53565b92505060a087013567ffffffffffffffff811115610c6257600080fd5b610c6e89828a01610b53565b9150509295509295509295565b600060208284031215610c8d57600080fd5b6000610c9b84828501610b7d565b91505092915050565b600080600060608486031215610cb957600080fd5b6000610cc786828701610b7d565b935050602084013567ffffffffffffffff811115610ce457600080fd5b610cf086828701610b53565b9250506040610d0186828701610b7d565b9150509250925092565b610d1481610ed7565b82525050565b6000610d2582610ebb565b610d2f8185610ec6565b9350610d3f818560208601610f22565b610d488161105d565b840191505092915050565b610d5c81610f09565b82525050565b60006020820190508181036000830152610d7c8184610d1a565b905092915050565b600060e0820190508181036000830152610d9e818a610d1a565b90508181036020830152610db28189610d1a565b9050610dc16040830188610d53565b610dce6060830187610d0b565b8181036080830152610de08186610d1a565b9050610def60a0830185610d53565b81810360c0830152610e018184610d1a565b905098975050505050505050565b60006040820190508181036000830152610e298185610d1a565b9050610e386020830184610d53565b9392505050565b6000602082019050610e546000830184610d53565b92915050565b6000604051905081810181811067ffffffffffffffff82111715610e8157610e8061102e565b5b8060405250919050565b600067ffffffffffffffff821115610ea657610ea561102e565b5b601f19601f8301169050602081019050919050565b600081519050919050565b600082825260208201905092915050565b6000610ee282610ee9565b9050919050565b600073ffffffffffffffffffffffffffffffffffffffff82169050919050565b6000819050919050565b82818337600083830152505050565b60005b83811015610f40578082015181840152602081019050610f25565b83811115610f4f576000848401525b50505050565b60006002820490506001821680610f6d57607f821691505b60208210811415610f8157610f80610fff565b5b50919050565b6000610f9282610f09565b91507fffffffffffffffffffffffffffffffffffffffffffffffffffffffffffffffff821415610fc557610fc4610fd0565b5b600182019050919050565b7f4e487b7100000000000000000000000000000000000000000000000000000000600052601160045260246000fd5b7f4e487b7100000000000000000000000000000000000000000000000000000000600052602260045260246000fd5b7f4e487b7100000000000000000000000000000000000000000000000000000000600052604160045260246000fd5b6000601f19601f8301169050919050565b61107781610f09565b811461108257600080fd5b5056fea26469706673582212202e3daefdb302d2502de380a56a78e1da0a8d6b8207cf81226b25f6027a0060cf64736f6c63430008000033",
  "immutableReferences": {},
  "source": "// SPDX-License-Identifier: GPL-3.0\r\npragma solidity >=0.5.0 <0.9.0;\r\n\r\ncontract Marketplace {\r\n    string public name;\r\n    uint public vehicleCount = 0;\r\n    mapping(uint => Vehicle) public vehicles;\r\n\r\n    struct Vehicle {\r\n        string vin;\r\n        string vehicleType;\r\n        uint vehiclePricePerDay;\r\n        address payable owner;\r\n        string unavailableDates;\r\n        uint numOfSeats;\r\n        string gearboxType;\r\n    }\r\n\r\n    event VehicleCreated(\r\n        string vin,\r\n        string vehicleType,\r\n        uint vehiclePricePerDay,\r\n        address payable owner,\r\n        string unavailableDates,\r\n        uint numOfSeats,\r\n        string gearboxType\r\n    );\r\n\r\n    event VehiclePurchased(\r\n        string vin,\r\n        string vehicleType,\r\n        uint vehiclePricePerDay,\r\n        address payable owner,\r\n        string unavailableDates,\r\n        uint numOfSeats,\r\n        string gearboxType\r\n    );\r\n\r\n    event VehicleRented(\r\n        string vin,\r\n        string vehicleType,\r\n        uint vehiclePricePerDay,\r\n        address payable owner,\r\n        string unavailableDates,\r\n        uint numOfSeats,\r\n        string gearboxType\r\n    );\r\n\r\n    event VehicleEdited(\r\n        string vin,\r\n        uint vehiclePricePerDay \r\n    );\r\n\r\n    constructor() public {\r\n        name = \"Chen & Yarden final project\";\r\n    }\r\n\r\n    \r\n\r\n    function createVehicle(string memory _vin, string memory _vehicleType, uint _price, uint _numOfSeats, string memory _gearboxType, string memory _unavailableDates) public {\r\n        // Require a valid vin\r\n        require(bytes(_vin).length > 0);\r\n        // Require a valid price\r\n        require(_price > 0);\r\n        // Require a valid vehicle type\r\n        require(bytes(_vehicleType).length > 0);\r\n        // Require a valid number of seats in the vehicle\r\n        require(_numOfSeats > 0);\r\n        // Require a valid gearbox type\r\n        require(bytes(_gearboxType).length > 0);\r\n        // Increment Vehicle count\r\n        vehicleCount++;\r\n        // Create the Vehicle\r\n        vehicles[vehicleCount] = Vehicle(\r\n            _vin,\r\n            _vehicleType,\r\n            _price,\r\n            payable(msg.sender),\r\n            _unavailableDates,\r\n            _numOfSeats,\r\n            _gearboxType\r\n        );\r\n\r\n\r\n        // Trigger an event\r\n        emit VehicleCreated(\r\n            _vin,\r\n            _vehicleType,\r\n            _price,\r\n            payable(msg.sender),\r\n            _unavailableDates,\r\n            _numOfSeats,\r\n            _gearboxType\r\n        );\r\n    }\r\n\r\nfunction editVehicle(uint _index, string memory _dates, uint _price) public {\r\n        // Require a valid price\r\n        require(_price > 0);\r\n        // Require a valid price\r\n        // require(bytes(_dates).length > 0);\r\n        // Update the Vehicle\r\n        Vehicle memory _vehicle = vehicles[_index];\r\n        _vehicle.vehiclePricePerDay = _price;\r\n        _vehicle.unavailableDates = _dates;\r\n        vehicles[_index] = _vehicle;\r\n        // Trigger an event\r\n        emit VehicleEdited(_vehicle.vin, _vehicle.vehiclePricePerDay);\r\n    }\r\n\r\n    function purchaseVehicle(uint _id) public payable {\r\n    //     // Fetch the product\r\n    //     Product memory _product = products[_id];\r\n    //     // Fetch the owner\r\n    //     address payable _seller = _product.owner;\r\n    //     // Make sure the product has a valid id\r\n    //     require(_product.id > 0 && _product.id <= productCount);\r\n    //     // Require that there is enough Ether in the transaction\r\n    //     require(msg.value >= _product.price);\r\n    //     // Require that the product has not been purchased already\r\n    //     require(!_product.purchased);\r\n    //     // Require that the buyer is not the seller\r\n    //     require(_seller != msg.sender);\r\n    //     // Transfer ownership to the buyer\r\n    //     _product.owner = payable(msg.sender);\r\n    //     // Mark as purchased\r\n    //     _product.purchased = true;\r\n    //     // Update the product\r\n    //     products[_id] = _product;\r\n    //     // Pay the seller by sending them Ether\r\n    //     payable(address(_seller)).transfer(msg.value);\r\n    //     // Trigger an event\r\n    //     emit ProductPurchased(\r\n    //         productCount,\r\n    //         _product.name,\r\n    //         _product.price,\r\n    //         payable(msg.sender),\r\n    //         true\r\n    //     );\r\n    }\r\n}\r\n\r\n\r\n// TODO: when adding a new vehicle we need to test that the vin doesn't already exists.\r\n// TODO: need to add up for rent status in vehicles.\r\n// TODO: maybe add id to the vehicle so we can use get by id when needed.\r\n\r\n\r\n\r\n\r\n\r\n\r\n\r\n\r\n// contract Marketplace {\r\n//     string public name;\r\n//     uint public vehicleCount = 0;\r\n//     mapping(uint => Vehicle) public vehicles;\r\n\r\n//     struct Vehicle {\r\n//         string vin;\r\n//         string vehicleType;\r\n//         uint vehiclePricePerDay;\r\n//         address payable owner;\r\n//         string[] unaviableDates;\r\n//         uint numOfSeats;\r\n//         string gearboxType;\r\n//     }\r\n\r\n//     event VehicleCreated(\r\n//         string vin,\r\n//         string vehicleType,\r\n//         uint vehiclePricePerDay,\r\n//         address payable owner,\r\n//         string[] unaviableDates,\r\n//         uint numOfSeats,\r\n//         string gearboxType\r\n//     );\r\n\r\n//     event VehiclePurchased(\r\n//         string vin,\r\n//         string vehicleType,\r\n//         uint vehiclePricePerDay,\r\n//         address payable owner,\r\n//         string[] unaviableDates,\r\n//         uint numOfSeats,\r\n//         string gearboxType\r\n//     );\r\n\r\n//     event VehicleRented(\r\n//         string vin,\r\n//         string vehicleType,\r\n//         uint vehiclePricePerDay,\r\n//         address payable owner,\r\n//         string[] unaviableDates,\r\n//         uint numOfSeats,\r\n//         string gearboxType\r\n//     );\r\n\r\n//     constructor() public {\r\n//         name = \"Chen & Yarden final project\";\r\n//     }\r\n\r\n//     function createVehicle(string memory _vin, string memory _vehicleType, uint _price, uint _numOfSeats, string memory _gearboxType) public {\r\n//         // Require a valid vin\r\n//         require(bytes(_vin).length > 0);\r\n//         // Require a valid price\r\n//         require(_price > 0);\r\n//         // Require a valid vehicle type\r\n//         require(bytes(_vehicleType).length > 0);\r\n//         // Require a valid number of seats in the vehicle\r\n//         require(_numOfSeats > 0);\r\n//         // Require a valid gearbox type\r\n//         require(bytes(_gearboxType).length > 0);\r\n//         // Increment Vehicle count\r\n//         vehicleCount++;\r\n//         // Create the Vehicle\r\n//         vehicles[vehicleCount] = Vehicle(\r\n//             _vin,\r\n//             _vehicleType,\r\n//             _price,\r\n//             payable(msg.sender),\r\n//             new string[](0),\r\n//             _numOfSeats,\r\n//             _gearboxType\r\n//         );\r\n//         // Trigger an event\r\n//         emit VehicleCreated(\r\n//             _vin,\r\n//             _vehicleType,\r\n//             _price,\r\n//             payable(msg.sender),\r\n//             new string[](0),\r\n//             _numOfSeats,\r\n//             _gearboxType\r\n//         );\r\n//     }\r\n\r\n//     function purchaseVehicle(uint _id) public payable {\r\n//     //     // Fetch the product\r\n//     //     Product memory _product = products[_id];\r\n//     //     // Fetch the owner\r\n//     //     address payable _seller = _product.owner;\r\n//     //     // Make sure the product has a valid id\r\n//     //     require(_product.id > 0 && _product.id <= productCount);\r\n//     //     // Require that there is enough Ether in the transaction\r\n//     //     require(msg.value >= _product.price);\r\n//     //     // Require that the product has not been purchased already\r\n//     //     require(!_product.purchased);\r\n//     //     // Require that the buyer is not the seller\r\n//     //     require(_seller != msg.sender);\r\n//     //     // Transfer ownership to the buyer\r\n//     //     _product.owner = payable(msg.sender);\r\n//     //     // Mark as purchased\r\n//     //     _product.purchased = true;\r\n//     //     // Update the product\r\n//     //     products[_id] = _product;\r\n//     //     // Pay the seller by sending them Ether\r\n//     //     payable(address(_seller)).transfer(msg.value);\r\n//     //     // Trigger an event\r\n//     //     emit ProductPurchased(\r\n//     //         productCount,\r\n//     //         _product.name,\r\n//     //         _product.price,\r\n//     //         payable(msg.sender),\r\n//     //         true\r\n//     //     );\r\n//     }\r\n// }\r\n\r\n\r\n// // TODO: when adding a new vehicle we need to test that the vin doesn't already exists.\r\n// // TODO: need to add up for rent status in vehicles.\r\n// // TODO: maybe add id to the vehicle so we can use get by id when needed.\r\n\r\n",
  "sourcePath": "C:\\Users\\chenb\\final project\\blockchain-project\\src\\contracts\\Marketplace.sol",
  "compiler": {
    "name": "solc",
    "version": "0.8.0+commit.c7dfd78e.Emscripten.clang"
  },
  "schemaVersion": "3.4.13",
  "updatedAt": "2023-06-22T14:06:13.500Z",
  "networkType": "ethereum",
  "devdoc": {
    "kind": "dev",
    "methods": {},
    "version": 1
  },
  "userdoc": {
    "kind": "user",
    "methods": {},
    "version": 1
  }
}