{
  "contractName": "Marketplace",
  "abi": [
    {
      "inputs": [],
      "stateMutability": "nonpayable",
      "type": "constructor"
    },
    {
      "anonymous": false,
      "inputs": [
        {
          "indexed": false,
          "internalType": "string",
          "name": "vin",
          "type": "string"
        },
        {
          "indexed": false,
          "internalType": "string",
          "name": "vehicleType",
          "type": "string"
        },
        {
          "indexed": false,
          "internalType": "uint256",
          "name": "vehiclePricePerDay",
          "type": "uint256"
        },
        {
          "indexed": false,
          "internalType": "address payable",
          "name": "owner",
          "type": "address"
        },
        {
          "indexed": false,
          "internalType": "string",
          "name": "unaviableDates",
          "type": "string"
        },
        {
          "indexed": false,
          "internalType": "uint256",
          "name": "numOfSeats",
          "type": "uint256"
        },
        {
          "indexed": false,
          "internalType": "string",
          "name": "gearboxType",
          "type": "string"
        }
      ],
      "name": "VehicleCreated",
      "type": "event"
    },
    {
      "anonymous": false,
      "inputs": [
        {
          "indexed": false,
          "internalType": "string",
          "name": "vin",
          "type": "string"
        },
        {
          "indexed": false,
          "internalType": "string",
          "name": "vehicleType",
          "type": "string"
        },
        {
          "indexed": false,
          "internalType": "uint256",
          "name": "vehiclePricePerDay",
          "type": "uint256"
        },
        {
          "indexed": false,
          "internalType": "address payable",
          "name": "owner",
          "type": "address"
        },
        {
          "indexed": false,
          "internalType": "string",
          "name": "unaviableDates",
          "type": "string"
        },
        {
          "indexed": false,
          "internalType": "uint256",
          "name": "numOfSeats",
          "type": "uint256"
        },
        {
          "indexed": false,
          "internalType": "string",
          "name": "gearboxType",
          "type": "string"
        }
      ],
      "name": "VehiclePurchased",
      "type": "event"
    },
    {
      "anonymous": false,
      "inputs": [
        {
          "indexed": false,
          "internalType": "string",
          "name": "vin",
          "type": "string"
        },
        {
          "indexed": false,
          "internalType": "string",
          "name": "vehicleType",
          "type": "string"
        },
        {
          "indexed": false,
          "internalType": "uint256",
          "name": "vehiclePricePerDay",
          "type": "uint256"
        },
        {
          "indexed": false,
          "internalType": "address payable",
          "name": "owner",
          "type": "address"
        },
        {
          "indexed": false,
          "internalType": "string",
          "name": "unaviableDates",
          "type": "string"
        },
        {
          "indexed": false,
          "internalType": "uint256",
          "name": "numOfSeats",
          "type": "uint256"
        },
        {
          "indexed": false,
          "internalType": "string",
          "name": "gearboxType",
          "type": "string"
        }
      ],
      "name": "VehicleRented",
      "type": "event"
    },
    {
      "inputs": [],
      "name": "name",
      "outputs": [
        {
          "internalType": "string",
          "name": "",
          "type": "string"
        }
      ],
      "stateMutability": "view",
      "type": "function",
      "constant": true
    },
    {
      "inputs": [],
      "name": "vehicleCount",
      "outputs": [
        {
          "internalType": "uint256",
          "name": "",
          "type": "uint256"
        }
      ],
      "stateMutability": "view",
      "type": "function",
      "constant": true
    },
    {
      "inputs": [
        {
          "internalType": "uint256",
          "name": "",
          "type": "uint256"
        }
      ],
      "name": "vehicles",
      "outputs": [
        {
          "internalType": "string",
          "name": "vin",
          "type": "string"
        },
        {
          "internalType": "string",
          "name": "vehicleType",
          "type": "string"
        },
        {
          "internalType": "uint256",
          "name": "vehiclePricePerDay",
          "type": "uint256"
        },
        {
          "internalType": "address payable",
          "name": "owner",
          "type": "address"
        },
        {
          "internalType": "string",
          "name": "unaviableDates",
          "type": "string"
        },
        {
          "internalType": "uint256",
          "name": "numOfSeats",
          "type": "uint256"
        },
        {
          "internalType": "string",
          "name": "gearboxType",
          "type": "string"
        }
      ],
      "stateMutability": "view",
      "type": "function",
      "constant": true
    },
    {
      "inputs": [
        {
          "internalType": "string",
          "name": "_vin",
          "type": "string"
        },
        {
          "internalType": "string",
          "name": "_vehicleType",
          "type": "string"
        },
        {
          "internalType": "uint256",
          "name": "_price",
          "type": "uint256"
        },
        {
          "internalType": "uint256",
          "name": "_numOfSeats",
          "type": "uint256"
        },
        {
          "internalType": "string",
          "name": "_gearboxType",
          "type": "string"
        },
        {
          "internalType": "string",
          "name": "_unaviableDates",
          "type": "string"
        }
      ],
      "name": "createVehicle",
      "outputs": [],
      "stateMutability": "nonpayable",
      "type": "function"
    },
    {
      "inputs": [
        {
          "internalType": "uint256",
          "name": "_id",
          "type": "uint256"
        }
      ],
      "name": "purchaseVehicle",
      "outputs": [],
      "stateMutability": "payable",
      "type": "function",
      "payable": true
    }
  ],
  "bytecode": "0x608060405260006001553480156200001657600080fd5b506040518060400160405280601b81526020017f4368656e20262059617264656e2066696e616c2070726f6a656374000000000081525060009080519060200190620000649291906200006b565b5062000180565b82805462000079906200011b565b90600052602060002090601f0160209004810192826200009d5760008555620000e9565b82601f10620000b857805160ff1916838001178555620000e9565b82800160010185558215620000e9579182015b82811115620000e8578251825591602001919060010190620000cb565b5b509050620000f89190620000fc565b5090565b5b8082111562000117576000816000905550600101620000fd565b5090565b600060028204905060018216806200013457607f821691505b602082108114156200014b576200014a62000151565b5b50919050565b7f4e487b7100000000000000000000000000000000000000000000000000000000600052602260045260246000fd5b610bcf80620001906000396000f3fe60806040526004361061004a5760003560e01c806302ffbc541461004f57806306fdde031461006b5780639970493714610096578063b8ba95fa146100c1578063d0bd5e9a14610104575b600080fd5b61006960048036038101906100649190610826565b61012d565b005b34801561007757600080fd5b50610080610130565b60405161008d91906108a6565b60405180910390f35b3480156100a257600080fd5b506100ab6101be565b6040516100b89190610953565b60405180910390f35b3480156100cd57600080fd5b506100e860048036038101906100e39190610826565b6101c4565b6040516100fb97969594939291906108c8565b60405180910390f35b34801561011057600080fd5b5061012b6004803603810190610126919061073d565b610446565b005b50565b6000805461013d90610a69565b80601f016020809104026020016040519081016040528092919081815260200182805461016990610a69565b80156101b65780601f1061018b576101008083540402835291602001916101b6565b820191906000526020600020905b81548152906001019060200180831161019957829003601f168201915b505050505081565b60015481565b60026020528060005260406000206000915090508060000180546101e790610a69565b80601f016020809104026020016040519081016040528092919081815260200182805461021390610a69565b80156102605780601f1061023557610100808354040283529160200191610260565b820191906000526020600020905b81548152906001019060200180831161024357829003601f168201915b50505050509080600101805461027590610a69565b80601f01602080910402602001604051908101604052809291908181526020018280546102a190610a69565b80156102ee5780601f106102c3576101008083540402835291602001916102ee565b820191906000526020600020905b8154815290600101906020018083116102d157829003601f168201915b5050505050908060020154908060030160009054906101000a900473ffffffffffffffffffffffffffffffffffffffff169080600401805461032f90610a69565b80601f016020809104026020016040519081016040528092919081815260200182805461035b90610a69565b80156103a85780601f1061037d576101008083540402835291602001916103a8565b820191906000526020600020905b81548152906001019060200180831161038b57829003601f168201915b5050505050908060050154908060060180546103c390610a69565b80601f01602080910402602001604051908101604052809291908181526020018280546103ef90610a69565b801561043c5780601f106104115761010080835404028352916020019161043c565b820191906000526020600020905b81548152906001019060200180831161041f57829003601f168201915b5050505050905087565b600086511161045457600080fd5b6000841161046157600080fd5b600085511161046f57600080fd5b6000831161047c57600080fd5b600082511161048a57600080fd5b6001600081548092919061049d90610a9b565b91905055506040518060e001604052808781526020018681526020018581526020013373ffffffffffffffffffffffffffffffffffffffff16815260200182815260200184815260200183815250600260006001548152602001908152602001600020600082015181600001908051906020019061051c92919061061d565b50602082015181600101908051906020019061053992919061061d565b506040820151816002015560608201518160030160006101000a81548173ffffffffffffffffffffffffffffffffffffffff021916908373ffffffffffffffffffffffffffffffffffffffff16021790555060808201518160040190805190602001906105a792919061061d565b5060a0820151816005015560c08201518160060190805190602001906105ce92919061061d565b509050507f1f36f1594d64fe0b2f8abaf4850750c671b9d31f8540d87498f39c31feba77228686863385888860405161060d97969594939291906108c8565b60405180910390a1505050505050565b82805461062990610a69565b90600052602060002090601f01602090048101928261064b5760008555610692565b82601f1061066457805160ff1916838001178555610692565b82800160010185558215610692579182015b82811115610691578251825591602001919060010190610676565b5b50905061069f91906106a3565b5090565b5b808211156106bc5760008160009055506001016106a4565b5090565b60006106d36106ce8461099f565b61096e565b9050828152602081018484840111156106eb57600080fd5b6106f6848285610a27565b509392505050565b600082601f83011261070f57600080fd5b813561071f8482602086016106c0565b91505092915050565b60008135905061073781610b82565b92915050565b60008060008060008060c0878903121561075657600080fd5b600087013567ffffffffffffffff81111561077057600080fd5b61077c89828a016106fe565b965050602087013567ffffffffffffffff81111561079957600080fd5b6107a589828a016106fe565b95505060406107b689828a01610728565b94505060606107c789828a01610728565b935050608087013567ffffffffffffffff8111156107e457600080fd5b6107f089828a016106fe565b92505060a087013567ffffffffffffffff81111561080d57600080fd5b61081989828a016106fe565b9150509295509295509295565b60006020828403121561083857600080fd5b600061084684828501610728565b91505092915050565b610858816109eb565b82525050565b6000610869826109cf565b61087381856109da565b9350610883818560208601610a36565b61088c81610b71565b840191505092915050565b6108a081610a1d565b82525050565b600060208201905081810360008301526108c0818461085e565b905092915050565b600060e08201905081810360008301526108e2818a61085e565b905081810360208301526108f6818961085e565b90506109056040830188610897565b610912606083018761084f565b8181036080830152610924818661085e565b905061093360a0830185610897565b81810360c0830152610945818461085e565b905098975050505050505050565b60006020820190506109686000830184610897565b92915050565b6000604051905081810181811067ffffffffffffffff8211171561099557610994610b42565b5b8060405250919050565b600067ffffffffffffffff8211156109ba576109b9610b42565b5b601f19601f8301169050602081019050919050565b600081519050919050565b600082825260208201905092915050565b60006109f6826109fd565b9050919050565b600073ffffffffffffffffffffffffffffffffffffffff82169050919050565b6000819050919050565b82818337600083830152505050565b60005b83811015610a54578082015181840152602081019050610a39565b83811115610a63576000848401525b50505050565b60006002820490506001821680610a8157607f821691505b60208210811415610a9557610a94610b13565b5b50919050565b6000610aa682610a1d565b91507fffffffffffffffffffffffffffffffffffffffffffffffffffffffffffffffff821415610ad957610ad8610ae4565b5b600182019050919050565b7f4e487b7100000000000000000000000000000000000000000000000000000000600052601160045260246000fd5b7f4e487b7100000000000000000000000000000000000000000000000000000000600052602260045260246000fd5b7f4e487b7100000000000000000000000000000000000000000000000000000000600052604160045260246000fd5b6000601f19601f8301169050919050565b610b8b81610a1d565b8114610b9657600080fd5b5056fea2646970667358221220bfc82e94ee154f2dc9b09368076148cc6374fea04d9d09f39c01c2f590f86b2b64736f6c63430008000033",
  "immutableReferences": {},
  "source": "// SPDX-License-Identifier: GPL-3.0\r\npragma solidity >=0.5.0 <0.9.0;\r\n\r\ncontract Marketplace {\r\n    string public name;\r\n    uint public vehicleCount = 0;\r\n    mapping(uint => Vehicle) public vehicles;\r\n\r\n    struct Vehicle {\r\n        string vin;\r\n        string vehicleType;\r\n        uint vehiclePricePerDay;\r\n        address payable owner;\r\n        string unaviableDates;\r\n        uint numOfSeats;\r\n        string gearboxType;\r\n    }\r\n\r\n    event VehicleCreated(\r\n        string vin,\r\n        string vehicleType,\r\n        uint vehiclePricePerDay,\r\n        address payable owner,\r\n        string unaviableDates,\r\n        uint numOfSeats,\r\n        string gearboxType\r\n    );\r\n\r\n    event VehiclePurchased(\r\n        string vin,\r\n        string vehicleType,\r\n        uint vehiclePricePerDay,\r\n        address payable owner,\r\n        string unaviableDates,\r\n        uint numOfSeats,\r\n        string gearboxType\r\n    );\r\n\r\n    event VehicleRented(\r\n        string vin,\r\n        string vehicleType,\r\n        uint vehiclePricePerDay,\r\n        address payable owner,\r\n        string unaviableDates,\r\n        uint numOfSeats,\r\n        string gearboxType\r\n    );\r\n\r\n    constructor() public {\r\n        name = \"Chen & Yarden final project\";\r\n    }\r\n\r\n    function createVehicle(string memory _vin, string memory _vehicleType, uint _price, uint _numOfSeats, string memory _gearboxType, string memory _unaviableDates) public {\r\n        // Require a valid vin\r\n        require(bytes(_vin).length > 0);\r\n        // Require a valid price\r\n        require(_price > 0);\r\n        // Require a valid vehicle type\r\n        require(bytes(_vehicleType).length > 0);\r\n        // Require a valid number of seats in the vehicle\r\n        require(_numOfSeats > 0);\r\n        // Require a valid gearbox type\r\n        require(bytes(_gearboxType).length > 0);\r\n        // Increment Vehicle count\r\n        vehicleCount++;\r\n        // Create the Vehicle\r\n        vehicles[vehicleCount] = Vehicle(\r\n            _vin,\r\n            _vehicleType,\r\n            _price,\r\n            payable(msg.sender),\r\n            _unaviableDates,\r\n            _numOfSeats,\r\n            _gearboxType\r\n        );\r\n\r\n\r\n        // Trigger an event\r\n        emit VehicleCreated(\r\n            _vin,\r\n            _vehicleType,\r\n            _price,\r\n            payable(msg.sender),\r\n            _unaviableDates,\r\n            _numOfSeats,\r\n            _gearboxType\r\n        );\r\n    }\r\n\r\n    function purchaseVehicle(uint _id) public payable {\r\n    //     // Fetch the product\r\n    //     Product memory _product = products[_id];\r\n    //     // Fetch the owner\r\n    //     address payable _seller = _product.owner;\r\n    //     // Make sure the product has a valid id\r\n    //     require(_product.id > 0 && _product.id <= productCount);\r\n    //     // Require that there is enough Ether in the transaction\r\n    //     require(msg.value >= _product.price);\r\n    //     // Require that the product has not been purchased already\r\n    //     require(!_product.purchased);\r\n    //     // Require that the buyer is not the seller\r\n    //     require(_seller != msg.sender);\r\n    //     // Transfer ownership to the buyer\r\n    //     _product.owner = payable(msg.sender);\r\n    //     // Mark as purchased\r\n    //     _product.purchased = true;\r\n    //     // Update the product\r\n    //     products[_id] = _product;\r\n    //     // Pay the seller by sending them Ether\r\n    //     payable(address(_seller)).transfer(msg.value);\r\n    //     // Trigger an event\r\n    //     emit ProductPurchased(\r\n    //         productCount,\r\n    //         _product.name,\r\n    //         _product.price,\r\n    //         payable(msg.sender),\r\n    //         true\r\n    //     );\r\n    }\r\n}\r\n\r\n\r\n// TODO: when adding a new vehicle we need to test that the vin doesn't already exists.\r\n// TODO: need to add up for rent status in vehicles.\r\n// TODO: maybe add id to the vehicle so we can use get by id when needed.\r\n\r\n\r\n\r\n\r\n\r\n\r\n\r\n\r\n// contract Marketplace {\r\n//     string public name;\r\n//     uint public vehicleCount = 0;\r\n//     mapping(uint => Vehicle) public vehicles;\r\n\r\n//     struct Vehicle {\r\n//         string vin;\r\n//         string vehicleType;\r\n//         uint vehiclePricePerDay;\r\n//         address payable owner;\r\n//         string[] unaviableDates;\r\n//         uint numOfSeats;\r\n//         string gearboxType;\r\n//     }\r\n\r\n//     event VehicleCreated(\r\n//         string vin,\r\n//         string vehicleType,\r\n//         uint vehiclePricePerDay,\r\n//         address payable owner,\r\n//         string[] unaviableDates,\r\n//         uint numOfSeats,\r\n//         string gearboxType\r\n//     );\r\n\r\n//     event VehiclePurchased(\r\n//         string vin,\r\n//         string vehicleType,\r\n//         uint vehiclePricePerDay,\r\n//         address payable owner,\r\n//         string[] unaviableDates,\r\n//         uint numOfSeats,\r\n//         string gearboxType\r\n//     );\r\n\r\n//     event VehicleRented(\r\n//         string vin,\r\n//         string vehicleType,\r\n//         uint vehiclePricePerDay,\r\n//         address payable owner,\r\n//         string[] unaviableDates,\r\n//         uint numOfSeats,\r\n//         string gearboxType\r\n//     );\r\n\r\n//     constructor() public {\r\n//         name = \"Chen & Yarden final project\";\r\n//     }\r\n\r\n//     function createVehicle(string memory _vin, string memory _vehicleType, uint _price, uint _numOfSeats, string memory _gearboxType) public {\r\n//         // Require a valid vin\r\n//         require(bytes(_vin).length > 0);\r\n//         // Require a valid price\r\n//         require(_price > 0);\r\n//         // Require a valid vehicle type\r\n//         require(bytes(_vehicleType).length > 0);\r\n//         // Require a valid number of seats in the vehicle\r\n//         require(_numOfSeats > 0);\r\n//         // Require a valid gearbox type\r\n//         require(bytes(_gearboxType).length > 0);\r\n//         // Increment Vehicle count\r\n//         vehicleCount++;\r\n//         // Create the Vehicle\r\n//         vehicles[vehicleCount] = Vehicle(\r\n//             _vin,\r\n//             _vehicleType,\r\n//             _price,\r\n//             payable(msg.sender),\r\n//             new string[](0),\r\n//             _numOfSeats,\r\n//             _gearboxType\r\n//         );\r\n//         // Trigger an event\r\n//         emit VehicleCreated(\r\n//             _vin,\r\n//             _vehicleType,\r\n//             _price,\r\n//             payable(msg.sender),\r\n//             new string[](0),\r\n//             _numOfSeats,\r\n//             _gearboxType\r\n//         );\r\n//     }\r\n\r\n//     function purchaseVehicle(uint _id) public payable {\r\n//     //     // Fetch the product\r\n//     //     Product memory _product = products[_id];\r\n//     //     // Fetch the owner\r\n//     //     address payable _seller = _product.owner;\r\n//     //     // Make sure the product has a valid id\r\n//     //     require(_product.id > 0 && _product.id <= productCount);\r\n//     //     // Require that there is enough Ether in the transaction\r\n//     //     require(msg.value >= _product.price);\r\n//     //     // Require that the product has not been purchased already\r\n//     //     require(!_product.purchased);\r\n//     //     // Require that the buyer is not the seller\r\n//     //     require(_seller != msg.sender);\r\n//     //     // Transfer ownership to the buyer\r\n//     //     _product.owner = payable(msg.sender);\r\n//     //     // Mark as purchased\r\n//     //     _product.purchased = true;\r\n//     //     // Update the product\r\n//     //     products[_id] = _product;\r\n//     //     // Pay the seller by sending them Ether\r\n//     //     payable(address(_seller)).transfer(msg.value);\r\n//     //     // Trigger an event\r\n//     //     emit ProductPurchased(\r\n//     //         productCount,\r\n//     //         _product.name,\r\n//     //         _product.price,\r\n//     //         payable(msg.sender),\r\n//     //         true\r\n//     //     );\r\n//     }\r\n// }\r\n\r\n\r\n// // TODO: when adding a new vehicle we need to test that the vin doesn't already exists.\r\n// // TODO: need to add up for rent status in vehicles.\r\n// // TODO: maybe add id to the vehicle so we can use get by id when needed.\r\n\r\n",
  "sourcePath": "C:\\Users\\chenb\\final project\\blockchain-project\\src\\contracts\\Marketplace.sol",
  "compiler": {
    "name": "solc",
    "version": "0.8.0+commit.c7dfd78e.Emscripten.clang"
  },
  "schemaVersion": "3.4.13",
  "updatedAt": "2023-06-19T14:54:41.008Z",
  "networkType": "ethereum",
  "devdoc": {
    "kind": "dev",
    "methods": {},
    "version": 1
  },
  "userdoc": {
    "kind": "user",
    "methods": {},
    "version": 1
  }
}