{
  "contractName": "Marketplace",
  "abi": [
    {
      "inputs": [],
      "stateMutability": "nonpayable",
      "type": "constructor"
    },
    {
      "anonymous": false,
      "inputs": [
        {
          "indexed": false,
          "internalType": "uint256",
          "name": "vin",
          "type": "uint256"
        },
        {
          "indexed": false,
          "internalType": "string",
          "name": "vehicleType",
          "type": "string"
        },
        {
          "indexed": false,
          "internalType": "uint256",
          "name": "vehiclePricePerDay",
          "type": "uint256"
        },
        {
          "indexed": false,
          "internalType": "address payable",
          "name": "owner",
          "type": "address"
        },
        {
          "indexed": false,
          "internalType": "string[]",
          "name": "unaviableDates",
          "type": "string[]"
        },
        {
          "indexed": false,
          "internalType": "uint256",
          "name": "numOfSeats",
          "type": "uint256"
        },
        {
          "indexed": false,
          "internalType": "string",
          "name": "gearboxType",
          "type": "string"
        }
      ],
      "name": "VehicleCreated",
      "type": "event"
    },
    {
      "anonymous": false,
      "inputs": [
        {
          "indexed": false,
          "internalType": "uint256",
          "name": "vin",
          "type": "uint256"
        },
        {
          "indexed": false,
          "internalType": "string",
          "name": "vehicleType",
          "type": "string"
        },
        {
          "indexed": false,
          "internalType": "uint256",
          "name": "vehiclePricePerDay",
          "type": "uint256"
        },
        {
          "indexed": false,
          "internalType": "address payable",
          "name": "owner",
          "type": "address"
        },
        {
          "indexed": false,
          "internalType": "string[]",
          "name": "unaviableDates",
          "type": "string[]"
        },
        {
          "indexed": false,
          "internalType": "uint256",
          "name": "numOfSeats",
          "type": "uint256"
        },
        {
          "indexed": false,
          "internalType": "string",
          "name": "gearboxType",
          "type": "string"
        }
      ],
      "name": "VehiclePurchased",
      "type": "event"
    },
    {
      "inputs": [],
      "name": "name",
      "outputs": [
        {
          "internalType": "string",
          "name": "",
          "type": "string"
        }
      ],
      "stateMutability": "view",
      "type": "function"
    },
    {
      "inputs": [],
      "name": "vehicleCount",
      "outputs": [
        {
          "internalType": "uint256",
          "name": "",
          "type": "uint256"
        }
      ],
      "stateMutability": "view",
      "type": "function"
    },
    {
      "inputs": [
        {
          "internalType": "uint256",
          "name": "",
          "type": "uint256"
        }
      ],
      "name": "vehicles",
      "outputs": [
        {
          "internalType": "uint256",
          "name": "vin",
          "type": "uint256"
        },
        {
          "internalType": "string",
          "name": "vehicleType",
          "type": "string"
        },
        {
          "internalType": "uint256",
          "name": "vehiclePricePerDay",
          "type": "uint256"
        },
        {
          "internalType": "address payable",
          "name": "owner",
          "type": "address"
        },
        {
          "internalType": "uint256",
          "name": "numOfSeats",
          "type": "uint256"
        },
        {
          "internalType": "string",
          "name": "gearboxType",
          "type": "string"
        }
      ],
      "stateMutability": "view",
      "type": "function"
    },
    {
      "inputs": [
        {
          "internalType": "string",
          "name": "_vin",
          "type": "string"
        },
        {
          "internalType": "string",
          "name": "_vehicleType",
          "type": "string"
        },
        {
          "internalType": "uint256",
          "name": "_price",
          "type": "uint256"
        },
        {
          "internalType": "uint256",
          "name": "_numOfSeats",
          "type": "uint256"
        },
        {
          "internalType": "string",
          "name": "_gearboxType",
          "type": "string"
        }
      ],
      "name": "createVehicle",
      "outputs": [],
      "stateMutability": "nonpayable",
      "type": "function"
    },
    {
      "inputs": [
        {
          "internalType": "uint256",
          "name": "_id",
          "type": "uint256"
        }
      ],
      "name": "purchaseVehicle",
      "outputs": [],
      "stateMutability": "payable",
      "type": "function"
    }
  ],
  "bytecode": "0x608060405260006001553480156200001657600080fd5b506040518060400160405280601b81526020017f4368656e20262059617264656e2066696e616c2070726f6a6563740000000000815250600090816200005d9190620002de565b50620003c5565b600081519050919050565b7f4e487b7100000000000000000000000000000000000000000000000000000000600052604160045260246000fd5b7f4e487b7100000000000000000000000000000000000000000000000000000000600052602260045260246000fd5b60006002820490506001821680620000e657607f821691505b602082108103620000fc57620000fb6200009e565b5b50919050565b60008190508160005260206000209050919050565b60006020601f8301049050919050565b600082821b905092915050565b600060088302620001667fffffffffffffffffffffffffffffffffffffffffffffffffffffffffffffffff8262000127565b62000172868362000127565b95508019841693508086168417925050509392505050565b6000819050919050565b6000819050919050565b6000620001bf620001b9620001b3846200018a565b62000194565b6200018a565b9050919050565b6000819050919050565b620001db836200019e565b620001f3620001ea82620001c6565b84845462000134565b825550505050565b600090565b6200020a620001fb565b62000217818484620001d0565b505050565b5b818110156200023f576200023360008262000200565b6001810190506200021d565b5050565b601f8211156200028e57620002588162000102565b620002638462000117565b8101602085101562000273578190505b6200028b620002828562000117565b8301826200021c565b50505b505050565b600082821c905092915050565b6000620002b36000198460080262000293565b1980831691505092915050565b6000620002ce8383620002a0565b9150826002028217905092915050565b620002e98262000064565b67ffffffffffffffff8111156200030557620003046200006f565b5b620003118254620000cd565b6200031e82828562000243565b600060209050601f83116001811462000356576000841562000341578287015190505b6200034d8582620002c0565b865550620003bd565b601f198416620003668662000102565b60005b82811015620003905784890151825560018201915060208501945060208101905062000369565b86831015620003b05784890151620003ac601f891682620002a0565b8355505b6001600288020188555050505b505050505050565b610f8080620003d56000396000f3fe60806040526004361061004a5760003560e01c806302ffbc541461004f57806306fdde031461006b5780638cb5ece61461009657806399704937146100bf578063b8ba95fa146100ea575b600080fd5b610069600480360381019061006491906106a8565b61012c565b005b34801561007757600080fd5b5061008061012f565b60405161008d9190610765565b60405180910390f35b3480156100a257600080fd5b506100bd60048036038101906100b891906108bc565b6101bd565b005b3480156100cb57600080fd5b506100d4610412565b6040516100e1919061099a565b60405180910390f35b3480156100f657600080fd5b50610111600480360381019061010c91906106a8565b610418565b604051610123969594939291906109f6565b60405180910390f35b50565b6000805461013c90610a94565b80601f016020809104026020016040519081016040528092919081815260200182805461016890610a94565b80156101b55780601f1061018a576101008083540402835291602001916101b5565b820191906000526020600020905b81548152906001019060200180831161019857829003601f168201915b505050505081565b60008551116101cb57600080fd5b600083116101d857600080fd5b60008451116101e657600080fd5b600082116101f357600080fd5b600081511161020157600080fd5b6001600081548092919061021490610af4565b91905055506040518060e0016040528060015481526020018681526020018481526020013373ffffffffffffffffffffffffffffffffffffffff168152602001600067ffffffffffffffff81111561026f5761026e610791565b5b6040519080825280602002602001820160405280156102a257816020015b606081526020019060019003908161028d5790505b508152602001838152602001828152506002600060015481526020019081526020016000206000820151816000015560208201518160010190816102e69190610ce8565b506040820151816002015560608201518160030160006101000a81548173ffffffffffffffffffffffffffffffffffffffff021916908373ffffffffffffffffffffffffffffffffffffffff1602179055506080820151816004019080519060200190610354929190610584565b5060a0820151816005015560c08201518160060190816103749190610ce8565b509050507fb6e551f1ec92f2b66f8997384f1dcc3e11e3e79a341e479a9372a3ba5362c078600154868533600067ffffffffffffffff8111156103ba576103b9610791565b5b6040519080825280602002602001820160405280156103ed57816020015b60608152602001906001900390816103d85790505b5087876040516104039796959493929190610ec6565b60405180910390a15050505050565b60015481565b600260205280600052604060002060009150905080600001549080600101805461044190610a94565b80601f016020809104026020016040519081016040528092919081815260200182805461046d90610a94565b80156104ba5780601f1061048f576101008083540402835291602001916104ba565b820191906000526020600020905b81548152906001019060200180831161049d57829003601f168201915b5050505050908060020154908060030160009054906101000a900473ffffffffffffffffffffffffffffffffffffffff169080600501549080600601805461050190610a94565b80601f016020809104026020016040519081016040528092919081815260200182805461052d90610a94565b801561057a5780601f1061054f5761010080835404028352916020019161057a565b820191906000526020600020905b81548152906001019060200180831161055d57829003601f168201915b5050505050905086565b8280548282559060005260206000209081019282156105cc579160200282015b828111156105cb5782518290816105bb9190610ce8565b50916020019190600101906105a4565b5b5090506105d991906105dd565b5090565b5b808211156105fd57600081816105f49190610601565b506001016105de565b5090565b50805461060d90610a94565b6000825580601f1061061f575061063e565b601f01602090049060005260206000209081019061063d9190610641565b5b50565b5b8082111561065a576000816000905550600101610642565b5090565b6000604051905090565b600080fd5b600080fd5b6000819050919050565b61068581610672565b811461069057600080fd5b50565b6000813590506106a28161067c565b92915050565b6000602082840312156106be576106bd610668565b5b60006106cc84828501610693565b91505092915050565b600081519050919050565b600082825260208201905092915050565b60005b8381101561070f5780820151818401526020810190506106f4565b60008484015250505050565b6000601f19601f8301169050919050565b6000610737826106d5565b61074181856106e0565b93506107518185602086016106f1565b61075a8161071b565b840191505092915050565b6000602082019050818103600083015261077f818461072c565b905092915050565b600080fd5b600080fd5b7f4e487b7100000000000000000000000000000000000000000000000000000000600052604160045260246000fd5b6107c98261071b565b810181811067ffffffffffffffff821117156107e8576107e7610791565b5b80604052505050565b60006107fb61065e565b905061080782826107c0565b919050565b600067ffffffffffffffff82111561082757610826610791565b5b6108308261071b565b9050602081019050919050565b82818337600083830152505050565b600061085f61085a8461080c565b6107f1565b90508281526020810184848401111561087b5761087a61078c565b5b61088684828561083d565b509392505050565b600082601f8301126108a3576108a2610787565b5b81356108b384826020860161084c565b91505092915050565b600080600080600060a086880312156108d8576108d7610668565b5b600086013567ffffffffffffffff8111156108f6576108f561066d565b5b6109028882890161088e565b955050602086013567ffffffffffffffff8111156109235761092261066d565b5b61092f8882890161088e565b945050604061094088828901610693565b935050606061095188828901610693565b925050608086013567ffffffffffffffff8111156109725761097161066d565b5b61097e8882890161088e565b9150509295509295909350565b61099481610672565b82525050565b60006020820190506109af600083018461098b565b92915050565b600073ffffffffffffffffffffffffffffffffffffffff82169050919050565b60006109e0826109b5565b9050919050565b6109f0816109d5565b82525050565b600060c082019050610a0b600083018961098b565b8181036020830152610a1d818861072c565b9050610a2c604083018761098b565b610a3960608301866109e7565b610a46608083018561098b565b81810360a0830152610a58818461072c565b9050979650505050505050565b7f4e487b7100000000000000000000000000000000000000000000000000000000600052602260045260246000fd5b60006002820490506001821680610aac57607f821691505b602082108103610abf57610abe610a65565b5b50919050565b7f4e487b7100000000000000000000000000000000000000000000000000000000600052601160045260246000fd5b6000610aff82610672565b91507fffffffffffffffffffffffffffffffffffffffffffffffffffffffffffffffff8203610b3157610b30610ac5565b5b600182019050919050565b60008190508160005260206000209050919050565b60006020601f8301049050919050565b600082821b905092915050565b600060088302610b9e7fffffffffffffffffffffffffffffffffffffffffffffffffffffffffffffffff82610b61565b610ba88683610b61565b95508019841693508086168417925050509392505050565b6000819050919050565b6000610be5610be0610bdb84610672565b610bc0565b610672565b9050919050565b6000819050919050565b610bff83610bca565b610c13610c0b82610bec565b848454610b6e565b825550505050565b600090565b610c28610c1b565b610c33818484610bf6565b505050565b5b81811015610c5757610c4c600082610c20565b600181019050610c39565b5050565b601f821115610c9c57610c6d81610b3c565b610c7684610b51565b81016020851015610c85578190505b610c99610c9185610b51565b830182610c38565b50505b505050565b600082821c905092915050565b6000610cbf60001984600802610ca1565b1980831691505092915050565b6000610cd88383610cae565b9150826002028217905092915050565b610cf1826106d5565b67ffffffffffffffff811115610d0a57610d09610791565b5b610d148254610a94565b610d1f828285610c5b565b600060209050601f831160018114610d525760008415610d40578287015190505b610d4a8582610ccc565b865550610db2565b601f198416610d6086610b3c565b60005b82811015610d8857848901518255600182019150602085019450602081019050610d63565b86831015610da55784890151610da1601f891682610cae565b8355505b6001600288020188555050505b505050505050565b600081519050919050565b600082825260208201905092915050565b6000819050602082019050919050565b600082825260208201905092915050565b6000610e02826106d5565b610e0c8185610de6565b9350610e1c8185602086016106f1565b610e258161071b565b840191505092915050565b6000610e3c8383610df7565b905092915050565b6000602082019050919050565b6000610e5c82610dba565b610e668185610dc5565b935083602082028501610e7885610dd6565b8060005b85811015610eb45784840389528151610e958582610e30565b9450610ea083610e44565b925060208a01995050600181019050610e7c565b50829750879550505050505092915050565b600060e082019050610edb600083018a61098b565b8181036020830152610eed818961072c565b9050610efc604083018861098b565b610f0960608301876109e7565b8181036080830152610f1b8186610e51565b9050610f2a60a083018561098b565b81810360c0830152610f3c818461072c565b90509897505050505050505056fea2646970667358221220040b428de796f73260dc8ef455f589e1ee8c100f7b64ead161a90fed3c20669c64736f6c63430008130033",
  "immutableReferences": {},
  "source": "// SPDX-License-Identifier: GPL-3.0\r\npragma solidity >=0.5.0 <0.9.0;\r\n\r\ncontract Marketplace {\r\n    string public name;\r\n    uint public vehicleCount = 0;\r\n    mapping(uint => Vehicle) public vehicles;\r\n\r\n    struct Vehicle {\r\n        uint vin;\r\n        string vehicleType;\r\n        uint vehiclePricePerDay;\r\n        address payable owner;\r\n        string[] unaviableDates;\r\n        uint numOfSeats;\r\n        string gearboxType;\r\n    }\r\n\r\n    event VehicleCreated(\r\n        uint vin,\r\n        string vehicleType,\r\n        uint vehiclePricePerDay,\r\n        address payable owner,\r\n        string[] unaviableDates,\r\n        uint numOfSeats,\r\n        string gearboxType\r\n    );\r\n\r\n    event VehiclePurchased(\r\n        uint vin,\r\n        string vehicleType,\r\n        uint vehiclePricePerDay,\r\n        address payable owner,\r\n        string[] unaviableDates,\r\n        uint numOfSeats,\r\n        string gearboxType\r\n    );\r\n\r\n    constructor() public {\r\n        name = \"Chen & Yarden final project\";\r\n    }\r\n\r\n    function createVehicle(string memory _vin, string memory _vehicleType, uint _price, uint _numOfSeats, string memory _gearboxType) public {\r\n        // Require a valid vin\r\n        require(bytes(_vin).length > 0);\r\n        // Require a valid price\r\n        require(_price > 0);\r\n        // Require a valid vehicle type\r\n        require(bytes(_vehicleType).length > 0);\r\n        // Require a valid number of seats in the vehicle\r\n        require(_numOfSeats > 0);\r\n        // Require a valid gearbox type\r\n        require(bytes(_gearboxType).length > 0);\r\n        // Increment Vehicle count\r\n        vehicleCount++;\r\n        // Create the Vehicle\r\n        vehicles[vehicleCount] = Vehicle(\r\n            vehicleCount,\r\n            _vin,\r\n            _price,\r\n            payable(msg.sender),\r\n            new string[](0),\r\n            _numOfSeats,\r\n            _gearboxType\r\n        );\r\n        // Trigger an event\r\n        emit VehicleCreated(\r\n            vehicleCount,\r\n            _vin,\r\n            _price,\r\n            payable(msg.sender),\r\n            new string[](0),\r\n            _numOfSeats,\r\n            _gearboxType\r\n        );\r\n    }\r\n\r\n    function purchaseVehicle(uint _id) public payable {\r\n    //     // Fetch the product\r\n    //     Product memory _product = products[_id];\r\n    //     // Fetch the owner\r\n    //     address payable _seller = _product.owner;\r\n    //     // Make sure the product has a valid id\r\n    //     require(_product.id > 0 && _product.id <= productCount);\r\n    //     // Require that there is enough Ether in the transaction\r\n    //     require(msg.value >= _product.price);\r\n    //     // Require that the product has not been purchased already\r\n    //     require(!_product.purchased);\r\n    //     // Require that the buyer is not the seller\r\n    //     require(_seller != msg.sender);\r\n    //     // Transfer ownership to the buyer\r\n    //     _product.owner = payable(msg.sender);\r\n    //     // Mark as purchased\r\n    //     _product.purchased = true;\r\n    //     // Update the product\r\n    //     products[_id] = _product;\r\n    //     // Pay the seller by sending them Ether\r\n    //     payable(address(_seller)).transfer(msg.value);\r\n    //     // Trigger an event\r\n    //     emit ProductPurchased(\r\n    //         productCount,\r\n    //         _product.name,\r\n    //         _product.price,\r\n    //         payable(msg.sender),\r\n    //         true\r\n    //     );\r\n    }\r\n}\r\n\r\n\r\n// TODO: handle string[] unaviableDates\r\n// TODO: need to add vehicle status",
  "sourcePath": "C:\\Users\\chenb\\final project\\blockchain-project\\src\\contracts\\Marketplace.sol",
  "compiler": {
    "name": "solc",
    "version": "0.8.19+commit.7dd6d404.Emscripten.clang"
  },
  "schemaVersion": "3.4.13",
  "updatedAt": "2023-04-13T12:52:39.617Z",
  "devdoc": {
    "kind": "dev",
    "methods": {},
    "version": 1
  },
  "userdoc": {
    "kind": "user",
    "methods": {},
    "version": 1
  }
}