{
  "contractName": "Marketplace",
  "abi": [
    {
      "inputs": [],
      "stateMutability": "nonpayable",
      "type": "constructor"
    },
    {
      "anonymous": false,
      "inputs": [
        {
          "indexed": false,
          "internalType": "uint256",
          "name": "vin",
          "type": "uint256"
        },
        {
          "indexed": false,
          "internalType": "string",
          "name": "vehicleType",
          "type": "string"
        },
        {
          "indexed": false,
          "internalType": "uint256",
          "name": "vehiclePrice",
          "type": "uint256"
        },
        {
          "indexed": false,
          "internalType": "address payable",
          "name": "owner",
          "type": "address"
        },
        {
          "indexed": false,
          "internalType": "string[]",
          "name": "unaviableDates",
          "type": "string[]"
        }
      ],
      "name": "VehicleCreated",
      "type": "event"
    },
    {
      "anonymous": false,
      "inputs": [
        {
          "indexed": false,
          "internalType": "uint256",
          "name": "vin",
          "type": "uint256"
        },
        {
          "indexed": false,
          "internalType": "string",
          "name": "vehicleType",
          "type": "string"
        },
        {
          "indexed": false,
          "internalType": "uint256",
          "name": "vehiclePrice",
          "type": "uint256"
        },
        {
          "indexed": false,
          "internalType": "address payable",
          "name": "owner",
          "type": "address"
        },
        {
          "indexed": false,
          "internalType": "string[]",
          "name": "unaviableDates",
          "type": "string[]"
        }
      ],
      "name": "VehiclePurchased",
      "type": "event"
    },
    {
      "inputs": [],
      "name": "name",
      "outputs": [
        {
          "internalType": "string",
          "name": "",
          "type": "string"
        }
      ],
      "stateMutability": "view",
      "type": "function",
      "constant": true
    },
    {
      "inputs": [],
      "name": "vehicleCount",
      "outputs": [
        {
          "internalType": "uint256",
          "name": "",
          "type": "uint256"
        }
      ],
      "stateMutability": "view",
      "type": "function",
      "constant": true
    },
    {
      "inputs": [
        {
          "internalType": "uint256",
          "name": "",
          "type": "uint256"
        }
      ],
      "name": "vehicles",
      "outputs": [
        {
          "internalType": "uint256",
          "name": "vin",
          "type": "uint256"
        },
        {
          "internalType": "string",
          "name": "vehicleType",
          "type": "string"
        },
        {
          "internalType": "uint256",
          "name": "vehiclePrice",
          "type": "uint256"
        },
        {
          "internalType": "address payable",
          "name": "owner",
          "type": "address"
        }
      ],
      "stateMutability": "view",
      "type": "function",
      "constant": true
    },
    {
      "inputs": [
        {
          "internalType": "string",
          "name": "_vehicleType",
          "type": "string"
        },
        {
          "internalType": "uint256",
          "name": "_price",
          "type": "uint256"
        }
      ],
      "name": "createVehicle",
      "outputs": [],
      "stateMutability": "nonpayable",
      "type": "function"
    },
    {
      "inputs": [
        {
          "internalType": "uint256",
          "name": "_id",
          "type": "uint256"
        }
      ],
      "name": "purchaseVehicle",
      "outputs": [],
      "stateMutability": "payable",
      "type": "function",
      "payable": true
    }
  ],
  "bytecode": "0x608060405260006001553480156200001657600080fd5b506040518060400160405280601b81526020017f4368656e20262059617264656e2066696e616c2070726f6a6563740000000000815250600090816200005d9190620002de565b50620003c5565b600081519050919050565b7f4e487b7100000000000000000000000000000000000000000000000000000000600052604160045260246000fd5b7f4e487b7100000000000000000000000000000000000000000000000000000000600052602260045260246000fd5b60006002820490506001821680620000e657607f821691505b602082108103620000fc57620000fb6200009e565b5b50919050565b60008190508160005260206000209050919050565b60006020601f8301049050919050565b600082821b905092915050565b600060088302620001667fffffffffffffffffffffffffffffffffffffffffffffffffffffffffffffffff8262000127565b62000172868362000127565b95508019841693508086168417925050509392505050565b6000819050919050565b6000819050919050565b6000620001bf620001b9620001b3846200018a565b62000194565b6200018a565b9050919050565b6000819050919050565b620001db836200019e565b620001f3620001ea82620001c6565b84845462000134565b825550505050565b600090565b6200020a620001fb565b62000217818484620001d0565b505050565b5b818110156200023f576200023360008262000200565b6001810190506200021d565b5050565b601f8211156200028e57620002588162000102565b620002638462000117565b8101602085101562000273578190505b6200028b620002828562000117565b8301826200021c565b50505b505050565b600082821c905092915050565b6000620002b36000198460080262000293565b1980831691505092915050565b6000620002ce8383620002a0565b9150826002028217905092915050565b620002e98262000064565b67ffffffffffffffff8111156200030557620003046200006f565b5b620003118254620000cd565b6200031e82828562000243565b600060209050601f83116001811462000356576000841562000341578287015190505b6200034d8582620002c0565b865550620003bd565b601f198416620003668662000102565b60005b82811015620003905784890151825560018201915060208501945060208101905062000369565b86831015620003b05784890151620003ac601f891682620002a0565b8355505b6001600288020188555050505b505050505050565b610dd580620003d56000396000f3fe60806040526004361061004a5760003560e01c806302ffbc541461004f57806306fdde031461006b5780635e5e9db61461009657806399704937146100bf578063b8ba95fa146100ea575b600080fd5b610069600480360381019061006491906105b6565b61012a565b005b34801561007757600080fd5b5061008061012d565b60405161008d9190610673565b60405180910390f35b3480156100a257600080fd5b506100bd60048036038101906100b891906107ca565b6101bb565b005b3480156100cb57600080fd5b506100d46103b4565b6040516100e19190610835565b60405180910390f35b3480156100f657600080fd5b50610111600480360381019061010c91906105b6565b6103ba565b6040516101219493929190610891565b60405180910390f35b50565b6000805461013a9061090c565b80601f01602080910402602001604051908101604052809291908181526020018280546101669061090c565b80156101b35780601f10610188576101008083540402835291602001916101b3565b820191906000526020600020905b81548152906001019060200180831161019657829003601f168201915b505050505081565b60008251116101c957600080fd5b600081116101d657600080fd5b600160008154809291906101e99061096c565b91905055506040518060a0016040528060015481526020018381526020018281526020013373ffffffffffffffffffffffffffffffffffffffff168152602001600067ffffffffffffffff8111156102445761024361069f565b5b60405190808252806020026020018201604052801561027757816020015b60608152602001906001900390816102625790505b508152506002600060015481526020019081526020016000206000820151816000015560208201518160010190816102af9190610b60565b506040820151816002015560608201518160030160006101000a81548173ffffffffffffffffffffffffffffffffffffffff021916908373ffffffffffffffffffffffffffffffffffffffff160217905550608082015181600401908051906020019061031d929190610492565b509050507f9dacd457f2d4e6ed19bae4757818d4490f0e7e605d729dacd400b19cb07b61a4600154838333600067ffffffffffffffff8111156103635761036261069f565b5b60405190808252806020026020018201604052801561039657816020015b60608152602001906001900390816103815790505b506040516103a8959493929190610d3e565b60405180910390a15050565b60015481565b60026020528060005260406000206000915090508060000154908060010180546103e39061090c565b80601f016020809104026020016040519081016040528092919081815260200182805461040f9061090c565b801561045c5780601f106104315761010080835404028352916020019161045c565b820191906000526020600020905b81548152906001019060200180831161043f57829003601f168201915b5050505050908060020154908060030160009054906101000a900473ffffffffffffffffffffffffffffffffffffffff16905084565b8280548282559060005260206000209081019282156104da579160200282015b828111156104d95782518290816104c99190610b60565b50916020019190600101906104b2565b5b5090506104e791906104eb565b5090565b5b8082111561050b5760008181610502919061050f565b506001016104ec565b5090565b50805461051b9061090c565b6000825580601f1061052d575061054c565b601f01602090049060005260206000209081019061054b919061054f565b5b50565b5b80821115610568576000816000905550600101610550565b5090565b6000604051905090565b600080fd5b600080fd5b6000819050919050565b61059381610580565b811461059e57600080fd5b50565b6000813590506105b08161058a565b92915050565b6000602082840312156105cc576105cb610576565b5b60006105da848285016105a1565b91505092915050565b600081519050919050565b600082825260208201905092915050565b60005b8381101561061d578082015181840152602081019050610602565b60008484015250505050565b6000601f19601f8301169050919050565b6000610645826105e3565b61064f81856105ee565b935061065f8185602086016105ff565b61066881610629565b840191505092915050565b6000602082019050818103600083015261068d818461063a565b905092915050565b600080fd5b600080fd5b7f4e487b7100000000000000000000000000000000000000000000000000000000600052604160045260246000fd5b6106d782610629565b810181811067ffffffffffffffff821117156106f6576106f561069f565b5b80604052505050565b600061070961056c565b905061071582826106ce565b919050565b600067ffffffffffffffff8211156107355761073461069f565b5b61073e82610629565b9050602081019050919050565b82818337600083830152505050565b600061076d6107688461071a565b6106ff565b9050828152602081018484840111156107895761078861069a565b5b61079484828561074b565b509392505050565b600082601f8301126107b1576107b0610695565b5b81356107c184826020860161075a565b91505092915050565b600080604083850312156107e1576107e0610576565b5b600083013567ffffffffffffffff8111156107ff576107fe61057b565b5b61080b8582860161079c565b925050602061081c858286016105a1565b9150509250929050565b61082f81610580565b82525050565b600060208201905061084a6000830184610826565b92915050565b600073ffffffffffffffffffffffffffffffffffffffff82169050919050565b600061087b82610850565b9050919050565b61088b81610870565b82525050565b60006080820190506108a66000830187610826565b81810360208301526108b8818661063a565b90506108c76040830185610826565b6108d46060830184610882565b95945050505050565b7f4e487b7100000000000000000000000000000000000000000000000000000000600052602260045260246000fd5b6000600282049050600182168061092457607f821691505b602082108103610937576109366108dd565b5b50919050565b7f4e487b7100000000000000000000000000000000000000000000000000000000600052601160045260246000fd5b600061097782610580565b91507fffffffffffffffffffffffffffffffffffffffffffffffffffffffffffffffff82036109a9576109a861093d565b5b600182019050919050565b60008190508160005260206000209050919050565b60006020601f8301049050919050565b600082821b905092915050565b600060088302610a167fffffffffffffffffffffffffffffffffffffffffffffffffffffffffffffffff826109d9565b610a2086836109d9565b95508019841693508086168417925050509392505050565b6000819050919050565b6000610a5d610a58610a5384610580565b610a38565b610580565b9050919050565b6000819050919050565b610a7783610a42565b610a8b610a8382610a64565b8484546109e6565b825550505050565b600090565b610aa0610a93565b610aab818484610a6e565b505050565b5b81811015610acf57610ac4600082610a98565b600181019050610ab1565b5050565b601f821115610b1457610ae5816109b4565b610aee846109c9565b81016020851015610afd578190505b610b11610b09856109c9565b830182610ab0565b50505b505050565b600082821c905092915050565b6000610b3760001984600802610b19565b1980831691505092915050565b6000610b508383610b26565b9150826002028217905092915050565b610b69826105e3565b67ffffffffffffffff811115610b8257610b8161069f565b5b610b8c825461090c565b610b97828285610ad3565b600060209050601f831160018114610bca5760008415610bb8578287015190505b610bc28582610b44565b865550610c2a565b601f198416610bd8866109b4565b60005b82811015610c0057848901518255600182019150602085019450602081019050610bdb565b86831015610c1d5784890151610c19601f891682610b26565b8355505b6001600288020188555050505b505050505050565b600081519050919050565b600082825260208201905092915050565b6000819050602082019050919050565b600082825260208201905092915050565b6000610c7a826105e3565b610c848185610c5e565b9350610c948185602086016105ff565b610c9d81610629565b840191505092915050565b6000610cb48383610c6f565b905092915050565b6000602082019050919050565b6000610cd482610c32565b610cde8185610c3d565b935083602082028501610cf085610c4e565b8060005b85811015610d2c5784840389528151610d0d8582610ca8565b9450610d1883610cbc565b925060208a01995050600181019050610cf4565b50829750879550505050505092915050565b600060a082019050610d536000830188610826565b8181036020830152610d65818761063a565b9050610d746040830186610826565b610d816060830185610882565b8181036080830152610d938184610cc9565b9050969550505050505056fea264697066735822122009c975c8eb7e052d020852778dff8f5ddd3cfe5d5d463f3787680c8f136689bf64736f6c63430008130033",
  "immutableReferences": {},
  "source": "// SPDX-License-Identifier: GPL-3.0\r\npragma solidity >=0.5.0 <0.9.0;\r\n\r\ncontract Marketplace {\r\n    string public name;\r\n    uint public vehicleCount = 0;\r\n    mapping(uint => Vehicle) public vehicles;\r\n\r\n    struct Vehicle {\r\n        uint vin;\r\n        string vehicleType;\r\n        uint vehiclePrice;\r\n        address payable owner;\r\n        string[] unaviableDates;\r\n    }\r\n\r\n    event VehicleCreated(\r\n        uint vin,\r\n        string vehicleType,\r\n        uint vehiclePrice,\r\n        address payable owner,\r\n        string[] unaviableDates\r\n    );\r\n\r\n    event VehiclePurchased(\r\n        uint vin,\r\n        string vehicleType,\r\n        uint vehiclePrice,\r\n        address payable owner,\r\n        string[] unaviableDates\r\n    );\r\n\r\n    constructor() public {\r\n        name = \"Chen & Yarden final project\";\r\n    }\r\n\r\n    function createVehicle(string memory _vehicleType, uint _price) public {\r\n        // Require a valid name\r\n        require(bytes(_vehicleType).length > 0);\r\n        // Require a valid price\r\n        require(_price > 0);\r\n        // Increment Vehicle count\r\n        vehicleCount++;\r\n        // Create the Vehicle\r\n        vehicles[vehicleCount] = Vehicle(\r\n            vehicleCount,\r\n            _vehicleType,\r\n            _price,\r\n            payable(msg.sender),\r\n            new string[](0)\r\n        );\r\n        // Trigger an event\r\n        emit VehicleCreated(\r\n            vehicleCount,\r\n            _vehicleType,\r\n            _price,\r\n            payable(msg.sender),\r\n            new string[](0)\r\n        );\r\n    }\r\n\r\n    function purchaseVehicle(uint _id) public payable {\r\n    //     // Fetch the product\r\n    //     Product memory _product = products[_id];\r\n    //     // Fetch the owner\r\n    //     address payable _seller = _product.owner;\r\n    //     // Make sure the product has a valid id\r\n    //     require(_product.id > 0 && _product.id <= productCount);\r\n    //     // Require that there is enough Ether in the transaction\r\n    //     require(msg.value >= _product.price);\r\n    //     // Require that the product has not been purchased already\r\n    //     require(!_product.purchased);\r\n    //     // Require that the buyer is not the seller\r\n    //     require(_seller != msg.sender);\r\n    //     // Transfer ownership to the buyer\r\n    //     _product.owner = payable(msg.sender);\r\n    //     // Mark as purchased\r\n    //     _product.purchased = true;\r\n    //     // Update the product\r\n    //     products[_id] = _product;\r\n    //     // Pay the seller by sending them Ether\r\n    //     payable(address(_seller)).transfer(msg.value);\r\n    //     // Trigger an event\r\n    //     emit ProductPurchased(\r\n    //         productCount,\r\n    //         _product.name,\r\n    //         _product.price,\r\n    //         payable(msg.sender),\r\n    //         true\r\n    //     );\r\n    }\r\n}\r\n",
  "sourcePath": "C:\\Users\\hovav\\finalproject\\src\\contracts\\Marketplace.sol",
  "compiler": {
    "name": "solc",
    "version": "0.8.19+commit.7dd6d404.Emscripten.clang"
  },
  "schemaVersion": "3.4.13",
  "updatedAt": "2023-04-14T07:24:59.268Z",
  "networkType": "ethereum",
  "devdoc": {
    "kind": "dev",
    "methods": {},
    "version": 1
  },
  "userdoc": {
    "kind": "user",
    "methods": {},
    "version": 1
  }
}