{
  "contractName": "Rentals",
  "abi": [
    {
      "inputs": [],
      "stateMutability": "nonpayable",
      "type": "constructor"
    },
    {
      "anonymous": false,
      "inputs": [
        {
          "indexed": false,
          "internalType": "uint256",
          "name": "id",
          "type": "uint256"
        },
        {
          "indexed": false,
          "internalType": "string",
          "name": "vehicleVin",
          "type": "string"
        },
        {
          "indexed": false,
          "internalType": "address payable",
          "name": "owner",
          "type": "address"
        },
        {
          "indexed": false,
          "internalType": "address payable",
          "name": "renter",
          "type": "address"
        },
        {
          "indexed": false,
          "internalType": "string",
          "name": "rentDates",
          "type": "string"
        },
        {
          "indexed": false,
          "internalType": "uint256",
          "name": "rentPrice",
          "type": "uint256"
        },
        {
          "indexed": false,
          "internalType": "string",
          "name": "status",
          "type": "string"
        }
      ],
      "name": "RentalCreated",
      "type": "event"
    },
    {
      "anonymous": false,
      "inputs": [
        {
          "indexed": false,
          "internalType": "uint256",
          "name": "id",
          "type": "uint256"
        },
        {
          "indexed": false,
          "internalType": "string",
          "name": "vehicleVin",
          "type": "string"
        },
        {
          "indexed": false,
          "internalType": "address payable",
          "name": "owner",
          "type": "address"
        },
        {
          "indexed": false,
          "internalType": "address payable",
          "name": "renter",
          "type": "address"
        },
        {
          "indexed": false,
          "internalType": "string",
          "name": "rentDates",
          "type": "string"
        },
        {
          "indexed": false,
          "internalType": "uint256",
          "name": "rentPrice",
          "type": "uint256"
        },
        {
          "indexed": false,
          "internalType": "string",
          "name": "status",
          "type": "string"
        }
      ],
      "name": "RentalPayed",
      "type": "event"
    },
    {
      "anonymous": false,
      "inputs": [
        {
          "indexed": false,
          "internalType": "uint256",
          "name": "id",
          "type": "uint256"
        },
        {
          "indexed": false,
          "internalType": "string",
          "name": "vehicleVin",
          "type": "string"
        },
        {
          "indexed": false,
          "internalType": "address payable",
          "name": "owner",
          "type": "address"
        },
        {
          "indexed": false,
          "internalType": "address payable",
          "name": "renter",
          "type": "address"
        },
        {
          "indexed": false,
          "internalType": "string",
          "name": "rentDates",
          "type": "string"
        },
        {
          "indexed": false,
          "internalType": "uint256",
          "name": "rentPrice",
          "type": "uint256"
        },
        {
          "indexed": false,
          "internalType": "string",
          "name": "status",
          "type": "string"
        }
      ],
      "name": "RentalUpdated",
      "type": "event"
    },
    {
      "inputs": [],
      "name": "name",
      "outputs": [
        {
          "internalType": "string",
          "name": "",
          "type": "string"
        }
      ],
      "stateMutability": "view",
      "type": "function",
      "constant": true
    },
    {
      "inputs": [
        {
          "internalType": "uint256",
          "name": "",
          "type": "uint256"
        }
      ],
      "name": "rentals",
      "outputs": [
        {
          "internalType": "uint256",
          "name": "id",
          "type": "uint256"
        },
        {
          "internalType": "string",
          "name": "vehicleVin",
          "type": "string"
        },
        {
          "internalType": "address payable",
          "name": "owner",
          "type": "address"
        },
        {
          "internalType": "address payable",
          "name": "renter",
          "type": "address"
        },
        {
          "internalType": "string",
          "name": "rentDates",
          "type": "string"
        },
        {
          "internalType": "uint256",
          "name": "rentPrice",
          "type": "uint256"
        },
        {
          "internalType": "string",
          "name": "status",
          "type": "string"
        },
        {
          "internalType": "string",
          "name": "ownerName",
          "type": "string"
        },
        {
          "internalType": "string",
          "name": "renterName",
          "type": "string"
        }
      ],
      "stateMutability": "view",
      "type": "function",
      "constant": true
    },
    {
      "inputs": [],
      "name": "rentalsCount",
      "outputs": [
        {
          "internalType": "uint256",
          "name": "",
          "type": "uint256"
        }
      ],
      "stateMutability": "view",
      "type": "function",
      "constant": true
    },
    {
      "inputs": [
        {
          "internalType": "string",
          "name": "_vehicleVin",
          "type": "string"
        },
        {
          "internalType": "address",
          "name": "_owner",
          "type": "address"
        },
        {
          "internalType": "string",
          "name": "_rentDates",
          "type": "string"
        },
        {
          "internalType": "uint256",
          "name": "_rentPrice",
          "type": "uint256"
        },
        {
          "internalType": "string",
          "name": "_status",
          "type": "string"
        },
        {
          "internalType": "string",
          "name": "_ownerName",
          "type": "string"
        },
        {
          "internalType": "string",
          "name": "_renterName",
          "type": "string"
        }
      ],
      "name": "createRental",
      "outputs": [],
      "stateMutability": "nonpayable",
      "type": "function"
    },
    {
      "inputs": [
        {
          "internalType": "uint256",
          "name": "_id",
          "type": "uint256"
        },
        {
          "internalType": "string",
          "name": "_status",
          "type": "string"
        }
      ],
      "name": "updateRental",
      "outputs": [],
      "stateMutability": "payable",
      "type": "function",
      "payable": true
    },
    {
      "inputs": [
        {
          "internalType": "uint256",
          "name": "_id",
          "type": "uint256"
        },
        {
          "internalType": "string",
          "name": "_status",
          "type": "string"
        }
      ],
      "name": "rentalPayment",
      "outputs": [],
      "stateMutability": "payable",
      "type": "function",
      "payable": true
    }
  ],
  "bytecode": "0x608060405260006001553480156200001657600080fd5b506040518060400160405280601b81526020017f4368656e20262059617264656e2066696e616c2070726f6a656374000000000081525060009080519060200190620000649291906200006b565b5062000180565b82805462000079906200011b565b90600052602060002090601f0160209004810192826200009d5760008555620000e9565b82601f10620000b857805160ff1916838001178555620000e9565b82800160010185558215620000e9579182015b82811115620000e8578251825591602001919060010190620000cb565b5b509050620000f89190620000fc565b5090565b5b8082111562000117576000816000905550600101620000fd565b5090565b600060028204905060018216806200013457607f821691505b602082108114156200014b576200014a62000151565b5b50919050565b7f4e487b7100000000000000000000000000000000000000000000000000000000600052602260045260246000fd5b611a1080620001906000396000f3fe6080604052600436106100555760003560e01c80630691d0f81461005a57806306fdde0314610083578063a14dcd6f146100ae578063ad870473146100d9578063adf446e4146100f5578063af94a1d114610111575b600080fd5b34801561006657600080fd5b50610081600480360381019061007c919061142b565b610156565b005b34801561008f57600080fd5b506100986103bb565b6040516100a59190611615565b60405180910390f35b3480156100ba57600080fd5b506100c3610449565b6040516100d09190611637565b60405180910390f35b6100f360048036038101906100ee919061156a565b61044f565b005b61010f600480360381019061010a919061156a565b6109df565b005b34801561011d57600080fd5b5061013860048036038101906101339190611541565b610fc0565b60405161014d999897969594939291906116d6565b60405180910390f35b600087511161016457600080fd5b600085511161017257600080fd5b6000841161017f57600080fd5b600082511161018d57600080fd5b600081511161019b57600080fd5b600160008154809291906101ae906118c5565b919050555060405180610120016040528060015481526020018881526020018773ffffffffffffffffffffffffffffffffffffffff1681526020013373ffffffffffffffffffffffffffffffffffffffff1681526020018681526020018581526020018481526020018381526020018281525060026000600154815260200190815260200160002060008201518160000155602082015181600101908051906020019061025c9291906112f6565b5060408201518160020160006101000a81548173ffffffffffffffffffffffffffffffffffffffff021916908373ffffffffffffffffffffffffffffffffffffffff16021790555060608201518160030160006101000a81548173ffffffffffffffffffffffffffffffffffffffff021916908373ffffffffffffffffffffffffffffffffffffffff16021790555060808201518160040190805190602001906103079291906112f6565b5060a0820151816005015560c082015181600601908051906020019061032e9291906112f6565b5060e082015181600701908051906020019061034b9291906112f6565b506101008201518160080190805190602001906103699291906112f6565b509050507f98bf84aa8cc415d4a3aa73bbe0d1f0a8f987bd4509f46bcaefeee09e896630eb6001548888338989896040516103aa9796959493929190611652565b60405180910390a150505050505050565b600080546103c890611893565b80601f01602080910402602001604051908101604052809291908181526020018280546103f490611893565b80156104415780601f1061041657610100808354040283529160200191610441565b820191906000526020600020905b81548152906001019060200180831161042457829003601f168201915b505050505081565b60015481565b60008211801561046157506001548211155b61046a57600080fd5b60006002600084815260200190815260200160002060405180610120016040529081600082015481526020016001820180546104a590611893565b80601f01602080910402602001604051908101604052809291908181526020018280546104d190611893565b801561051e5780601f106104f35761010080835404028352916020019161051e565b820191906000526020600020905b81548152906001019060200180831161050157829003601f168201915b505050505081526020016002820160009054906101000a900473ffffffffffffffffffffffffffffffffffffffff1673ffffffffffffffffffffffffffffffffffffffff1673ffffffffffffffffffffffffffffffffffffffff1681526020016003820160009054906101000a900473ffffffffffffffffffffffffffffffffffffffff1673ffffffffffffffffffffffffffffffffffffffff1673ffffffffffffffffffffffffffffffffffffffff1681526020016004820180546105e390611893565b80601f016020809104026020016040519081016040528092919081815260200182805461060f90611893565b801561065c5780601f106106315761010080835404028352916020019161065c565b820191906000526020600020905b81548152906001019060200180831161063f57829003601f168201915b505050505081526020016005820154815260200160068201805461067f90611893565b80601f01602080910402602001604051908101604052809291908181526020018280546106ab90611893565b80156106f85780601f106106cd576101008083540402835291602001916106f8565b820191906000526020600020905b8154815290600101906020018083116106db57829003601f168201915b5050505050815260200160078201805461071190611893565b80601f016020809104026020016040519081016040528092919081815260200182805461073d90611893565b801561078a5780601f1061075f5761010080835404028352916020019161078a565b820191906000526020600020905b81548152906001019060200180831161076d57829003601f168201915b505050505081526020016008820180546107a390611893565b80601f01602080910402602001604051908101604052809291908181526020018280546107cf90611893565b801561081c5780601f106107f15761010080835404028352916020019161081c565b820191906000526020600020905b8154815290600101906020018083116107ff57829003601f168201915b5050505050815250509050818160c00181905250806002600085815260200190815260200160002060008201518160000155602082015181600101908051906020019061086a9291906112f6565b5060408201518160020160006101000a81548173ffffffffffffffffffffffffffffffffffffffff021916908373ffffffffffffffffffffffffffffffffffffffff16021790555060608201518160030160006101000a81548173ffffffffffffffffffffffffffffffffffffffff021916908373ffffffffffffffffffffffffffffffffffffffff16021790555060808201518160040190805190602001906109159291906112f6565b5060a0820151816005015560c082015181600601908051906020019061093c9291906112f6565b5060e08201518160070190805190602001906109599291906112f6565b506101008201518160080190805190602001906109779291906112f6565b509050507f676c24343d58de3cafe6f7bc7cb8761300e59cc1cf9849be7e4fd981e4ee9b9e816000015182602001518360400151846060015185608001518660a001518760c001516040516109d29796959493929190611652565b60405180910390a1505050565b6000821180156109f157506001548211155b6109fa57600080fd5b6000600260008481526020019081526020016000206040518061012001604052908160008201548152602001600182018054610a3590611893565b80601f0160208091040260200160405190810160405280929190818152602001828054610a6190611893565b8015610aae5780601f10610a8357610100808354040283529160200191610aae565b820191906000526020600020905b815481529060010190602001808311610a9157829003601f168201915b505050505081526020016002820160009054906101000a900473ffffffffffffffffffffffffffffffffffffffff1673ffffffffffffffffffffffffffffffffffffffff1673ffffffffffffffffffffffffffffffffffffffff1681526020016003820160009054906101000a900473ffffffffffffffffffffffffffffffffffffffff1673ffffffffffffffffffffffffffffffffffffffff1673ffffffffffffffffffffffffffffffffffffffff168152602001600482018054610b7390611893565b80601f0160208091040260200160405190810160405280929190818152602001828054610b9f90611893565b8015610bec5780601f10610bc157610100808354040283529160200191610bec565b820191906000526020600020905b815481529060010190602001808311610bcf57829003601f168201915b5050505050815260200160058201548152602001600682018054610c0f90611893565b80601f0160208091040260200160405190810160405280929190818152602001828054610c3b90611893565b8015610c885780601f10610c5d57610100808354040283529160200191610c88565b820191906000526020600020905b815481529060010190602001808311610c6b57829003601f168201915b50505050508152602001600782018054610ca190611893565b80601f0160208091040260200160405190810160405280929190818152602001828054610ccd90611893565b8015610d1a5780601f10610cef57610100808354040283529160200191610d1a565b820191906000526020600020905b815481529060010190602001808311610cfd57829003601f168201915b50505050508152602001600882018054610d3390611893565b80601f0160208091040260200160405190810160405280929190818152602001828054610d5f90611893565b8015610dac5780601f10610d8157610100808354040283529160200191610dac565b820191906000526020600020905b815481529060010190602001808311610d8f57829003601f168201915b5050505050815250509050600081604001519050828260c001819052508160026000868152602001908152602001600020600082015181600001556020820151816001019080519060200190610e039291906112f6565b5060408201518160020160006101000a81548173ffffffffffffffffffffffffffffffffffffffff021916908373ffffffffffffffffffffffffffffffffffffffff16021790555060608201518160030160006101000a81548173ffffffffffffffffffffffffffffffffffffffff021916908373ffffffffffffffffffffffffffffffffffffffff1602179055506080820151816004019080519060200190610eae9291906112f6565b5060a0820151816005015560c0820151816006019080519060200190610ed59291906112f6565b5060e0820151816007019080519060200190610ef29291906112f6565b50610100820151816008019080519060200190610f109291906112f6565b509050508073ffffffffffffffffffffffffffffffffffffffff166108fc349081150290604051600060405180830381858888f19350505050158015610f5a573d6000803e3d6000fd5b507fdff58ea8cd233d50224c765812b18a05b238b3a0e26be65e7772610df40d9f1e826000015183602001518460400151856060015186608001518760a001518860c00151604051610fb29796959493929190611652565b60405180910390a150505050565b6002602052806000526040600020600091509050806000015490806001018054610fe990611893565b80601f016020809104026020016040519081016040528092919081815260200182805461101590611893565b80156110625780601f1061103757610100808354040283529160200191611062565b820191906000526020600020905b81548152906001019060200180831161104557829003601f168201915b5050505050908060020160009054906101000a900473ffffffffffffffffffffffffffffffffffffffff16908060030160009054906101000a900473ffffffffffffffffffffffffffffffffffffffff16908060040180546110c390611893565b80601f01602080910402602001604051908101604052809291908181526020018280546110ef90611893565b801561113c5780601f106111115761010080835404028352916020019161113c565b820191906000526020600020905b81548152906001019060200180831161111f57829003601f168201915b50505050509080600501549080600601805461115790611893565b80601f016020809104026020016040519081016040528092919081815260200182805461118390611893565b80156111d05780601f106111a5576101008083540402835291602001916111d0565b820191906000526020600020905b8154815290600101906020018083116111b357829003601f168201915b5050505050908060070180546111e590611893565b80601f016020809104026020016040519081016040528092919081815260200182805461121190611893565b801561125e5780601f106112335761010080835404028352916020019161125e565b820191906000526020600020905b81548152906001019060200180831161124157829003601f168201915b50505050509080600801805461127390611893565b80601f016020809104026020016040519081016040528092919081815260200182805461129f90611893565b80156112ec5780601f106112c1576101008083540402835291602001916112ec565b820191906000526020600020905b8154815290600101906020018083116112cf57829003601f168201915b5050505050905089565b82805461130290611893565b90600052602060002090601f016020900481019282611324576000855561136b565b82601f1061133d57805160ff191683800117855561136b565b8280016001018555821561136b579182015b8281111561136a57825182559160200191906001019061134f565b5b509050611378919061137c565b5090565b5b8082111561139557600081600090555060010161137d565b5090565b60006113ac6113a7846117b7565b611786565b9050828152602081018484840111156113c457600080fd5b6113cf848285611851565b509392505050565b6000813590506113e6816119ac565b92915050565b600082601f8301126113fd57600080fd5b813561140d848260208601611399565b91505092915050565b600081359050611425816119c3565b92915050565b600080600080600080600060e0888a03121561144657600080fd5b600088013567ffffffffffffffff81111561146057600080fd5b61146c8a828b016113ec565b975050602061147d8a828b016113d7565b965050604088013567ffffffffffffffff81111561149a57600080fd5b6114a68a828b016113ec565b95505060606114b78a828b01611416565b945050608088013567ffffffffffffffff8111156114d457600080fd5b6114e08a828b016113ec565b93505060a088013567ffffffffffffffff8111156114fd57600080fd5b6115098a828b016113ec565b92505060c088013567ffffffffffffffff81111561152657600080fd5b6115328a828b016113ec565b91505092959891949750929550565b60006020828403121561155357600080fd5b600061156184828501611416565b91505092915050565b6000806040838503121561157d57600080fd5b600061158b85828601611416565b925050602083013567ffffffffffffffff8111156115a857600080fd5b6115b4858286016113ec565b9150509250929050565b6115c781611815565b82525050565b60006115d8826117e7565b6115e281856117f2565b93506115f2818560208601611860565b6115fb8161199b565b840191505092915050565b61160f81611847565b82525050565b6000602082019050818103600083015261162f81846115cd565b905092915050565b600060208201905061164c6000830184611606565b92915050565b600060e082019050611667600083018a611606565b818103602083015261167981896115cd565b905061168860408301886115be565b61169560608301876115be565b81810360808301526116a781866115cd565b90506116b660a0830185611606565b81810360c08301526116c881846115cd565b905098975050505050505050565b6000610120820190506116ec600083018c611606565b81810360208301526116fe818b6115cd565b905061170d604083018a6115be565b61171a60608301896115be565b818103608083015261172c81886115cd565b905061173b60a0830187611606565b81810360c083015261174d81866115cd565b905081810360e083015261176181856115cd565b905081810361010083015261177681846115cd565b90509a9950505050505050505050565b6000604051905081810181811067ffffffffffffffff821117156117ad576117ac61196c565b5b8060405250919050565b600067ffffffffffffffff8211156117d2576117d161196c565b5b601f19601f8301169050602081019050919050565b600081519050919050565b600082825260208201905092915050565b600061180e82611827565b9050919050565b600061182082611827565b9050919050565b600073ffffffffffffffffffffffffffffffffffffffff82169050919050565b6000819050919050565b82818337600083830152505050565b60005b8381101561187e578082015181840152602081019050611863565b8381111561188d576000848401525b50505050565b600060028204905060018216806118ab57607f821691505b602082108114156118bf576118be61193d565b5b50919050565b60006118d082611847565b91507fffffffffffffffffffffffffffffffffffffffffffffffffffffffffffffffff8214156119035761190261190e565b5b600182019050919050565b7f4e487b7100000000000000000000000000000000000000000000000000000000600052601160045260246000fd5b7f4e487b7100000000000000000000000000000000000000000000000000000000600052602260045260246000fd5b7f4e487b7100000000000000000000000000000000000000000000000000000000600052604160045260246000fd5b6000601f19601f8301169050919050565b6119b581611803565b81146119c057600080fd5b50565b6119cc81611847565b81146119d757600080fd5b5056fea2646970667358221220c04ad8f1ab6cb930ae9503dee134a3e8721e97c66bec65ebee846f0c748361fc64736f6c63430008000033",
  "immutableReferences": {},
  "source": "// SPDX-License-Identifier: GPL-3.0\r\npragma solidity >=0.5.0 <0.9.0;\r\n\r\ncontract Rentals {\r\n    string public name;\r\n    uint public rentalsCount = 0;\r\n    mapping(uint => Rental) public rentals;\r\n\r\n    struct Rental {\r\n        uint id;\r\n        string vehicleVin;\r\n        address payable owner;\r\n        address payable renter;\r\n        string rentDates;\r\n        uint rentPrice;\r\n        string status;\r\n        string ownerName;\r\n        string renterName;\r\n    }\r\n\r\n    event RentalCreated(\r\n        uint id,\r\n        string vehicleVin,\r\n        address payable owner,\r\n        address payable renter,\r\n        string rentDates,\r\n        uint rentPrice,\r\n        string status\r\n    );\r\n\r\n    event RentalUpdated(\r\n        uint id,\r\n        string vehicleVin,\r\n        address payable owner,\r\n        address payable renter,\r\n        string rentDates,\r\n        uint rentPrice,\r\n        string status\r\n    );\r\n\r\n    event RentalPayed(\r\n        uint id,\r\n        string vehicleVin,\r\n        address payable owner,\r\n        address payable renter,\r\n        string rentDates,\r\n        uint rentPrice,\r\n        string status\r\n    );\r\n\r\n    constructor() public {\r\n        name = \"Chen & Yarden final project\";\r\n    }\r\n\r\n    function createRental(string memory _vehicleVin, address _owner, string memory _rentDates, uint _rentPrice, string memory _status, string memory _ownerName, string memory _renterName) public {\r\n        // Require a valid vehicle vin\r\n        require(bytes(_vehicleVin).length > 0);\r\n    \r\n        // Require a valid rent dates\r\n        require(bytes(_rentDates).length > 0);\r\n\r\n        // Require a valid rent price\r\n        require(_rentPrice > 0);\r\n        // Require a valid owner name\r\n        require(bytes(_ownerName).length > 0);\r\n        // Require a valid owner name\r\n        require(bytes(_renterName).length > 0);\r\n\r\n        // Increment retals count\r\n        rentalsCount++;\r\n        // Create the rental\r\n        rentals[rentalsCount] = Rental(\r\n            rentalsCount,\r\n            _vehicleVin,\r\n            payable(_owner),\r\n            payable(msg.sender),\r\n            _rentDates,\r\n            _rentPrice,\r\n            _status,\r\n            _ownerName,\r\n            _renterName\r\n        );\r\n        // Trigger an event\r\n        emit RentalCreated(\r\n            rentalsCount,\r\n            _vehicleVin,\r\n            payable(_owner),\r\n            payable(msg.sender),\r\n            _rentDates,\r\n            _rentPrice,\r\n            _status\r\n        );\r\n\r\n    }\r\n\r\n    function updateRental(uint _id, string memory _status) public payable {\r\n        // this function purpose is to upadate the rental status in the follwing cases:\r\n        // 1. the rental status was updated to declined.\r\n        // 2. the rentl status was updated from waiting to approved by owner.\r\n\r\n        // Make sure the id is valid\r\n        require(_id > 0 && _id <= rentalsCount);\r\n\r\n        // fetch the rental by id\r\n        Rental memory _rental = rentals[_id];\r\n\r\n        // update the status\r\n        _rental.status = _status;\r\n\r\n        // Update the product\r\n        rentals[_id] = _rental;\r\n\r\n        // Trigger a rental update event\r\n        emit RentalUpdated(\r\n            _rental.id,\r\n            _rental.vehicleVin,\r\n            _rental.owner,\r\n            _rental.renter,\r\n            _rental.rentDates,\r\n            _rental.rentPrice,\r\n            _rental.status\r\n        );  \r\n    }\r\n\r\n    function rentalPayment(uint _id, string memory _status)payable public  {\r\n        // this function purpose is to upadate the rental status to approved (final approval by the renter)\r\n        // in this function we need to make the payment and update the status to approved in the contract\r\n\r\n        // Make sure the id is valid\r\n        require(_id > 0 && _id <= rentalsCount);\r\n\r\n        // fetch the rental by id\r\n        Rental memory _rental = rentals[_id];\r\n\r\n        // TODO: we will need to do this outside of the contract\r\n        // make sure the vehicle is available in the rental date\r\n        // check if the renter paying is the one that created the rental request\r\n\r\n\r\n        // make the paymenyt\r\n\r\n        // Fetch the owner\r\n        address payable _owner = _rental.owner;\r\n\r\n        // Require that there is enough Ether in the transaction\r\n        // require(msg.value >= _rental.rentPrice);\r\n\r\n        // Require that the buyer is not the seller\r\n        // require(_owner != msg.sender);\r\n\r\n        // Require that the buyer is the same one that created the rental request\r\n        // address payable _renter = _rental.renter;\r\n        // require(_renter == msg.sender);\r\n\r\n\r\n\r\n        // update the status and save\r\n        _rental.status = _status;\r\n\r\n        // Update the product\r\n        rentals[_id] = _rental;\r\n\r\n        // Pay the owner by sending them Ether\r\n        payable(_owner).transfer(msg.value);\r\n\r\n        // Trigger an event\r\n        emit RentalPayed(\r\n            _rental.id,\r\n            _rental.vehicleVin,\r\n            _rental.owner,\r\n            _rental.renter,\r\n            _rental.rentDates,\r\n            _rental.rentPrice,\r\n            _rental.status\r\n        );\r\n    }\r\n}\r\n",
  "sourcePath": "C:\\Users\\chenb\\final project\\blockchain-project\\src\\contracts\\Rentals.sol",
  "compiler": {
    "name": "solc",
    "version": "0.8.0+commit.c7dfd78e.Emscripten.clang"
  },
  "schemaVersion": "3.4.13",
  "updatedAt": "2023-07-07T13:39:49.357Z",
  "networkType": "ethereum",
  "devdoc": {
    "kind": "dev",
    "methods": {},
    "version": 1
  },
  "userdoc": {
    "kind": "user",
    "methods": {},
    "version": 1
  }
}