{
  "contractName": "Rentals",
  "abi": [
    {
      "inputs": [],
      "stateMutability": "nonpayable",
      "type": "constructor"
    },
    {
      "anonymous": false,
      "inputs": [
        {
          "indexed": false,
          "internalType": "uint256",
          "name": "id",
          "type": "uint256"
        },
        {
          "indexed": false,
          "internalType": "string",
          "name": "vehicleVin",
          "type": "string"
        },
        {
          "indexed": false,
          "internalType": "address payable",
          "name": "owner",
          "type": "address"
        },
        {
          "indexed": false,
          "internalType": "address payable",
          "name": "renter",
          "type": "address"
        },
        {
          "indexed": false,
          "internalType": "string",
          "name": "rentDates",
          "type": "string"
        },
        {
          "indexed": false,
          "internalType": "uint256",
          "name": "rentPrice",
          "type": "uint256"
        },
        {
          "indexed": false,
          "internalType": "string",
          "name": "status",
          "type": "string"
        }
      ],
      "name": "RentalCreated",
      "type": "event"
    },
    {
      "anonymous": false,
      "inputs": [
        {
          "indexed": false,
          "internalType": "uint256",
          "name": "id",
          "type": "uint256"
        },
        {
          "indexed": false,
          "internalType": "string",
          "name": "vehicleVin",
          "type": "string"
        },
        {
          "indexed": false,
          "internalType": "address payable",
          "name": "owner",
          "type": "address"
        },
        {
          "indexed": false,
          "internalType": "address payable",
          "name": "renter",
          "type": "address"
        },
        {
          "indexed": false,
          "internalType": "string",
          "name": "rentDates",
          "type": "string"
        },
        {
          "indexed": false,
          "internalType": "uint256",
          "name": "rentPrice",
          "type": "uint256"
        },
        {
          "indexed": false,
          "internalType": "string",
          "name": "status",
          "type": "string"
        }
      ],
      "name": "RentalPayed",
      "type": "event"
    },
    {
      "anonymous": false,
      "inputs": [
        {
          "indexed": false,
          "internalType": "uint256",
          "name": "id",
          "type": "uint256"
        },
        {
          "indexed": false,
          "internalType": "string",
          "name": "vehicleVin",
          "type": "string"
        },
        {
          "indexed": false,
          "internalType": "address payable",
          "name": "owner",
          "type": "address"
        },
        {
          "indexed": false,
          "internalType": "address payable",
          "name": "renter",
          "type": "address"
        },
        {
          "indexed": false,
          "internalType": "string",
          "name": "rentDates",
          "type": "string"
        },
        {
          "indexed": false,
          "internalType": "uint256",
          "name": "rentPrice",
          "type": "uint256"
        },
        {
          "indexed": false,
          "internalType": "string",
          "name": "status",
          "type": "string"
        }
      ],
      "name": "RentalUpdated",
      "type": "event"
    },
    {
      "inputs": [],
      "name": "name",
      "outputs": [
        {
          "internalType": "string",
          "name": "",
          "type": "string"
        }
      ],
      "stateMutability": "view",
      "type": "function",
      "constant": true
    },
    {
      "inputs": [
        {
          "internalType": "uint256",
          "name": "",
          "type": "uint256"
        }
      ],
      "name": "rentals",
      "outputs": [
        {
          "internalType": "uint256",
          "name": "id",
          "type": "uint256"
        },
        {
          "internalType": "string",
          "name": "vehicleVin",
          "type": "string"
        },
        {
          "internalType": "address payable",
          "name": "owner",
          "type": "address"
        },
        {
          "internalType": "address payable",
          "name": "renter",
          "type": "address"
        },
        {
          "internalType": "string",
          "name": "rentDates",
          "type": "string"
        },
        {
          "internalType": "uint256",
          "name": "rentPrice",
          "type": "uint256"
        },
        {
          "internalType": "string",
          "name": "status",
          "type": "string"
        }
      ],
      "stateMutability": "view",
      "type": "function",
      "constant": true
    },
    {
      "inputs": [],
      "name": "rentalsCount",
      "outputs": [
        {
          "internalType": "uint256",
          "name": "",
          "type": "uint256"
        }
      ],
      "stateMutability": "view",
      "type": "function",
      "constant": true
    },
    {
      "inputs": [
        {
          "internalType": "string",
          "name": "_vehicleVin",
          "type": "string"
        },
        {
          "internalType": "address",
          "name": "_owner",
          "type": "address"
        },
        {
          "internalType": "string",
          "name": "_rentDates",
          "type": "string"
        },
        {
          "internalType": "uint256",
          "name": "_rentPrice",
          "type": "uint256"
        },
        {
          "internalType": "string",
          "name": "_status",
          "type": "string"
        }
      ],
      "name": "createRental",
      "outputs": [],
      "stateMutability": "nonpayable",
      "type": "function"
    },
    {
      "inputs": [
        {
          "internalType": "uint256",
          "name": "_id",
          "type": "uint256"
        },
        {
          "internalType": "string",
          "name": "_status",
          "type": "string"
        }
      ],
      "name": "updateRental",
      "outputs": [],
      "stateMutability": "payable",
      "type": "function",
      "payable": true
    },
    {
      "inputs": [
        {
          "internalType": "uint256",
          "name": "_id",
          "type": "uint256"
        },
        {
          "internalType": "string",
          "name": "_status",
          "type": "string"
        }
      ],
      "name": "rentalPayment",
      "outputs": [],
      "stateMutability": "payable",
      "type": "function",
      "payable": true
    }
  ],
  "bytecode": "0x608060405260006001553480156200001657600080fd5b506040518060400160405280601b81526020017f4368656e20262059617264656e2066696e616c2070726f6a656374000000000081525060009080519060200190620000649291906200006b565b5062000180565b82805462000079906200011b565b90600052602060002090601f0160209004810192826200009d5760008555620000e9565b82601f10620000b857805160ff1916838001178555620000e9565b82800160010185558215620000e9579182015b82811115620000e8578251825591602001919060010190620000cb565b5b509050620000f89190620000fc565b5090565b5b8082111562000117576000816000905550600101620000fd565b5090565b600060028204905060018216806200013457607f821691505b602082108114156200014b576200014a62000151565b5b50919050565b7f4e487b7100000000000000000000000000000000000000000000000000000000600052602260045260246000fd5b6114c980620001906000396000f3fe6080604052600436106100555760003560e01c806306fdde031461005a578063a14dcd6f14610085578063ad870473146100b0578063adf446e4146100cc578063af94a1d1146100e8578063d70fb6a11461012b575b600080fd5b34801561006657600080fd5b5061006f610154565b60405161007c919061117e565b60405180910390f35b34801561009157600080fd5b5061009a6101e2565b6040516100a791906111a0565b60405180910390f35b6100ca60048036038101906100c591906110d3565b6101e8565b005b6100e660048036038101906100e191906110d3565b610618565b005b3480156100f457600080fd5b5061010f600480360381019061010a91906110aa565b610a9d565b60405161012297969594939291906111bb565b60405180910390f35b34801561013757600080fd5b50610152600480360381019061014d9190610feb565b610cb7565b005b600080546101619061134c565b80601f016020809104026020016040519081016040528092919081815260200182805461018d9061134c565b80156101da5780601f106101af576101008083540402835291602001916101da565b820191906000526020600020905b8154815290600101906020018083116101bd57829003601f168201915b505050505081565b60015481565b6000821180156101fa57506001548211155b61020357600080fd5b6000600260008481526020019081526020016000206040518060e00160405290816000820154815260200160018201805461023d9061134c565b80601f01602080910402602001604051908101604052809291908181526020018280546102699061134c565b80156102b65780601f1061028b576101008083540402835291602001916102b6565b820191906000526020600020905b81548152906001019060200180831161029957829003601f168201915b505050505081526020016002820160009054906101000a900473ffffffffffffffffffffffffffffffffffffffff1673ffffffffffffffffffffffffffffffffffffffff1673ffffffffffffffffffffffffffffffffffffffff1681526020016003820160009054906101000a900473ffffffffffffffffffffffffffffffffffffffff1673ffffffffffffffffffffffffffffffffffffffff1673ffffffffffffffffffffffffffffffffffffffff16815260200160048201805461037b9061134c565b80601f01602080910402602001604051908101604052809291908181526020018280546103a79061134c565b80156103f45780601f106103c9576101008083540402835291602001916103f4565b820191906000526020600020905b8154815290600101906020018083116103d757829003601f168201915b50505050508152602001600582015481526020016006820180546104179061134c565b80601f01602080910402602001604051908101604052809291908181526020018280546104439061134c565b80156104905780601f1061046557610100808354040283529160200191610490565b820191906000526020600020905b81548152906001019060200180831161047357829003601f168201915b5050505050815250509050818160c0018190525080600260008581526020019081526020016000206000820151816000015560208201518160010190805190602001906104de929190610eb6565b5060408201518160020160006101000a81548173ffffffffffffffffffffffffffffffffffffffff021916908373ffffffffffffffffffffffffffffffffffffffff16021790555060608201518160030160006101000a81548173ffffffffffffffffffffffffffffffffffffffff021916908373ffffffffffffffffffffffffffffffffffffffff1602179055506080820151816004019080519060200190610589929190610eb6565b5060a0820151816005015560c08201518160060190805190602001906105b0929190610eb6565b509050507f676c24343d58de3cafe6f7bc7cb8761300e59cc1cf9849be7e4fd981e4ee9b9e816000015182602001518360400151846060015185608001518660a001518760c0015160405161060b97969594939291906111bb565b60405180910390a1505050565b60008211801561062a57506001548211155b61063357600080fd5b6000600260008481526020019081526020016000206040518060e00160405290816000820154815260200160018201805461066d9061134c565b80601f01602080910402602001604051908101604052809291908181526020018280546106999061134c565b80156106e65780601f106106bb576101008083540402835291602001916106e6565b820191906000526020600020905b8154815290600101906020018083116106c957829003601f168201915b505050505081526020016002820160009054906101000a900473ffffffffffffffffffffffffffffffffffffffff1673ffffffffffffffffffffffffffffffffffffffff1673ffffffffffffffffffffffffffffffffffffffff1681526020016003820160009054906101000a900473ffffffffffffffffffffffffffffffffffffffff1673ffffffffffffffffffffffffffffffffffffffff1673ffffffffffffffffffffffffffffffffffffffff1681526020016004820180546107ab9061134c565b80601f01602080910402602001604051908101604052809291908181526020018280546107d79061134c565b80156108245780601f106107f957610100808354040283529160200191610824565b820191906000526020600020905b81548152906001019060200180831161080757829003601f168201915b50505050508152602001600582015481526020016006820180546108479061134c565b80601f01602080910402602001604051908101604052809291908181526020018280546108739061134c565b80156108c05780601f10610895576101008083540402835291602001916108c0565b820191906000526020600020905b8154815290600101906020018083116108a357829003601f168201915b50505050508152505090506000816040015190508073ffffffffffffffffffffffffffffffffffffffff166108fc8360a001519081150290604051600060405180830381858888f1935050505015801561091e573d6000803e3d6000fd5b50828260c001819052508160026000868152602001908152602001600020600082015181600001556020820151816001019080519060200190610962929190610eb6565b5060408201518160020160006101000a81548173ffffffffffffffffffffffffffffffffffffffff021916908373ffffffffffffffffffffffffffffffffffffffff16021790555060608201518160030160006101000a81548173ffffffffffffffffffffffffffffffffffffffff021916908373ffffffffffffffffffffffffffffffffffffffff1602179055506080820151816004019080519060200190610a0d929190610eb6565b5060a0820151816005015560c0820151816006019080519060200190610a34929190610eb6565b509050507fdff58ea8cd233d50224c765812b18a05b238b3a0e26be65e7772610df40d9f1e826000015183602001518460400151856060015186608001518760a001518860c00151604051610a8f97969594939291906111bb565b60405180910390a150505050565b6002602052806000526040600020600091509050806000015490806001018054610ac69061134c565b80601f0160208091040260200160405190810160405280929190818152602001828054610af29061134c565b8015610b3f5780601f10610b1457610100808354040283529160200191610b3f565b820191906000526020600020905b815481529060010190602001808311610b2257829003601f168201915b5050505050908060020160009054906101000a900473ffffffffffffffffffffffffffffffffffffffff16908060030160009054906101000a900473ffffffffffffffffffffffffffffffffffffffff1690806004018054610ba09061134c565b80601f0160208091040260200160405190810160405280929190818152602001828054610bcc9061134c565b8015610c195780601f10610bee57610100808354040283529160200191610c19565b820191906000526020600020905b815481529060010190602001808311610bfc57829003601f168201915b505050505090806005015490806006018054610c349061134c565b80601f0160208091040260200160405190810160405280929190818152602001828054610c609061134c565b8015610cad5780601f10610c8257610100808354040283529160200191610cad565b820191906000526020600020905b815481529060010190602001808311610c9057829003601f168201915b5050505050905087565b6000855111610cc557600080fd5b6000835111610cd357600080fd5b60008211610ce057600080fd5b60016000815480929190610cf39061137e565b91905055506040518060e0016040528060015481526020018681526020018573ffffffffffffffffffffffffffffffffffffffff1681526020013373ffffffffffffffffffffffffffffffffffffffff16815260200184815260200183815260200182815250600260006001548152602001908152602001600020600082015181600001556020820151816001019080519060200190610d94929190610eb6565b5060408201518160020160006101000a81548173ffffffffffffffffffffffffffffffffffffffff021916908373ffffffffffffffffffffffffffffffffffffffff16021790555060608201518160030160006101000a81548173ffffffffffffffffffffffffffffffffffffffff021916908373ffffffffffffffffffffffffffffffffffffffff1602179055506080820151816004019080519060200190610e3f929190610eb6565b5060a0820151816005015560c0820151816006019080519060200190610e66929190610eb6565b509050507f98bf84aa8cc415d4a3aa73bbe0d1f0a8f987bd4509f46bcaefeee09e896630eb600154868633878787604051610ea797969594939291906111bb565b60405180910390a15050505050565b828054610ec29061134c565b90600052602060002090601f016020900481019282610ee45760008555610f2b565b82601f10610efd57805160ff1916838001178555610f2b565b82800160010185558215610f2b579182015b82811115610f2a578251825591602001919060010190610f0f565b5b509050610f389190610f3c565b5090565b5b80821115610f55576000816000905550600101610f3d565b5090565b6000610f6c610f6784611270565b61123f565b905082815260208101848484011115610f8457600080fd5b610f8f84828561130a565b509392505050565b600081359050610fa681611465565b92915050565b600082601f830112610fbd57600080fd5b8135610fcd848260208601610f59565b91505092915050565b600081359050610fe58161147c565b92915050565b600080600080600060a0868803121561100357600080fd5b600086013567ffffffffffffffff81111561101d57600080fd5b61102988828901610fac565b955050602061103a88828901610f97565b945050604086013567ffffffffffffffff81111561105757600080fd5b61106388828901610fac565b935050606061107488828901610fd6565b925050608086013567ffffffffffffffff81111561109157600080fd5b61109d88828901610fac565b9150509295509295909350565b6000602082840312156110bc57600080fd5b60006110ca84828501610fd6565b91505092915050565b600080604083850312156110e657600080fd5b60006110f485828601610fd6565b925050602083013567ffffffffffffffff81111561111157600080fd5b61111d85828601610fac565b9150509250929050565b611130816112ce565b82525050565b6000611141826112a0565b61114b81856112ab565b935061115b818560208601611319565b61116481611454565b840191505092915050565b61117881611300565b82525050565b600060208201905081810360008301526111988184611136565b905092915050565b60006020820190506111b5600083018461116f565b92915050565b600060e0820190506111d0600083018a61116f565b81810360208301526111e28189611136565b90506111f16040830188611127565b6111fe6060830187611127565b81810360808301526112108186611136565b905061121f60a083018561116f565b81810360c08301526112318184611136565b905098975050505050505050565b6000604051905081810181811067ffffffffffffffff8211171561126657611265611425565b5b8060405250919050565b600067ffffffffffffffff82111561128b5761128a611425565b5b601f19601f8301169050602081019050919050565b600081519050919050565b600082825260208201905092915050565b60006112c7826112e0565b9050919050565b60006112d9826112e0565b9050919050565b600073ffffffffffffffffffffffffffffffffffffffff82169050919050565b6000819050919050565b82818337600083830152505050565b60005b8381101561133757808201518184015260208101905061131c565b83811115611346576000848401525b50505050565b6000600282049050600182168061136457607f821691505b60208210811415611378576113776113f6565b5b50919050565b600061138982611300565b91507fffffffffffffffffffffffffffffffffffffffffffffffffffffffffffffffff8214156113bc576113bb6113c7565b5b600182019050919050565b7f4e487b7100000000000000000000000000000000000000000000000000000000600052601160045260246000fd5b7f4e487b7100000000000000000000000000000000000000000000000000000000600052602260045260246000fd5b7f4e487b7100000000000000000000000000000000000000000000000000000000600052604160045260246000fd5b6000601f19601f8301169050919050565b61146e816112bc565b811461147957600080fd5b50565b61148581611300565b811461149057600080fd5b5056fea26469706673582212204c6eb37624e7521e6a61d157261d767e631a6bb6d72d0ada59b0cb31fe4d9a4f64736f6c63430008000033",
  "immutableReferences": {},
  "source": "// SPDX-License-Identifier: GPL-3.0\r\npragma solidity >=0.5.0 <0.9.0;\r\n\r\ncontract Rentals {\r\n    string public name;\r\n    uint public rentalsCount = 0;\r\n    mapping(uint => Rental) public rentals;\r\n\r\n    struct Rental {\r\n        uint id;\r\n        string vehicleVin;\r\n        address payable owner;\r\n        address payable renter;\r\n        string rentDates;\r\n        uint rentPrice;\r\n        string status;\r\n    }\r\n\r\n    event RentalCreated(\r\n        uint id,\r\n        string vehicleVin,\r\n        address payable owner,\r\n        address payable renter,\r\n        string rentDates,\r\n        uint rentPrice,\r\n        string status\r\n    );\r\n\r\n    event RentalUpdated(\r\n        uint id,\r\n        string vehicleVin,\r\n        address payable owner,\r\n        address payable renter,\r\n        string rentDates,\r\n        uint rentPrice,\r\n        string status\r\n    );\r\n\r\n    event RentalPayed(\r\n        uint id,\r\n        string vehicleVin,\r\n        address payable owner,\r\n        address payable renter,\r\n        string rentDates,\r\n        uint rentPrice,\r\n        string status\r\n    );\r\n\r\n    constructor() public {\r\n        name = \"Chen & Yarden final project\";\r\n    }\r\n\r\n    function createRental(string memory _vehicleVin, address _owner, string memory _rentDates, uint _rentPrice, string memory _status) public {\r\n        // Require a valid vehicle vin\r\n        require(bytes(_vehicleVin).length > 0);\r\n    \r\n        // Require a valid rent dates\r\n        require(bytes(_rentDates).length > 0);\r\n\r\n        // Require a valid rent price\r\n        require(_rentPrice > 0);\r\n\r\n        // Increment retals count\r\n        rentalsCount++;\r\n        // Create the rental\r\n        rentals[rentalsCount] = Rental(\r\n            rentalsCount,\r\n            _vehicleVin,\r\n            payable(_owner),\r\n            payable(msg.sender),\r\n            _rentDates,\r\n            _rentPrice,\r\n            _status\r\n        );\r\n        // Trigger an event\r\n        emit RentalCreated(\r\n            rentalsCount,\r\n            _vehicleVin,\r\n            payable(_owner),\r\n            payable(msg.sender),\r\n            _rentDates,\r\n            _rentPrice,\r\n            _status\r\n        );\r\n\r\n    }\r\n\r\n    function updateRental(uint _id, string memory _status) public payable {\r\n        // this function purpose is to upadate the rental status in the follwing cases:\r\n        // 1. the rental status was updated to declined.\r\n        // 2. the rentl status was updated from waiting to approved by owner.\r\n\r\n        // Make sure the id is valid\r\n        require(_id > 0 && _id <= rentalsCount);\r\n\r\n        // fetch the rental by id\r\n        Rental memory _rental = rentals[_id];\r\n\r\n        // update the status\r\n        _rental.status = _status;\r\n\r\n        // Update the product\r\n        rentals[_id] = _rental;\r\n\r\n        // Trigger a rental update event\r\n        emit RentalUpdated(\r\n            _rental.id,\r\n            _rental.vehicleVin,\r\n            _rental.owner,\r\n            _rental.renter,\r\n            _rental.rentDates,\r\n            _rental.rentPrice,\r\n            _rental.status\r\n        );  \r\n    }\r\n\r\n    function rentalPayment(uint _id, string memory _status) public payable {\r\n        // this function purpose is to upadate the rental status to approved (final approval by the renter)\r\n        // in this function we need to make the payment and update the status to approved in the contract\r\n\r\n        // Make sure the id is valid\r\n        require(_id > 0 && _id <= rentalsCount);\r\n\r\n        // fetch the rental by id\r\n        Rental memory _rental = rentals[_id];\r\n\r\n        // TODO: we will need to do this outside of the contract\r\n        // make sure the vehicle is available in the rental date\r\n        // check if the renter paying is the one that created the rental request\r\n\r\n\r\n        // make the paymenyt\r\n\r\n        // Fetch the owner\r\n        address payable _owner = _rental.owner;\r\n\r\n        // Require that there is enough Ether in the transaction\r\n        // require(msg.value >= _rental.rentPrice);\r\n\r\n        // Require that the buyer is not the seller\r\n        // require(_owner != msg.sender);\r\n\r\n        // Require that the buyer is the same one that created the rental request\r\n        // address payable _renter = _rental.renter;\r\n        // require(_renter == msg.sender);\r\n\r\n\r\n        // Pay the owner by sending them Ether\r\n        payable(address(_owner)).transfer(_rental.rentPrice);\r\n\r\n        // update the status and save\r\n        _rental.status = _status;\r\n\r\n        // Update the product\r\n        rentals[_id] = _rental;\r\n\r\n\r\n        // Trigger an event\r\n        emit RentalPayed(\r\n            _rental.id,\r\n            _rental.vehicleVin,\r\n            _rental.owner,\r\n            _rental.renter,\r\n            _rental.rentDates,\r\n            _rental.rentPrice,\r\n            _rental.status\r\n        );\r\n    }\r\n}\r\n",
  "sourcePath": "C:\\Users\\hovav\\finalproject\\src\\contracts\\Rentals.sol",
  "compiler": {
    "name": "solc",
    "version": "0.8.0+commit.c7dfd78e.Emscripten.clang"
  },
  "schemaVersion": "3.4.13",
  "updatedAt": "2023-06-25T12:34:32.632Z",
  "networkType": "ethereum",
  "devdoc": {
    "kind": "dev",
    "methods": {},
    "version": 1
  },
  "userdoc": {
    "kind": "user",
    "methods": {},
    "version": 1
  }
}