{
    "contractName": "Rentals",
    "abi": [
        {
            "inputs": [],
            "stateMutability": "nonpayable",
            "type": "constructor"
        },
        {
            "anonymous": false,
            "inputs": [
                {
                    "indexed": false,
                    "internalType": "uint256",
                    "name": "id",
                    "type": "uint256"
                },
                {
                    "indexed": false,
                    "internalType": "string",
                    "name": "vehicleVin",
                    "type": "string"
                },
                {
                    "indexed": false,
                    "internalType": "address payable",
                    "name": "owner",
                    "type": "address"
                },
                {
                    "indexed": false,
                    "internalType": "address payable",
                    "name": "renter",
                    "type": "address"
                },
                {
                    "indexed": false,
                    "internalType": "string",
                    "name": "rentDates",
                    "type": "string"
                },
                {
                    "indexed": false,
                    "internalType": "uint256",
                    "name": "rentPrice",
                    "type": "uint256"
                },
                {
                    "indexed": false,
                    "internalType": "string",
                    "name": "status",
                    "type": "string"
                }
            ],
            "name": "RentalCreated",
            "type": "event"
        },
        {
            "anonymous": false,
            "inputs": [
                {
                    "indexed": false,
                    "internalType": "uint256",
                    "name": "id",
                    "type": "uint256"
                },
                {
                    "indexed": false,
                    "internalType": "string",
                    "name": "vehicleVin",
                    "type": "string"
                },
                {
                    "indexed": false,
                    "internalType": "address payable",
                    "name": "owner",
                    "type": "address"
                },
                {
                    "indexed": false,
                    "internalType": "address payable",
                    "name": "renter",
                    "type": "address"
                },
                {
                    "indexed": false,
                    "internalType": "string",
                    "name": "rentDates",
                    "type": "string"
                },
                {
                    "indexed": false,
                    "internalType": "uint256",
                    "name": "rentPrice",
                    "type": "uint256"
                },
                {
                    "indexed": false,
                    "internalType": "string",
                    "name": "status",
                    "type": "string"
                }
            ],
            "name": "RentalUpdated",
            "type": "event"
        },
        {
            "inputs": [],
            "name": "name",
            "outputs": [
                {
                    "internalType": "string",
                    "name": "",
                    "type": "string"
                }
            ],
            "stateMutability": "view",
            "type": "function",
            "constant": true
        },
        {
            "inputs": [
                {
                    "internalType": "uint256",
                    "name": "",
                    "type": "uint256"
                }
            ],
            "name": "rentals",
            "outputs": [
                {
                    "internalType": "uint256",
                    "name": "id",
                    "type": "uint256"
                },
                {
                    "internalType": "string",
                    "name": "vehicleVin",
                    "type": "string"
                },
                {
                    "internalType": "address payable",
                    "name": "owner",
                    "type": "address"
                },
                {
                    "internalType": "address payable",
                    "name": "renter",
                    "type": "address"
                },
                {
                    "internalType": "string",
                    "name": "rentDates",
                    "type": "string"
                },
                {
                    "internalType": "uint256",
                    "name": "rentPrice",
                    "type": "uint256"
                },
                {
                    "internalType": "string",
                    "name": "status",
                    "type": "string"
                }
            ],
            "stateMutability": "view",
            "type": "function",
            "constant": true
        },
        {
            "inputs": [],
            "name": "rentalsCount",
            "outputs": [
                {
                    "internalType": "uint256",
                    "name": "",
                    "type": "uint256"
                }
            ],
            "stateMutability": "view",
            "type": "function",
            "constant": true
        },
        {
            "inputs": [
                {
                    "internalType": "string",
                    "name": "_vehicleVin",
                    "type": "string"
                },
                {
                    "internalType": "address",
                    "name": "_owner",
                    "type": "address"
                },
                {
                    "internalType": "string",
                    "name": "_rentDates",
                    "type": "string"
                },
                {
                    "internalType": "uint256",
                    "name": "_rentPrice",
                    "type": "uint256"
                },
                {
                    "internalType": "string",
                    "name": "_status",
                    "type": "string"
                }
            ],
            "name": "createRental",
            "outputs": [],
            "stateMutability": "nonpayable",
            "type": "function"
        }
    ],
    "bytecode": "0x6080604052600060015534801561001557600080fd5b506040518060400160405280601b81526020017f4368656e20262059617264656e2066696e616c2070726f6a656374000000000081525060009080519060200190610061929190610067565b5061016b565b8280546100739061010a565b90600052602060002090601f01602090048101928261009557600085556100dc565b82601f106100ae57805160ff19168380011785556100dc565b828001600101855582156100dc579182015b828111156100db5782518255916020019190600101906100c0565b5b5090506100e991906100ed565b5090565b5b808211156101065760008160009055506001016100ee565b5090565b6000600282049050600182168061012257607f821691505b602082108114156101365761013561013c565b5b50919050565b7f4e487b7100000000000000000000000000000000000000000000000000000000600052602260045260246000fd5b610b4b806200017b6000396000f3fe608060405234801561001057600080fd5b506004361061004c5760003560e01c806306fdde0314610051578063a14dcd6f1461006f578063af94a1d11461008d578063d70fb6a1146100c3575b600080fd5b6100596100df565b6040516100669190610800565b60405180910390f35b61007761016d565b6040516100849190610822565b60405180910390f35b6100a760048036038101906100a29190610780565b610173565b6040516100ba979695949392919061083d565b60405180910390f35b6100dd60048036038101906100d891906106c1565b61038d565b005b600080546100ec906109ce565b80601f0160208091040260200160405190810160405280929190818152602001828054610118906109ce565b80156101655780601f1061013a57610100808354040283529160200191610165565b820191906000526020600020905b81548152906001019060200180831161014857829003601f168201915b505050505081565b60015481565b600260205280600052604060002060009150905080600001549080600101805461019c906109ce565b80601f01602080910402602001604051908101604052809291908181526020018280546101c8906109ce565b80156102155780601f106101ea57610100808354040283529160200191610215565b820191906000526020600020905b8154815290600101906020018083116101f857829003601f168201915b5050505050908060020160009054906101000a900473ffffffffffffffffffffffffffffffffffffffff16908060030160009054906101000a900473ffffffffffffffffffffffffffffffffffffffff1690806004018054610276906109ce565b80601f01602080910402602001604051908101604052809291908181526020018280546102a2906109ce565b80156102ef5780601f106102c4576101008083540402835291602001916102ef565b820191906000526020600020905b8154815290600101906020018083116102d257829003601f168201915b50505050509080600501549080600601805461030a906109ce565b80601f0160208091040260200160405190810160405280929190818152602001828054610336906109ce565b80156103835780601f1061035857610100808354040283529160200191610383565b820191906000526020600020905b81548152906001019060200180831161036657829003601f168201915b5050505050905087565b600085511161039b57600080fd5b60008351116103a957600080fd5b600082116103b657600080fd5b600160008154809291906103c990610a00565b91905055506040518060e0016040528060015481526020018681526020018573ffffffffffffffffffffffffffffffffffffffff1681526020013373ffffffffffffffffffffffffffffffffffffffff1681526020018481526020018381526020018281525060026000600154815260200190815260200160002060008201518160000155602082015181600101908051906020019061046a92919061058c565b5060408201518160020160006101000a81548173ffffffffffffffffffffffffffffffffffffffff021916908373ffffffffffffffffffffffffffffffffffffffff16021790555060608201518160030160006101000a81548173ffffffffffffffffffffffffffffffffffffffff021916908373ffffffffffffffffffffffffffffffffffffffff160217905550608082015181600401908051906020019061051592919061058c565b5060a0820151816005015560c082015181600601908051906020019061053c92919061058c565b509050507f98bf84aa8cc415d4a3aa73bbe0d1f0a8f987bd4509f46bcaefeee09e896630eb60015486863387878760405161057d979695949392919061083d565b60405180910390a15050505050565b828054610598906109ce565b90600052602060002090601f0160209004810192826105ba5760008555610601565b82601f106105d357805160ff1916838001178555610601565b82800160010185558215610601579182015b828111156106005782518255916020019190600101906105e5565b5b50905061060e9190610612565b5090565b5b8082111561062b576000816000905550600101610613565b5090565b600061064261063d846108f2565b6108c1565b90508281526020810184848401111561065a57600080fd5b61066584828561098c565b509392505050565b60008135905061067c81610ae7565b92915050565b600082601f83011261069357600080fd5b81356106a384826020860161062f565b91505092915050565b6000813590506106bb81610afe565b92915050565b600080600080600060a086880312156106d957600080fd5b600086013567ffffffffffffffff8111156106f357600080fd5b6106ff88828901610682565b95505060206107108882890161066d565b945050604086013567ffffffffffffffff81111561072d57600080fd5b61073988828901610682565b935050606061074a888289016106ac565b925050608086013567ffffffffffffffff81111561076757600080fd5b61077388828901610682565b9150509295509295909350565b60006020828403121561079257600080fd5b60006107a0848285016106ac565b91505092915050565b6107b281610950565b82525050565b60006107c382610922565b6107cd818561092d565b93506107dd81856020860161099b565b6107e681610ad6565b840191505092915050565b6107fa81610982565b82525050565b6000602082019050818103600083015261081a81846107b8565b905092915050565b600060208201905061083760008301846107f1565b92915050565b600060e082019050610852600083018a6107f1565b818103602083015261086481896107b8565b905061087360408301886107a9565b61088060608301876107a9565b818103608083015261089281866107b8565b90506108a160a08301856107f1565b81810360c08301526108b381846107b8565b905098975050505050505050565b6000604051905081810181811067ffffffffffffffff821117156108e8576108e7610aa7565b5b8060405250919050565b600067ffffffffffffffff82111561090d5761090c610aa7565b5b601f19601f8301169050602081019050919050565b600081519050919050565b600082825260208201905092915050565b600061094982610962565b9050919050565b600061095b82610962565b9050919050565b600073ffffffffffffffffffffffffffffffffffffffff82169050919050565b6000819050919050565b82818337600083830152505050565b60005b838110156109b957808201518184015260208101905061099e565b838111156109c8576000848401525b50505050565b600060028204905060018216806109e657607f821691505b602082108114156109fa576109f9610a78565b5b50919050565b6000610a0b82610982565b91507fffffffffffffffffffffffffffffffffffffffffffffffffffffffffffffffff821415610a3e57610a3d610a49565b5b600182019050919050565b7f4e487b7100000000000000000000000000000000000000000000000000000000600052601160045260246000fd5b7f4e487b7100000000000000000000000000000000000000000000000000000000600052602260045260246000fd5b7f4e487b7100000000000000000000000000000000000000000000000000000000600052604160045260246000fd5b6000601f19601f8301169050919050565b610af08161093e565b8114610afb57600080fd5b50565b610b0781610982565b8114610b1257600080fd5b5056fea2646970667358221220c318af2cb8b08982526d922632454e6debcd41cfb95945c3fc010e1b1864fd0064736f6c63430008000033",
    "immutableReferences": {},
    "source": "// SPDX-License-Identifier: GPL-3.0\r\npragma solidity >=0.5.0 <0.9.0;\r\n\r\ncontract Rentals {\r\n    string public name;\r\n    uint public rentalsCount = 0;\r\n    mapping(uint => Rental) public rentals;\r\n\r\n    struct Rental {\r\n        uint id;\r\n        string vehicleVin;\r\n        address payable owner;\r\n        address payable renter;\r\n        string rentDates;\r\n        uint rentPrice;\r\n        string status;\r\n    }\r\n\r\n    event RentalCreated(\r\n        uint id,\r\n        string vehicleVin,\r\n        address payable owner,\r\n        address payable renter,\r\n        string rentDates,\r\n        uint rentPrice,\r\n        string status\r\n    );\r\n\r\n    event RentalUpdated(\r\n        uint id,\r\n        string vehicleVin,\r\n        address payable owner,\r\n        address payable renter,\r\n        string rentDates,\r\n        uint rentPrice,\r\n        string status\r\n    );\r\n\r\n    constructor() public {\r\n        name = \"Chen & Yarden final project\";\r\n    }\r\n\r\n    function createRental(string memory _vehicleVin, address _owner, string memory _rentDates, uint _rentPrice, string memory _status) public {\r\n        // Require a valid vehicle vin\r\n        require(bytes(_vehicleVin).length > 0);\r\n    \r\n        // Require a valid rent dates\r\n        require(bytes(_rentDates).length > 0);\r\n\r\n        // Require a valid rent price\r\n        require(_rentPrice > 0);\r\n\r\n        // Increment retals count\r\n        rentalsCount++;\r\n        // Create the rental\r\n        rentals[rentalsCount] = Rental(\r\n            rentalsCount,\r\n            _vehicleVin,\r\n            payable(_owner),\r\n            payable(msg.sender),\r\n            _rentDates,\r\n            _rentPrice,\r\n            _status\r\n        );\r\n        // Trigger an event\r\n        emit RentalCreated(\r\n            rentalsCount,\r\n            _vehicleVin,\r\n            payable(_owner),\r\n            payable(msg.sender),\r\n            _rentDates,\r\n            _rentPrice,\r\n            _status\r\n        );\r\n    }\r\n\r\n    function updateRental(uint _id, string memory _approved) public payable {\r\n\r\n\r\n        // // Fetch the product\r\n        // Document memory _document = documentations[_id];\r\n        // // Make sure the product has a valid id\r\n        // require(_document.id > 0 && _document.id <= documentationsCount);\r\n\r\n        // //TODO -   msg.sender     \r\n        // // Mark as approved\r\n        // _document.approved = _approved;\r\n        // // Update the product\r\n        // documentations[_id] = _document;\r\n        // // Trigger an event\r\n\r\n\r\n        // // check if the renter paying is the one that created the rental request\r\n        // emit DocumentUpdated(\r\n        //     documentationsCount,\r\n        //     _document.vehicleVin,\r\n        //     _document.garageBnNumber,\r\n        //     _document.description,\r\n        //     _document.date,\r\n        //     _approved\r\n        // );\r\n    }\r\n\r\n}\r\n",
    "sourcePath": "C:\\Users\\hovav\\finalproject\\src\\contracts\\Rentals.sol",
    "compiler": {
        "name": "solc",
        "version": "0.8.0+commit.c7dfd78e.Emscripten.clang"
    },
    "schemaVersion": "3.4.13",
    "updatedAt": "2023-06-23T13:35:20.295Z",
    "networkType": "ethereum",
    "devdoc": {
        "kind": "dev",
        "methods": {},
        "version": 1
    },
    "userdoc": {
        "kind": "user",
        "methods": {},
        "version": 1
    }
}