{
  "contractName": "Users",
  "abi": [
    {
      "inputs": [],
      "stateMutability": "nonpayable",
      "type": "constructor"
    },
    {
      "anonymous": false,
      "inputs": [
        {
          "indexed": false,
          "internalType": "string",
          "name": "userAddress",
          "type": "string"
        },
        {
          "indexed": false,
          "internalType": "string",
          "name": "fullName",
          "type": "string"
        },
        {
          "indexed": false,
          "internalType": "string",
          "name": "emailAddress",
          "type": "string"
        },
        {
          "indexed": false,
          "internalType": "uint256",
          "name": "age",
          "type": "uint256"
        },
        {
          "indexed": false,
          "internalType": "string",
          "name": "picture",
          "type": "string"
        },
        {
          "indexed": false,
          "internalType": "string",
          "name": "IDnumber",
          "type": "string"
        },
        {
          "indexed": false,
          "internalType": "string",
          "name": "password",
          "type": "string"
        }
      ],
      "name": "UserCreated",
      "type": "event"
    },
    {
      "anonymous": false,
      "inputs": [
        {
          "indexed": false,
          "internalType": "string",
          "name": "fullName",
          "type": "string"
        },
        {
          "indexed": false,
          "internalType": "string",
          "name": "emailAddress",
          "type": "string"
        },
        {
          "indexed": false,
          "internalType": "uint256",
          "name": "age",
          "type": "uint256"
        },
        {
          "indexed": false,
          "internalType": "string",
          "name": "picture",
          "type": "string"
        },
        {
          "indexed": false,
          "internalType": "string",
          "name": "password",
          "type": "string"
        }
      ],
      "name": "UserUpdated",
      "type": "event"
    },
    {
      "inputs": [],
      "name": "name",
      "outputs": [
        {
          "internalType": "string",
          "name": "",
          "type": "string"
        }
      ],
      "stateMutability": "view",
      "type": "function",
      "constant": true
    },
    {
      "inputs": [
        {
          "internalType": "uint256",
          "name": "",
          "type": "uint256"
        }
      ],
      "name": "users",
      "outputs": [
        {
          "internalType": "string",
          "name": "userAddress",
          "type": "string"
        },
        {
          "internalType": "string",
          "name": "fullName",
          "type": "string"
        },
        {
          "internalType": "string",
          "name": "emailAddress",
          "type": "string"
        },
        {
          "internalType": "uint256",
          "name": "age",
          "type": "uint256"
        },
        {
          "internalType": "string",
          "name": "picture",
          "type": "string"
        },
        {
          "internalType": "string",
          "name": "IDnumber",
          "type": "string"
        },
        {
          "internalType": "string",
          "name": "password",
          "type": "string"
        }
      ],
      "stateMutability": "view",
      "type": "function",
      "constant": true
    },
    {
      "inputs": [],
      "name": "usersCount",
      "outputs": [
        {
          "internalType": "uint256",
          "name": "",
          "type": "uint256"
        }
      ],
      "stateMutability": "view",
      "type": "function",
      "constant": true
    },
    {
      "inputs": [
        {
          "internalType": "string",
          "name": "_userAddress",
          "type": "string"
        },
        {
          "internalType": "string",
          "name": "_fullName",
          "type": "string"
        },
        {
          "internalType": "string",
          "name": "_emailAddress",
          "type": "string"
        },
        {
          "internalType": "uint256",
          "name": "_age",
          "type": "uint256"
        },
        {
          "internalType": "string",
          "name": "_picture",
          "type": "string"
        },
        {
          "internalType": "string",
          "name": "_IDnumber",
          "type": "string"
        },
        {
          "internalType": "string",
          "name": "_password",
          "type": "string"
        }
      ],
      "name": "createUser",
      "outputs": [],
      "stateMutability": "nonpayable",
      "type": "function"
    },
    {
      "inputs": [
        {
          "internalType": "uint256",
          "name": "_index",
          "type": "uint256"
        },
        {
          "internalType": "string",
          "name": "_userAddress",
          "type": "string"
        },
        {
          "internalType": "string",
          "name": "_IDnumber",
          "type": "string"
        },
        {
          "internalType": "string",
          "name": "_fullName",
          "type": "string"
        },
        {
          "internalType": "string",
          "name": "_emailAddress",
          "type": "string"
        },
        {
          "internalType": "uint256",
          "name": "_age",
          "type": "uint256"
        },
        {
          "internalType": "string",
          "name": "_picture",
          "type": "string"
        },
        {
          "internalType": "string",
          "name": "_password",
          "type": "string"
        }
      ],
      "name": "updateUser",
      "outputs": [],
      "stateMutability": "nonpayable",
      "type": "function"
    }
  ],
  "bytecode": "0x608060405260006001553480156200001657600080fd5b506040518060400160405280601b81526020017f4368656e20262059617264656e2066696e616c2070726f6a656374000000000081525060009080519060200190620000649291906200006b565b5062000180565b82805462000079906200011b565b90600052602060002090601f0160209004810192826200009d5760008555620000e9565b82601f10620000b857805160ff1916838001178555620000e9565b82800160010185558215620000e9579182015b82811115620000e8578251825591602001919060010190620000cb565b5b509050620000f89190620000fc565b5090565b5b8082111562000117576000816000905550600101620000fd565b5090565b600060028204905060018216806200013457607f821691505b602082108114156200014b576200014a62000151565b5b50919050565b7f4e487b7100000000000000000000000000000000000000000000000000000000600052602260045260246000fd5b61137b80620001906000396000f3fe608060405234801561001057600080fd5b50600436106100575760003560e01c806306fdde031461005c578063365b98b21461007a57806357b251e5146100b05780635973e29d146100cc5780636ba13a82146100e8575b600080fd5b610064610106565b6040516100719190611007565b60405180910390f35b610094600480360381019061008f9190610e54565b610194565b6040516100a79796959493929190611029565b60405180910390f35b6100ca60048036038101906100c59190610d26565b610506565b005b6100e660048036038101906100e19190610e7d565b6106ce565b005b6100f0610c00565b6040516100fd9190611131565b60405180910390f35b6000805461011390611215565b80601f016020809104026020016040519081016040528092919081815260200182805461013f90611215565b801561018c5780601f106101615761010080835404028352916020019161018c565b820191906000526020600020905b81548152906001019060200180831161016f57829003601f168201915b505050505081565b60026020528060005260406000206000915090508060000180546101b790611215565b80601f01602080910402602001604051908101604052809291908181526020018280546101e390611215565b80156102305780601f1061020557610100808354040283529160200191610230565b820191906000526020600020905b81548152906001019060200180831161021357829003601f168201915b50505050509080600101805461024590611215565b80601f016020809104026020016040519081016040528092919081815260200182805461027190611215565b80156102be5780601f10610293576101008083540402835291602001916102be565b820191906000526020600020905b8154815290600101906020018083116102a157829003601f168201915b5050505050908060020180546102d390611215565b80601f01602080910402602001604051908101604052809291908181526020018280546102ff90611215565b801561034c5780601f106103215761010080835404028352916020019161034c565b820191906000526020600020905b81548152906001019060200180831161032f57829003601f168201915b50505050509080600301549080600401805461036790611215565b80601f016020809104026020016040519081016040528092919081815260200182805461039390611215565b80156103e05780601f106103b5576101008083540402835291602001916103e0565b820191906000526020600020905b8154815290600101906020018083116103c357829003601f168201915b5050505050908060050180546103f590611215565b80601f016020809104026020016040519081016040528092919081815260200182805461042190611215565b801561046e5780601f106104435761010080835404028352916020019161046e565b820191906000526020600020905b81548152906001019060200180831161045157829003601f168201915b50505050509080600601805461048390611215565b80601f01602080910402602001604051908101604052809291908181526020018280546104af90611215565b80156104fc5780601f106104d1576101008083540402835291602001916104fc565b820191906000526020600020905b8154815290600101906020018083116104df57829003601f168201915b5050505050905087565b600087511161051457600080fd5b600086511161052257600080fd5b600085511161053057600080fd5b6010841161053d57600080fd5b600083511161054b57600080fd5b600082511161055957600080fd5b600081511161056757600080fd5b6001600081548092919061057a90611247565b91905055506040518060e001604052808881526020018781526020018681526020018581526020018481526020018381526020018281525060026000600154815260200190815260200160002060008201518160000190805190602001906105e3929190610c06565b506020820151816001019080519060200190610600929190610c06565b50604082015181600201908051906020019061061d929190610c06565b50606082015181600301556080820151816004019080519060200190610644929190610c06565b5060a0820151816005019080519060200190610661929190610c06565b5060c082015181600601908051906020019061067e929190610c06565b509050507f9fd26ae60bf522d8273513a364a1b684466f03821a0cacf9f40fdc8080a706e8878787878787876040516106bd9796959493929190611029565b60405180910390a150505050505050565b60008751116106dc57600080fd5b60008551116106ea57600080fd5b60008451116106f857600080fd5b6010831161070557600080fd5b600082511161071357600080fd5b600081511161072157600080fd5b6000600260008a81526020019081526020016000206040518060e001604052908160008201805461075190611215565b80601f016020809104026020016040519081016040528092919081815260200182805461077d90611215565b80156107ca5780601f1061079f576101008083540402835291602001916107ca565b820191906000526020600020905b8154815290600101906020018083116107ad57829003601f168201915b505050505081526020016001820180546107e390611215565b80601f016020809104026020016040519081016040528092919081815260200182805461080f90611215565b801561085c5780601f106108315761010080835404028352916020019161085c565b820191906000526020600020905b81548152906001019060200180831161083f57829003601f168201915b5050505050815260200160028201805461087590611215565b80601f01602080910402602001604051908101604052809291908181526020018280546108a190611215565b80156108ee5780601f106108c3576101008083540402835291602001916108ee565b820191906000526020600020905b8154815290600101906020018083116108d157829003601f168201915b505050505081526020016003820154815260200160048201805461091190611215565b80601f016020809104026020016040519081016040528092919081815260200182805461093d90611215565b801561098a5780601f1061095f5761010080835404028352916020019161098a565b820191906000526020600020905b81548152906001019060200180831161096d57829003601f168201915b505050505081526020016005820180546109a390611215565b80601f01602080910402602001604051908101604052809291908181526020018280546109cf90611215565b8015610a1c5780601f106109f157610100808354040283529160200191610a1c565b820191906000526020600020905b8154815290600101906020018083116109ff57829003601f168201915b50505050508152602001600682018054610a3590611215565b80601f0160208091040260200160405190810160405280929190818152602001828054610a6190611215565b8015610aae5780601f10610a8357610100808354040283529160200191610aae565b820191906000526020600020905b815481529060010190602001808311610a9157829003601f168201915b505050505081525050905085816020018190525084816040018190525083816060018181525050828160800181905250818160c0018190525080600260008b81526020019081526020016000206000820151816000019080519060200190610b17929190610c06565b506020820151816001019080519060200190610b34929190610c06565b506040820151816002019080519060200190610b51929190610c06565b50606082015181600301556080820151816004019080519060200190610b78929190610c06565b5060a0820151816005019080519060200190610b95929190610c06565b5060c0820151816006019080519060200190610bb2929190610c06565b509050507f2a534de5d08d89e9e87aed482efef9871a2c7b34e6b97f5c7f31ab1206fd1f888686868686604051610bed9594939291906110c2565b60405180910390a1505050505050505050565b60015481565b828054610c1290611215565b90600052602060002090601f016020900481019282610c345760008555610c7b565b82601f10610c4d57805160ff1916838001178555610c7b565b82800160010185558215610c7b579182015b82811115610c7a578251825591602001919060010190610c5f565b5b509050610c889190610c8c565b5090565b5b80821115610ca5576000816000905550600101610c8d565b5090565b6000610cbc610cb78461117d565b61114c565b905082815260208101848484011115610cd457600080fd5b610cdf8482856111d3565b509392505050565b600082601f830112610cf857600080fd5b8135610d08848260208601610ca9565b91505092915050565b600081359050610d208161132e565b92915050565b600080600080600080600060e0888a031215610d4157600080fd5b600088013567ffffffffffffffff811115610d5b57600080fd5b610d678a828b01610ce7565b975050602088013567ffffffffffffffff811115610d8457600080fd5b610d908a828b01610ce7565b965050604088013567ffffffffffffffff811115610dad57600080fd5b610db98a828b01610ce7565b9550506060610dca8a828b01610d11565b945050608088013567ffffffffffffffff811115610de757600080fd5b610df38a828b01610ce7565b93505060a088013567ffffffffffffffff811115610e1057600080fd5b610e1c8a828b01610ce7565b92505060c088013567ffffffffffffffff811115610e3957600080fd5b610e458a828b01610ce7565b91505092959891949750929550565b600060208284031215610e6657600080fd5b6000610e7484828501610d11565b91505092915050565b600080600080600080600080610100898b031215610e9a57600080fd5b6000610ea88b828c01610d11565b985050602089013567ffffffffffffffff811115610ec557600080fd5b610ed18b828c01610ce7565b975050604089013567ffffffffffffffff811115610eee57600080fd5b610efa8b828c01610ce7565b965050606089013567ffffffffffffffff811115610f1757600080fd5b610f238b828c01610ce7565b955050608089013567ffffffffffffffff811115610f4057600080fd5b610f4c8b828c01610ce7565b94505060a0610f5d8b828c01610d11565b93505060c089013567ffffffffffffffff811115610f7a57600080fd5b610f868b828c01610ce7565b92505060e089013567ffffffffffffffff811115610fa357600080fd5b610faf8b828c01610ce7565b9150509295985092959890939650565b6000610fca826111ad565b610fd481856111b8565b9350610fe48185602086016111e2565b610fed8161131d565b840191505092915050565b611001816111c9565b82525050565b600060208201905081810360008301526110218184610fbf565b905092915050565b600060e0820190508181036000830152611043818a610fbf565b905081810360208301526110578189610fbf565b9050818103604083015261106b8188610fbf565b905061107a6060830187610ff8565b818103608083015261108c8186610fbf565b905081810360a08301526110a08185610fbf565b905081810360c08301526110b48184610fbf565b905098975050505050505050565b600060a08201905081810360008301526110dc8188610fbf565b905081810360208301526110f08187610fbf565b90506110ff6040830186610ff8565b81810360608301526111118185610fbf565b905081810360808301526111258184610fbf565b90509695505050505050565b60006020820190506111466000830184610ff8565b92915050565b6000604051905081810181811067ffffffffffffffff82111715611173576111726112ee565b5b8060405250919050565b600067ffffffffffffffff821115611198576111976112ee565b5b601f19601f8301169050602081019050919050565b600081519050919050565b600082825260208201905092915050565b6000819050919050565b82818337600083830152505050565b60005b838110156112005780820151818401526020810190506111e5565b8381111561120f576000848401525b50505050565b6000600282049050600182168061122d57607f821691505b60208210811415611241576112406112bf565b5b50919050565b6000611252826111c9565b91507fffffffffffffffffffffffffffffffffffffffffffffffffffffffffffffffff82141561128557611284611290565b5b600182019050919050565b7f4e487b7100000000000000000000000000000000000000000000000000000000600052601160045260246000fd5b7f4e487b7100000000000000000000000000000000000000000000000000000000600052602260045260246000fd5b7f4e487b7100000000000000000000000000000000000000000000000000000000600052604160045260246000fd5b6000601f19601f8301169050919050565b611337816111c9565b811461134257600080fd5b5056fea2646970667358221220bf0efcc5fa01c697b7e94888a485b2d0cee330c8b837a6cbc460649c78b0122a64736f6c63430008000033",
  "immutableReferences": {},
  "source": "// SPDX-License-Identifier: GPL-3.0\r\npragma solidity >=0.5.0 <0.9.0;\r\n\r\ncontract Users {\r\n    string public name;\r\n    uint public usersCount = 0;\r\n    mapping(uint => User) public users;\r\n\r\n    struct User {\r\n        string userAddress;\r\n        string fullName;\r\n        string emailAddress;    \r\n        uint age;\r\n        string picture;\r\n        string IDnumber;\r\n        string password;\r\n    }\r\n    \r\n    event UserCreated(\r\n        string userAddress,\r\n        string fullName,\r\n        string emailAddress,\r\n        uint age,\r\n        string picture,\r\n        string IDnumber,\r\n        string password\r\n    );\r\n\r\n    event UserUpdated(\r\n        string fullName,\r\n        string emailAddress,\r\n        uint age,\r\n        string picture,\r\n        string password\r\n    );\r\n\r\n    constructor() public {\r\n        name = \"Chen & Yarden final project\";\r\n    }\r\n\r\n    function createUser(string memory _userAddress, string memory _fullName, string memory _emailAddress, uint _age, string memory _picture, string memory _IDnumber, string memory _password) public {\r\n        // Require a valid user address\r\n        require(bytes(_userAddress).length > 0);\r\n        // Require a valid name\r\n        require(bytes(_fullName).length > 0);\r\n        // Require a valid email address\r\n        require(bytes(_emailAddress).length > 0);\r\n        // Require a valid age\r\n        require(_age > 16);\r\n        // Require a valid picture\r\n        require(bytes(_picture).length > 0);\r\n        // Require a valid ID number\r\n        require(bytes(_IDnumber).length > 0);\r\n        // Require a valid password\r\n        require(bytes(_password).length > 0);  \r\n        // Increment users count\r\n        usersCount++;\r\n        // Create the user\r\n        users[usersCount] = User(\r\n            _userAddress,\r\n            _fullName,\r\n            _emailAddress,\r\n            _age,\r\n            _picture,\r\n            _IDnumber,\r\n            _password\r\n        );\r\n        // Trigger an event\r\n        emit UserCreated(\r\n            _userAddress,\r\n            _fullName,\r\n            _emailAddress,\r\n            _age,\r\n            _picture,\r\n            _IDnumber,\r\n            _password\r\n        );\r\n    }\r\n\r\n        function updateUser(uint _index, string memory _userAddress, string memory _IDnumber, string memory _fullName, string memory _emailAddress, uint _age, string memory _picture, string memory _password) public {\r\n        // Require a valid user address\r\n        require(bytes(_userAddress).length > 0);\r\n        // Require a valid name\r\n        require(bytes(_fullName).length > 0);\r\n        // Require a valid email address\r\n        require(bytes(_emailAddress).length > 0);\r\n        // Require a valid age\r\n        require(_age > 16);\r\n        // Require a valid picture\r\n        require(bytes(_picture).length > 0);\r\n        // Require a valid ID number\r\n        require(bytes(_password).length > 0);  \r\n        // Make sure the index is valid\r\n        // require(_index > 0 && _index <= usersCount);\r\n        // Update the user\r\n        User memory user = users[_index];\r\n\r\n        user.fullName = _fullName;\r\n        user.emailAddress = _emailAddress;\r\n        user.age = _age;\r\n        user.picture = _picture;\r\n        user.password = _password;\r\n        users[_index] = user;\r\n       \r\n        // Trigger an event\r\n        emit UserUpdated(\r\n            _fullName,\r\n            _emailAddress,\r\n            _age,\r\n            _picture,\r\n            _password\r\n        );\r\n    }\r\n}",
  "sourcePath": "C:\\Users\\hovav\\finalproject\\src\\contracts\\users.sol",
  "compiler": {
    "name": "solc",
    "version": "0.8.0+commit.c7dfd78e.Emscripten.clang"
  },
  "schemaVersion": "3.4.13",
  "updatedAt": "2023-06-23T11:33:36.207Z",
  "networkType": "ethereum",
  "devdoc": {
    "kind": "dev",
    "methods": {},
    "version": 1
  },
  "userdoc": {
    "kind": "user",
    "methods": {},
    "version": 1
  }
}