{
  "contractName": "Users",
  "abi": [
    {
      "inputs": [],
      "stateMutability": "nonpayable",
      "type": "constructor"
    },
    {
      "anonymous": false,
      "inputs": [
        {
          "indexed": false,
          "internalType": "string",
          "name": "userAddress",
          "type": "string"
        },
        {
          "indexed": false,
          "internalType": "string",
          "name": "fullName",
          "type": "string"
        },
        {
          "indexed": false,
          "internalType": "string",
          "name": "emailAddress",
          "type": "string"
        },
        {
          "indexed": false,
          "internalType": "uint256",
          "name": "age",
          "type": "uint256"
        },
        {
          "indexed": false,
          "internalType": "string",
          "name": "picture",
          "type": "string"
        },
        {
          "indexed": false,
          "internalType": "string",
          "name": "IDnumber",
          "type": "string"
        },
        {
          "indexed": false,
          "internalType": "string",
          "name": "password",
          "type": "string"
        }
      ],
      "name": "UserCreated",
      "type": "event"
    },
    {
      "inputs": [],
      "name": "name",
      "outputs": [
        {
          "internalType": "string",
          "name": "",
          "type": "string"
        }
      ],
      "stateMutability": "view",
      "type": "function",
      "constant": true
    },
    {
      "inputs": [
        {
          "internalType": "uint256",
          "name": "",
          "type": "uint256"
        }
      ],
      "name": "users",
      "outputs": [
        {
          "internalType": "string",
          "name": "userAddress",
          "type": "string"
        },
        {
          "internalType": "string",
          "name": "fullName",
          "type": "string"
        },
        {
          "internalType": "string",
          "name": "emailAddress",
          "type": "string"
        },
        {
          "internalType": "uint256",
          "name": "age",
          "type": "uint256"
        },
        {
          "internalType": "string",
          "name": "picture",
          "type": "string"
        },
        {
          "internalType": "string",
          "name": "IDnumber",
          "type": "string"
        },
        {
          "internalType": "string",
          "name": "password",
          "type": "string"
        }
      ],
      "stateMutability": "view",
      "type": "function",
      "constant": true
    },
    {
      "inputs": [],
      "name": "usersCount",
      "outputs": [
        {
          "internalType": "uint256",
          "name": "",
          "type": "uint256"
        }
      ],
      "stateMutability": "view",
      "type": "function",
      "constant": true
    },
    {
      "inputs": [
        {
          "internalType": "string",
          "name": "_userAddress",
          "type": "string"
        },
        {
          "internalType": "string",
          "name": "_fullName",
          "type": "string"
        },
        {
          "internalType": "string",
          "name": "_emailAddress",
          "type": "string"
        },
        {
          "internalType": "uint256",
          "name": "_age",
          "type": "uint256"
        },
        {
          "internalType": "string",
          "name": "_picture",
          "type": "string"
        },
        {
          "internalType": "string",
          "name": "_IDnumber",
          "type": "string"
        },
        {
          "internalType": "string",
          "name": "_password",
          "type": "string"
        }
      ],
      "name": "createUser",
      "outputs": [],
      "stateMutability": "nonpayable",
      "type": "function"
    }
  ],
  "bytecode": "0x608060405260006001553480156200001657600080fd5b506040518060400160405280601b81526020017f4368656e20262059617264656e2066696e616c2070726f6a656374000000000081525060009080519060200190620000649291906200006b565b5062000180565b82805462000079906200011b565b90600052602060002090601f0160209004810192826200009d5760008555620000e9565b82601f10620000b857805160ff1916838001178555620000e9565b82800160010185558215620000e9579182015b82811115620000e8578251825591602001919060010190620000cb565b5b509050620000f89190620000fc565b5090565b5b8082111562000117576000816000905550600101620000fd565b5090565b600060028204905060018216806200013457607f821691505b602082108114156200014b576200014a62000151565b5b50919050565b7f4e487b7100000000000000000000000000000000000000000000000000000000600052602260045260246000fd5b610c7180620001906000396000f3fe608060405234801561001057600080fd5b506004361061004c5760003560e01c806306fdde0314610051578063365b98b21461006f57806357b251e5146100a55780636ba13a82146100c1575b600080fd5b6100596100df565b604051610066919061096c565b60405180910390f35b610089600480360381019061008491906108fb565b61016d565b60405161009c979695949392919061098e565b60405180910390f35b6100bf60048036038101906100ba91906107cd565b6104df565b005b6100c96106a7565b6040516100d69190610a27565b60405180910390f35b600080546100ec90610b0b565b80601f016020809104026020016040519081016040528092919081815260200182805461011890610b0b565b80156101655780601f1061013a57610100808354040283529160200191610165565b820191906000526020600020905b81548152906001019060200180831161014857829003601f168201915b505050505081565b600260205280600052604060002060009150905080600001805461019090610b0b565b80601f01602080910402602001604051908101604052809291908181526020018280546101bc90610b0b565b80156102095780601f106101de57610100808354040283529160200191610209565b820191906000526020600020905b8154815290600101906020018083116101ec57829003601f168201915b50505050509080600101805461021e90610b0b565b80601f016020809104026020016040519081016040528092919081815260200182805461024a90610b0b565b80156102975780601f1061026c57610100808354040283529160200191610297565b820191906000526020600020905b81548152906001019060200180831161027a57829003601f168201915b5050505050908060020180546102ac90610b0b565b80601f01602080910402602001604051908101604052809291908181526020018280546102d890610b0b565b80156103255780601f106102fa57610100808354040283529160200191610325565b820191906000526020600020905b81548152906001019060200180831161030857829003601f168201915b50505050509080600301549080600401805461034090610b0b565b80601f016020809104026020016040519081016040528092919081815260200182805461036c90610b0b565b80156103b95780601f1061038e576101008083540402835291602001916103b9565b820191906000526020600020905b81548152906001019060200180831161039c57829003601f168201915b5050505050908060050180546103ce90610b0b565b80601f01602080910402602001604051908101604052809291908181526020018280546103fa90610b0b565b80156104475780601f1061041c57610100808354040283529160200191610447565b820191906000526020600020905b81548152906001019060200180831161042a57829003601f168201915b50505050509080600601805461045c90610b0b565b80601f016020809104026020016040519081016040528092919081815260200182805461048890610b0b565b80156104d55780601f106104aa576101008083540402835291602001916104d5565b820191906000526020600020905b8154815290600101906020018083116104b857829003601f168201915b5050505050905087565b60008751116104ed57600080fd5b60008651116104fb57600080fd5b600085511161050957600080fd5b6010841161051657600080fd5b600083511161052457600080fd5b600082511161053257600080fd5b600081511161054057600080fd5b6001600081548092919061055390610b3d565b91905055506040518060e001604052808881526020018781526020018681526020018581526020018481526020018381526020018281525060026000600154815260200190815260200160002060008201518160000190805190602001906105bc9291906106ad565b5060208201518160010190805190602001906105d99291906106ad565b5060408201518160020190805190602001906105f69291906106ad565b5060608201518160030155608082015181600401908051906020019061061d9291906106ad565b5060a082015181600501908051906020019061063a9291906106ad565b5060c08201518160060190805190602001906106579291906106ad565b509050507f9fd26ae60bf522d8273513a364a1b684466f03821a0cacf9f40fdc8080a706e887878787878787604051610696979695949392919061098e565b60405180910390a150505050505050565b60015481565b8280546106b990610b0b565b90600052602060002090601f0160209004810192826106db5760008555610722565b82601f106106f457805160ff1916838001178555610722565b82800160010185558215610722579182015b82811115610721578251825591602001919060010190610706565b5b50905061072f9190610733565b5090565b5b8082111561074c576000816000905550600101610734565b5090565b600061076361075e84610a73565b610a42565b90508281526020810184848401111561077b57600080fd5b610786848285610ac9565b509392505050565b600082601f83011261079f57600080fd5b81356107af848260208601610750565b91505092915050565b6000813590506107c781610c24565b92915050565b600080600080600080600060e0888a0312156107e857600080fd5b600088013567ffffffffffffffff81111561080257600080fd5b61080e8a828b0161078e565b975050602088013567ffffffffffffffff81111561082b57600080fd5b6108378a828b0161078e565b965050604088013567ffffffffffffffff81111561085457600080fd5b6108608a828b0161078e565b95505060606108718a828b016107b8565b945050608088013567ffffffffffffffff81111561088e57600080fd5b61089a8a828b0161078e565b93505060a088013567ffffffffffffffff8111156108b757600080fd5b6108c38a828b0161078e565b92505060c088013567ffffffffffffffff8111156108e057600080fd5b6108ec8a828b0161078e565b91505092959891949750929550565b60006020828403121561090d57600080fd5b600061091b848285016107b8565b91505092915050565b600061092f82610aa3565b6109398185610aae565b9350610949818560208601610ad8565b61095281610c13565b840191505092915050565b61096681610abf565b82525050565b600060208201905081810360008301526109868184610924565b905092915050565b600060e08201905081810360008301526109a8818a610924565b905081810360208301526109bc8189610924565b905081810360408301526109d08188610924565b90506109df606083018761095d565b81810360808301526109f18186610924565b905081810360a0830152610a058185610924565b905081810360c0830152610a198184610924565b905098975050505050505050565b6000602082019050610a3c600083018461095d565b92915050565b6000604051905081810181811067ffffffffffffffff82111715610a6957610a68610be4565b5b8060405250919050565b600067ffffffffffffffff821115610a8e57610a8d610be4565b5b601f19601f8301169050602081019050919050565b600081519050919050565b600082825260208201905092915050565b6000819050919050565b82818337600083830152505050565b60005b83811015610af6578082015181840152602081019050610adb565b83811115610b05576000848401525b50505050565b60006002820490506001821680610b2357607f821691505b60208210811415610b3757610b36610bb5565b5b50919050565b6000610b4882610abf565b91507fffffffffffffffffffffffffffffffffffffffffffffffffffffffffffffffff821415610b7b57610b7a610b86565b5b600182019050919050565b7f4e487b7100000000000000000000000000000000000000000000000000000000600052601160045260246000fd5b7f4e487b7100000000000000000000000000000000000000000000000000000000600052602260045260246000fd5b7f4e487b7100000000000000000000000000000000000000000000000000000000600052604160045260246000fd5b6000601f19601f8301169050919050565b610c2d81610abf565b8114610c3857600080fd5b5056fea26469706673582212203ef4211867cd56b0d608cc65000ebfa703c392250d742b5ad110f9ea38454fc464736f6c63430008000033",
  "immutableReferences": {},
  "source": "// SPDX-License-Identifier: GPL-3.0\r\npragma solidity >=0.5.0 <0.9.0;\r\n\r\ncontract Users {\r\n    string public name;\r\n    uint public usersCount = 0;\r\n    mapping(uint => User) public users;\r\n\r\n    struct User {\r\n        string userAddress;\r\n        string fullName;\r\n        string emailAddress;    \r\n        uint age;\r\n        string picture;\r\n        string IDnumber;\r\n        string password;\r\n    }\r\n    \r\n    event UserCreated(\r\n        string userAddress,\r\n        string fullName,\r\n        string emailAddress,\r\n        uint age,\r\n        string picture,\r\n        string IDnumber,\r\n        string password\r\n    );\r\n\r\n    constructor() public {\r\n        name = \"Chen & Yarden final project\";\r\n    }\r\n\r\n    function createUser(string memory _userAddress, string memory _fullName, string memory _emailAddress, uint _age, string memory _picture, string memory _IDnumber, string memory _password) public {\r\n        // Require a valid user address\r\n        require(bytes(_userAddress).length > 0);\r\n        // Require a valid name\r\n        require(bytes(_fullName).length > 0);\r\n        // Require a valid email address\r\n        require(bytes(_emailAddress).length > 0);\r\n        // Require a valid age\r\n        require(_age > 16);\r\n        // Require a valid picture\r\n        require(bytes(_picture).length > 0);\r\n        // Require a valid ID number\r\n        require(bytes(_IDnumber).length > 0);\r\n        // Require a valid password\r\n        require(bytes(_password).length > 0);  \r\n        // Increment users count\r\n        usersCount++;\r\n        // Create the user\r\n        users[usersCount] = User(\r\n            _userAddress,\r\n            _fullName,\r\n            _emailAddress,\r\n            _age,\r\n            _picture,\r\n            _IDnumber,\r\n            _password\r\n        );\r\n        // Trigger an event\r\n        emit UserCreated(\r\n            _userAddress,\r\n            _fullName,\r\n            _emailAddress,\r\n            _age,\r\n            _picture,\r\n            _IDnumber,\r\n            _password\r\n        );\r\n    }\r\n\r\n}",
  "sourcePath": "C:\\Users\\chenb\\final project\\blockchain-project\\src\\contracts\\users.sol",
  "compiler": {
    "name": "solc",
    "version": "0.8.0+commit.c7dfd78e.Emscripten.clang"
  },
  "schemaVersion": "3.4.13",
  "updatedAt": "2023-06-16T11:19:21.835Z",
  "networkType": "ethereum",
  "devdoc": {
    "kind": "dev",
    "methods": {},
    "version": 1
  },
  "userdoc": {
    "kind": "user",
    "methods": {},
    "version": 1
  }
}