{
  "contractName": "Users",
  "abi": [
    {
      "inputs": [],
      "stateMutability": "nonpayable",
      "type": "constructor"
    },
    {
      "anonymous": false,
      "inputs": [
        {
          "indexed": false,
          "internalType": "string",
          "name": "fullName",
          "type": "string"
        },
        {
          "indexed": false,
          "internalType": "string",
          "name": "emailAddress",
          "type": "string"
        },
        {
          "indexed": false,
          "internalType": "uint256",
          "name": "age",
          "type": "uint256"
        },
        {
          "indexed": false,
          "internalType": "string",
          "name": "picture",
          "type": "string"
        },
        {
          "indexed": false,
          "internalType": "string",
          "name": "IDnumber",
          "type": "string"
        },
        {
          "indexed": false,
          "internalType": "string",
          "name": "password",
          "type": "string"
        }
      ],
      "name": "UserCreated",
      "type": "event"
    },
    {
      "inputs": [],
      "name": "name",
      "outputs": [
        {
          "internalType": "string",
          "name": "",
          "type": "string"
        }
      ],
      "stateMutability": "view",
      "type": "function",
      "constant": true
    },
    {
      "inputs": [
        {
          "internalType": "uint256",
          "name": "",
          "type": "uint256"
        }
      ],
      "name": "users",
      "outputs": [
        {
          "internalType": "string",
          "name": "fullName",
          "type": "string"
        },
        {
          "internalType": "string",
          "name": "emailAddress",
          "type": "string"
        },
        {
          "internalType": "uint256",
          "name": "age",
          "type": "uint256"
        },
        {
          "internalType": "string",
          "name": "picture",
          "type": "string"
        },
        {
          "internalType": "string",
          "name": "IDnumber",
          "type": "string"
        },
        {
          "internalType": "string",
          "name": "password",
          "type": "string"
        }
      ],
      "stateMutability": "view",
      "type": "function",
      "constant": true
    },
    {
      "inputs": [],
      "name": "usersCount",
      "outputs": [
        {
          "internalType": "uint256",
          "name": "",
          "type": "uint256"
        }
      ],
      "stateMutability": "view",
      "type": "function",
      "constant": true
    },
    {
      "inputs": [
        {
          "internalType": "string",
          "name": "_fullName",
          "type": "string"
        },
        {
          "internalType": "string",
          "name": "_emailAddress",
          "type": "string"
        },
        {
          "internalType": "uint256",
          "name": "_age",
          "type": "uint256"
        },
        {
          "internalType": "string",
          "name": "_picture",
          "type": "string"
        },
        {
          "internalType": "string",
          "name": "_IDnumber",
          "type": "string"
        },
        {
          "internalType": "string",
          "name": "_password",
          "type": "string"
        }
      ],
      "name": "createUser",
      "outputs": [],
      "stateMutability": "nonpayable",
      "type": "function"
    }
  ],
  "bytecode": "0x608060405260006001553480156200001657600080fd5b506040518060400160405280601b81526020017f4368656e20262059617264656e2066696e616c2070726f6a6563740000000000815250600090816200005d9190620002de565b50620003c5565b600081519050919050565b7f4e487b7100000000000000000000000000000000000000000000000000000000600052604160045260246000fd5b7f4e487b7100000000000000000000000000000000000000000000000000000000600052602260045260246000fd5b60006002820490506001821680620000e657607f821691505b602082108103620000fc57620000fb6200009e565b5b50919050565b60008190508160005260206000209050919050565b60006020601f8301049050919050565b600082821b905092915050565b600060088302620001667fffffffffffffffffffffffffffffffffffffffffffffffffffffffffffffffff8262000127565b62000172868362000127565b95508019841693508086168417925050509392505050565b6000819050919050565b6000819050919050565b6000620001bf620001b9620001b3846200018a565b62000194565b6200018a565b9050919050565b6000819050919050565b620001db836200019e565b620001f3620001ea82620001c6565b84845462000134565b825550505050565b600090565b6200020a620001fb565b62000217818484620001d0565b505050565b5b818110156200023f576200023360008262000200565b6001810190506200021d565b5050565b601f8211156200028e57620002588162000102565b620002638462000117565b8101602085101562000273578190505b6200028b620002828562000117565b8301826200021c565b50505b505050565b600082821c905092915050565b6000620002b36000198460080262000293565b1980831691505092915050565b6000620002ce8383620002a0565b9150826002028217905092915050565b620002e98262000064565b67ffffffffffffffff8111156200030557620003046200006f565b5b620003118254620000cd565b6200031e82828562000243565b600060209050601f83116001811462000356576000841562000341578287015190505b6200034d8582620002c0565b865550620003bd565b601f198416620003668662000102565b60005b82811015620003905784890151825560018201915060208501945060208101905062000369565b86831015620003b05784890151620003ac601f891682620002a0565b8355505b6001600288020188555050505b505050505050565b610d7780620003d56000396000f3fe608060405234801561001057600080fd5b506004361061004c5760003560e01c806306fdde0314610051578063365b98b21461006f5780636ba13a82146100a4578063788a792b146100c2575b600080fd5b6100596100de565b6040516100669190610657565b60405180910390f35b610089600480360381019061008491906106c3565b61016c565b60405161009b969594939291906106ff565b60405180910390f35b6100ac610450565b6040516100b99190610783565b60405180910390f35b6100dc60048036038101906100d791906108d3565b610456565b005b600080546100eb90610a1b565b80601f016020809104026020016040519081016040528092919081815260200182805461011790610a1b565b80156101645780601f1061013957610100808354040283529160200191610164565b820191906000526020600020905b81548152906001019060200180831161014757829003601f168201915b505050505081565b600260205280600052604060002060009150905080600001805461018f90610a1b565b80601f01602080910402602001604051908101604052809291908181526020018280546101bb90610a1b565b80156102085780601f106101dd57610100808354040283529160200191610208565b820191906000526020600020905b8154815290600101906020018083116101eb57829003601f168201915b50505050509080600101805461021d90610a1b565b80601f016020809104026020016040519081016040528092919081815260200182805461024990610a1b565b80156102965780601f1061026b57610100808354040283529160200191610296565b820191906000526020600020905b81548152906001019060200180831161027957829003601f168201915b5050505050908060020154908060030180546102b190610a1b565b80601f01602080910402602001604051908101604052809291908181526020018280546102dd90610a1b565b801561032a5780601f106102ff5761010080835404028352916020019161032a565b820191906000526020600020905b81548152906001019060200180831161030d57829003601f168201915b50505050509080600401805461033f90610a1b565b80601f016020809104026020016040519081016040528092919081815260200182805461036b90610a1b565b80156103b85780601f1061038d576101008083540402835291602001916103b8565b820191906000526020600020905b81548152906001019060200180831161039b57829003601f168201915b5050505050908060050180546103cd90610a1b565b80601f01602080910402602001604051908101604052809291908181526020018280546103f990610a1b565b80156104465780601f1061041b57610100808354040283529160200191610446565b820191906000526020600020905b81548152906001019060200180831161042957829003601f168201915b5050505050905086565b60015481565b600086511161046457600080fd5b600085511161047257600080fd5b6010841161047f57600080fd5b600083511161048d57600080fd5b600082511161049b57600080fd5b60008151116104a957600080fd5b600160008154809291906104bc90610a7b565b91905055506040518060c001604052808781526020018681526020018581526020018481526020018381526020018281525060026000600154815260200190815260200160002060008201518160000190816105189190610c6f565b50602082015181600101908161052e9190610c6f565b5060408201518160020155606082015181600301908161054e9190610c6f565b5060808201518160040190816105649190610c6f565b5060a082015181600501908161057a9190610c6f565b509050507fa2e622dd28b7bd8a2bee3e4aef8e608609453f7d177db7b9e04219529a1318b58686868686866040516105b7969594939291906106ff565b60405180910390a1505050505050565b600081519050919050565b600082825260208201905092915050565b60005b838110156106015780820151818401526020810190506105e6565b60008484015250505050565b6000601f19601f8301169050919050565b6000610629826105c7565b61063381856105d2565b93506106438185602086016105e3565b61064c8161060d565b840191505092915050565b60006020820190508181036000830152610671818461061e565b905092915050565b6000604051905090565b600080fd5b600080fd5b6000819050919050565b6106a08161068d565b81146106ab57600080fd5b50565b6000813590506106bd81610697565b92915050565b6000602082840312156106d9576106d8610683565b5b60006106e7848285016106ae565b91505092915050565b6106f98161068d565b82525050565b600060c0820190508181036000830152610719818961061e565b9050818103602083015261072d818861061e565b905061073c60408301876106f0565b818103606083015261074e818661061e565b90508181036080830152610762818561061e565b905081810360a0830152610776818461061e565b9050979650505050505050565b600060208201905061079860008301846106f0565b92915050565b600080fd5b600080fd5b7f4e487b7100000000000000000000000000000000000000000000000000000000600052604160045260246000fd5b6107e08261060d565b810181811067ffffffffffffffff821117156107ff576107fe6107a8565b5b80604052505050565b6000610812610679565b905061081e82826107d7565b919050565b600067ffffffffffffffff82111561083e5761083d6107a8565b5b6108478261060d565b9050602081019050919050565b82818337600083830152505050565b600061087661087184610823565b610808565b905082815260208101848484011115610892576108916107a3565b5b61089d848285610854565b509392505050565b600082601f8301126108ba576108b961079e565b5b81356108ca848260208601610863565b91505092915050565b60008060008060008060c087890312156108f0576108ef610683565b5b600087013567ffffffffffffffff81111561090e5761090d610688565b5b61091a89828a016108a5565b965050602087013567ffffffffffffffff81111561093b5761093a610688565b5b61094789828a016108a5565b955050604061095889828a016106ae565b945050606087013567ffffffffffffffff81111561097957610978610688565b5b61098589828a016108a5565b935050608087013567ffffffffffffffff8111156109a6576109a5610688565b5b6109b289828a016108a5565b92505060a087013567ffffffffffffffff8111156109d3576109d2610688565b5b6109df89828a016108a5565b9150509295509295509295565b7f4e487b7100000000000000000000000000000000000000000000000000000000600052602260045260246000fd5b60006002820490506001821680610a3357607f821691505b602082108103610a4657610a456109ec565b5b50919050565b7f4e487b7100000000000000000000000000000000000000000000000000000000600052601160045260246000fd5b6000610a868261068d565b91507fffffffffffffffffffffffffffffffffffffffffffffffffffffffffffffffff8203610ab857610ab7610a4c565b5b600182019050919050565b60008190508160005260206000209050919050565b60006020601f8301049050919050565b600082821b905092915050565b600060088302610b257fffffffffffffffffffffffffffffffffffffffffffffffffffffffffffffffff82610ae8565b610b2f8683610ae8565b95508019841693508086168417925050509392505050565b6000819050919050565b6000610b6c610b67610b628461068d565b610b47565b61068d565b9050919050565b6000819050919050565b610b8683610b51565b610b9a610b9282610b73565b848454610af5565b825550505050565b600090565b610baf610ba2565b610bba818484610b7d565b505050565b5b81811015610bde57610bd3600082610ba7565b600181019050610bc0565b5050565b601f821115610c2357610bf481610ac3565b610bfd84610ad8565b81016020851015610c0c578190505b610c20610c1885610ad8565b830182610bbf565b50505b505050565b600082821c905092915050565b6000610c4660001984600802610c28565b1980831691505092915050565b6000610c5f8383610c35565b9150826002028217905092915050565b610c78826105c7565b67ffffffffffffffff811115610c9157610c906107a8565b5b610c9b8254610a1b565b610ca6828285610be2565b600060209050601f831160018114610cd95760008415610cc7578287015190505b610cd18582610c53565b865550610d39565b601f198416610ce786610ac3565b60005b82811015610d0f57848901518255600182019150602085019450602081019050610cea565b86831015610d2c5784890151610d28601f891682610c35565b8355505b6001600288020188555050505b50505050505056fea264697066735822122058b124dd73807cf08f5099ae3bf28a6a4b554abcc828352f7cba288f5ae78ff364736f6c63430008130033",
  "immutableReferences": {},
  "source": "// SPDX-License-Identifier: GPL-3.0\r\npragma solidity >=0.5.0 <0.9.0;\r\n\r\ncontract Users {\r\n    string public name;\r\n    uint public usersCount = 0;\r\n    mapping(uint => User) public users;\r\n\r\n    struct User {\r\n        string fullName;\r\n        string emailAddress;    \r\n        uint age;\r\n        string picture;\r\n        string IDnumber;\r\n        string password;\r\n    }\r\n    \r\n    event UserCreated(\r\n        string fullName,\r\n        string emailAddress,\r\n        uint age,\r\n        string picture,\r\n        string IDnumber,\r\n        string password\r\n    );\r\n\r\n    constructor() public {\r\n        name = \"Chen & Yarden final project\";\r\n    }\r\n\r\n    function createUser(string memory _fullName, string memory _emailAddress, uint _age, string memory _picture, string memory _IDnumber, string memory _password) public {\r\n        // // Require a valid name\r\n        require(bytes(_fullName).length > 0);\r\n        // // Require a valid email address\r\n        require(bytes(_emailAddress).length > 0);\r\n        // // Require a valid age\r\n        require(_age > 16);\r\n        // // Require a valid picture\r\n        require(bytes(_picture).length > 0);\r\n        // // Require a valid ID number\r\n        require(bytes(_IDnumber).length > 0);\r\n        // // Require a valid password\r\n        require(bytes(_password).length > 0);  \r\n\r\n        // Increment users count\r\n        usersCount++;\r\n        // Create the user\r\n        users[usersCount] = User(\r\n            _fullName,\r\n            _emailAddress,\r\n            _age,\r\n            _picture,\r\n            _IDnumber,\r\n            _password\r\n        );\r\n        // Trigger an event\r\n        emit UserCreated(\r\n            _fullName,\r\n            _emailAddress,\r\n            _age,\r\n            _picture,\r\n            _IDnumber,\r\n            _password\r\n        );\r\n    }\r\n\r\n\r\n}",
  "sourcePath": "C:\\Users\\chenb\\final project\\blockchain-project\\src\\contracts\\users.sol",
  "compiler": {
    "name": "solc",
    "version": "0.8.19+commit.7dd6d404.Emscripten.clang"
  },
  "schemaVersion": "3.4.13",
  "updatedAt": "2023-04-14T07:30:57.533Z",
  "networkType": "ethereum",
  "devdoc": {
    "kind": "dev",
    "methods": {},
    "version": 1
  },
  "userdoc": {
    "kind": "user",
    "methods": {},
    "version": 1
  }
}