{
    "contractName": "Users",
    "abi": [
        {
            "inputs": [],
            "stateMutability": "nonpayable",
            "type": "constructor"
        },
        {
            "anonymous": false,
            "inputs": [
                {
                    "indexed": false,
                    "internalType": "string",
                    "name": "userAddress",
                    "type": "string"
                },
                {
                    "indexed": false,
                    "internalType": "string",
                    "name": "fullName",
                    "type": "string"
                },
                {
                    "indexed": false,
                    "internalType": "string",
                    "name": "emailAddress",
                    "type": "string"
                },
                {
                    "indexed": false,
                    "internalType": "uint256",
                    "name": "age",
                    "type": "uint256"
                },
                {
                    "indexed": false,
                    "internalType": "string",
                    "name": "picture",
                    "type": "string"
                },
                {
                    "indexed": false,
                    "internalType": "string",
                    "name": "IDnumber",
                    "type": "string"
                },
                {
                    "indexed": false,
                    "internalType": "string",
                    "name": "password",
                    "type": "string"
                }
            ],
            "name": "UserCreated",
            "type": "event"
        },
        {
            "inputs": [],
            "name": "name",
            "outputs": [
                {
                    "internalType": "string",
                    "name": "",
                    "type": "string"
                }
            ],
            "stateMutability": "view",
            "type": "function"
        },
        {
            "inputs": [
                {
                    "internalType": "uint256",
                    "name": "",
                    "type": "uint256"
                }
            ],
            "name": "users",
            "outputs": [
                {
                    "internalType": "string",
                    "name": "userAddress",
                    "type": "string"
                },
                {
                    "internalType": "string",
                    "name": "fullName",
                    "type": "string"
                },
                {
                    "internalType": "string",
                    "name": "emailAddress",
                    "type": "string"
                },
                {
                    "internalType": "uint256",
                    "name": "age",
                    "type": "uint256"
                },
                {
                    "internalType": "string",
                    "name": "picture",
                    "type": "string"
                },
                {
                    "internalType": "string",
                    "name": "IDnumber",
                    "type": "string"
                },
                {
                    "internalType": "string",
                    "name": "password",
                    "type": "string"
                }
            ],
            "stateMutability": "view",
            "type": "function"
        },
        {
            "inputs": [],
            "name": "usersCount",
            "outputs": [
                {
                    "internalType": "uint256",
                    "name": "",
                    "type": "uint256"
                }
            ],
            "stateMutability": "view",
            "type": "function"
        },
        {
            "inputs": [
                {
                    "internalType": "string",
                    "name": "_userAddress",
                    "type": "string"
                },
                {
                    "internalType": "string",
                    "name": "_fullName",
                    "type": "string"
                },
                {
                    "internalType": "string",
                    "name": "_emailAddress",
                    "type": "string"
                },
                {
                    "internalType": "uint256",
                    "name": "_age",
                    "type": "uint256"
                },
                {
                    "internalType": "string",
                    "name": "_picture",
                    "type": "string"
                },
                {
                    "internalType": "string",
                    "name": "_IDnumber",
                    "type": "string"
                },
                {
                    "internalType": "string",
                    "name": "_password",
                    "type": "string"
                }
            ],
            "name": "createUser",
            "outputs": [],
            "stateMutability": "nonpayable",
            "type": "function"
        }
    ],
    "bytecode": "0x608060405260006001553480156200001657600080fd5b506040518060400160405280601b81526020017f4368656e20262059617264656e2066696e616c2070726f6a6563740000000000815250600090816200005d9190620002de565b50620003c5565b600081519050919050565b7f4e487b7100000000000000000000000000000000000000000000000000000000600052604160045260246000fd5b7f4e487b7100000000000000000000000000000000000000000000000000000000600052602260045260246000fd5b60006002820490506001821680620000e657607f821691505b602082108103620000fc57620000fb6200009e565b5b50919050565b60008190508160005260206000209050919050565b60006020601f8301049050919050565b600082821b905092915050565b600060088302620001667fffffffffffffffffffffffffffffffffffffffffffffffffffffffffffffffff8262000127565b62000172868362000127565b95508019841693508086168417925050509392505050565b6000819050919050565b6000819050919050565b6000620001bf620001b9620001b3846200018a565b62000194565b6200018a565b9050919050565b6000819050919050565b620001db836200019e565b620001f3620001ea82620001c6565b84845462000134565b825550505050565b600090565b6200020a620001fb565b62000217818484620001d0565b505050565b5b818110156200023f576200023360008262000200565b6001810190506200021d565b5050565b601f8211156200028e57620002588162000102565b620002638462000117565b8101602085101562000273578190505b6200028b620002828562000117565b8301826200021c565b50505b505050565b600082821c905092915050565b6000620002b36000198460080262000293565b1980831691505092915050565b6000620002ce8383620002a0565b9150826002028217905092915050565b620002e98262000064565b67ffffffffffffffff8111156200030557620003046200006f565b5b620003118254620000cd565b6200031e82828562000243565b600060209050601f83116001811462000356576000841562000341578287015190505b6200034d8582620002c0565b865550620003bd565b601f198416620003668662000102565b60005b82811015620003905784890151825560018201915060208501945060208101905062000369565b86831015620003b05784890151620003ac601f891682620002a0565b8355505b6001600288020188555050505b505050505050565b610e7980620003d56000396000f3fe608060405234801561001057600080fd5b506004361061004c5760003560e01c806306fdde0314610051578063365b98b21461006f57806357b251e5146100a55780636ba13a82146100c1575b600080fd5b6100596100df565b6040516100669190610713565b60405180910390f35b6100896004803603810190610084919061077f565b61016d565b60405161009c97969594939291906107bb565b60405180910390f35b6100bf60048036038101906100ba9190610989565b6104df565b005b6100c961067d565b6040516100d69190610ad3565b60405180910390f35b600080546100ec90610b1d565b80601f016020809104026020016040519081016040528092919081815260200182805461011890610b1d565b80156101655780601f1061013a57610100808354040283529160200191610165565b820191906000526020600020905b81548152906001019060200180831161014857829003601f168201915b505050505081565b600260205280600052604060002060009150905080600001805461019090610b1d565b80601f01602080910402602001604051908101604052809291908181526020018280546101bc90610b1d565b80156102095780601f106101de57610100808354040283529160200191610209565b820191906000526020600020905b8154815290600101906020018083116101ec57829003601f168201915b50505050509080600101805461021e90610b1d565b80601f016020809104026020016040519081016040528092919081815260200182805461024a90610b1d565b80156102975780601f1061026c57610100808354040283529160200191610297565b820191906000526020600020905b81548152906001019060200180831161027a57829003601f168201915b5050505050908060020180546102ac90610b1d565b80601f01602080910402602001604051908101604052809291908181526020018280546102d890610b1d565b80156103255780601f106102fa57610100808354040283529160200191610325565b820191906000526020600020905b81548152906001019060200180831161030857829003601f168201915b50505050509080600301549080600401805461034090610b1d565b80601f016020809104026020016040519081016040528092919081815260200182805461036c90610b1d565b80156103b95780601f1061038e576101008083540402835291602001916103b9565b820191906000526020600020905b81548152906001019060200180831161039c57829003601f168201915b5050505050908060050180546103ce90610b1d565b80601f01602080910402602001604051908101604052809291908181526020018280546103fa90610b1d565b80156104475780601f1061041c57610100808354040283529160200191610447565b820191906000526020600020905b81548152906001019060200180831161042a57829003601f168201915b50505050509080600601805461045c90610b1d565b80601f016020809104026020016040519081016040528092919081815260200182805461048890610b1d565b80156104d55780601f106104aa576101008083540402835291602001916104d5565b820191906000526020600020905b8154815290600101906020018083116104b857829003601f168201915b5050505050905087565b60008751116104ed57600080fd5b60008651116104fb57600080fd5b600085511161050957600080fd5b6010841161051657600080fd5b600083511161052457600080fd5b600082511161053257600080fd5b600081511161054057600080fd5b6001600081548092919061055390610b7d565b91905055506040518060e001604052808881526020018781526020018681526020018581526020018481526020018381526020018281525060026000600154815260200190815260200160002060008201518160000190816105b59190610d71565b5060208201518160010190816105cb9190610d71565b5060408201518160020190816105e19190610d71565b506060820151816003015560808201518160040190816106019190610d71565b5060a08201518160050190816106179190610d71565b5060c082015181600601908161062d9190610d71565b509050507f9fd26ae60bf522d8273513a364a1b684466f03821a0cacf9f40fdc8080a706e88787878787878760405161066c97969594939291906107bb565b60405180910390a150505050505050565b60015481565b600081519050919050565b600082825260208201905092915050565b60005b838110156106bd5780820151818401526020810190506106a2565b60008484015250505050565b6000601f19601f8301169050919050565b60006106e582610683565b6106ef818561068e565b93506106ff81856020860161069f565b610708816106c9565b840191505092915050565b6000602082019050818103600083015261072d81846106da565b905092915050565b6000604051905090565b600080fd5b600080fd5b6000819050919050565b61075c81610749565b811461076757600080fd5b50565b60008135905061077981610753565b92915050565b6000602082840312156107955761079461073f565b5b60006107a38482850161076a565b91505092915050565b6107b581610749565b82525050565b600060e08201905081810360008301526107d5818a6106da565b905081810360208301526107e981896106da565b905081810360408301526107fd81886106da565b905061080c60608301876107ac565b818103608083015261081e81866106da565b905081810360a083015261083281856106da565b905081810360c083015261084681846106da565b905098975050505050505050565b600080fd5b600080fd5b7f4e487b7100000000000000000000000000000000000000000000000000000000600052604160045260246000fd5b610896826106c9565b810181811067ffffffffffffffff821117156108b5576108b461085e565b5b80604052505050565b60006108c8610735565b90506108d4828261088d565b919050565b600067ffffffffffffffff8211156108f4576108f361085e565b5b6108fd826106c9565b9050602081019050919050565b82818337600083830152505050565b600061092c610927846108d9565b6108be565b90508281526020810184848401111561094857610947610859565b5b61095384828561090a565b509392505050565b600082601f8301126109705761096f610854565b5b8135610980848260208601610919565b91505092915050565b600080600080600080600060e0888a0312156109a8576109a761073f565b5b600088013567ffffffffffffffff8111156109c6576109c5610744565b5b6109d28a828b0161095b565b975050602088013567ffffffffffffffff8111156109f3576109f2610744565b5b6109ff8a828b0161095b565b965050604088013567ffffffffffffffff811115610a2057610a1f610744565b5b610a2c8a828b0161095b565b9550506060610a3d8a828b0161076a565b945050608088013567ffffffffffffffff811115610a5e57610a5d610744565b5b610a6a8a828b0161095b565b93505060a088013567ffffffffffffffff811115610a8b57610a8a610744565b5b610a978a828b0161095b565b92505060c088013567ffffffffffffffff811115610ab857610ab7610744565b5b610ac48a828b0161095b565b91505092959891949750929550565b6000602082019050610ae860008301846107ac565b92915050565b7f4e487b7100000000000000000000000000000000000000000000000000000000600052602260045260246000fd5b60006002820490506001821680610b3557607f821691505b602082108103610b4857610b47610aee565b5b50919050565b7f4e487b7100000000000000000000000000000000000000000000000000000000600052601160045260246000fd5b6000610b8882610749565b91507fffffffffffffffffffffffffffffffffffffffffffffffffffffffffffffffff8203610bba57610bb9610b4e565b5b600182019050919050565b60008190508160005260206000209050919050565b60006020601f8301049050919050565b600082821b905092915050565b600060088302610c277fffffffffffffffffffffffffffffffffffffffffffffffffffffffffffffffff82610bea565b610c318683610bea565b95508019841693508086168417925050509392505050565b6000819050919050565b6000610c6e610c69610c6484610749565b610c49565b610749565b9050919050565b6000819050919050565b610c8883610c53565b610c9c610c9482610c75565b848454610bf7565b825550505050565b600090565b610cb1610ca4565b610cbc818484610c7f565b505050565b5b81811015610ce057610cd5600082610ca9565b600181019050610cc2565b5050565b601f821115610d2557610cf681610bc5565b610cff84610bda565b81016020851015610d0e578190505b610d22610d1a85610bda565b830182610cc1565b50505b505050565b600082821c905092915050565b6000610d4860001984600802610d2a565b1980831691505092915050565b6000610d618383610d37565b9150826002028217905092915050565b610d7a82610683565b67ffffffffffffffff811115610d9357610d9261085e565b5b610d9d8254610b1d565b610da8828285610ce4565b600060209050601f831160018114610ddb5760008415610dc9578287015190505b610dd38582610d55565b865550610e3b565b601f198416610de986610bc5565b60005b82811015610e1157848901518255600182019150602085019450602081019050610dec565b86831015610e2e5784890151610e2a601f891682610d37565b8355505b6001600288020188555050505b50505050505056fea264697066735822122002562c8302de7dc43598fd7f71fe81643d8ddd0f51663e28529ab2151cf93d9d64736f6c63430008130033",
    "immutableReferences": {},
    "source": "// SPDX-License-Identifier: GPL-3.0\r\npragma solidity >=0.5.0 <0.9.0;\r\n\r\ncontract Users {\r\n    string public name;\r\n    uint public usersCount = 0;\r\n    mapping(uint => User) public users;\r\n\r\n    struct User {\r\n        string userAddress;\r\n        string fullName;\r\n        string emailAddress;    \r\n        uint age;\r\n        string picture;\r\n        string IDnumber;\r\n        string password;\r\n    }\r\n    \r\n    event UserCreated(\r\n        string userAddress,\r\n        string fullName,\r\n        string emailAddress,\r\n        uint age,\r\n        string picture,\r\n        string IDnumber,\r\n        string password\r\n    );\r\n\r\n    constructor() public {\r\n        name = \"Chen & Yarden final project\";\r\n    }\r\n\r\n    function createUser(string memory _userAddress, string memory _fullName, string memory _emailAddress, uint _age, string memory _picture, string memory _IDnumber, string memory _password) public {\r\n        // Require a valid user address\r\n        require(bytes(_userAddress).length > 0);\r\n        // Require a valid name\r\n        require(bytes(_fullName).length > 0);\r\n        // Require a valid email address\r\n        require(bytes(_emailAddress).length > 0);\r\n        // Require a valid age\r\n        require(_age > 16);\r\n        // Require a valid picture\r\n        require(bytes(_picture).length > 0);\r\n        // Require a valid ID number\r\n        require(bytes(_IDnumber).length > 0);\r\n        // Require a valid password\r\n        require(bytes(_password).length > 0);  \r\n        // Increment users count\r\n        usersCount++;\r\n        // Create the user\r\n        users[usersCount] = User(\r\n            _userAddress,\r\n            _fullName,\r\n            _emailAddress,\r\n            _age,\r\n            _picture,\r\n            _IDnumber,\r\n            _password\r\n        );\r\n        // Trigger an event\r\n        emit UserCreated(\r\n            _userAddress,\r\n            _fullName,\r\n            _emailAddress,\r\n            _age,\r\n            _picture,\r\n            _IDnumber,\r\n            _password\r\n        );\r\n    }\r\n}",
    "sourcePath": "C:\\Users\\hovav\\finalproject\\src\\contracts\\users.sol",
    "compiler": {
        "name": "solc",
        "version": "0.8.19+commit.7dd6d404.Emscripten.clang"
    },
    "schemaVersion": "3.4.13",
    "updatedAt": "2023-04-14T07:24:59.280Z",
    "networkType": "ethereum",
    "devdoc": {
        "kind": "dev",
        "methods": {},
        "version": 1
    },
    "userdoc": {
        "kind": "user",
        "methods": {},
        "version": 1
    }
}