{
  "contractName": "Users",
  "abi": [
    {
      "inputs": [],
      "stateMutability": "nonpayable",
      "type": "constructor"
    },
    {
      "anonymous": false,
      "inputs": [
        {
          "indexed": false,
          "internalType": "string",
          "name": "userAddress",
          "type": "string"
        },
        {
          "indexed": false,
          "internalType": "string",
          "name": "fullName",
          "type": "string"
        },
        {
          "indexed": false,
          "internalType": "string",
          "name": "emailAddress",
          "type": "string"
        },
        {
          "indexed": false,
          "internalType": "uint256",
          "name": "age",
          "type": "uint256"
        },
        {
          "indexed": false,
          "internalType": "string",
          "name": "picture",
          "type": "string"
        },
        {
          "indexed": false,
          "internalType": "string",
          "name": "IDnumber",
          "type": "string"
        },
        {
          "indexed": false,
          "internalType": "string",
          "name": "password",
          "type": "string"
        }
      ],
      "name": "UserCreated",
      "type": "event"
    },
    {
      "anonymous": false,
      "inputs": [
        {
          "indexed": false,
          "internalType": "string",
          "name": "fullName",
          "type": "string"
        },
        {
          "indexed": false,
          "internalType": "string",
          "name": "emailAddress",
          "type": "string"
        },
        {
          "indexed": false,
          "internalType": "uint256",
          "name": "age",
          "type": "uint256"
        },
        {
          "indexed": false,
          "internalType": "string",
          "name": "picture",
          "type": "string"
        },
        {
          "indexed": false,
          "internalType": "string",
          "name": "password",
          "type": "string"
        },
        {
          "indexed": false,
          "internalType": "uint256",
          "name": "res",
          "type": "uint256"
        }
      ],
      "name": "UserUpdated",
      "type": "event"
    },
    {
      "inputs": [],
      "name": "name",
      "outputs": [
        {
          "internalType": "string",
          "name": "",
          "type": "string"
        }
      ],
      "stateMutability": "view",
      "type": "function",
      "constant": true
    },
    {
      "inputs": [
        {
          "internalType": "uint256",
          "name": "",
          "type": "uint256"
        }
      ],
      "name": "users",
      "outputs": [
        {
          "internalType": "string",
          "name": "userAddress",
          "type": "string"
        },
        {
          "internalType": "string",
          "name": "fullName",
          "type": "string"
        },
        {
          "internalType": "string",
          "name": "emailAddress",
          "type": "string"
        },
        {
          "internalType": "uint256",
          "name": "age",
          "type": "uint256"
        },
        {
          "internalType": "string",
          "name": "picture",
          "type": "string"
        },
        {
          "internalType": "string",
          "name": "IDnumber",
          "type": "string"
        },
        {
          "internalType": "string",
          "name": "password",
          "type": "string"
        }
      ],
      "stateMutability": "view",
      "type": "function",
      "constant": true
    },
    {
      "inputs": [],
      "name": "usersCount",
      "outputs": [
        {
          "internalType": "uint256",
          "name": "",
          "type": "uint256"
        }
      ],
      "stateMutability": "view",
      "type": "function",
      "constant": true
    },
    {
      "inputs": [
        {
          "internalType": "string",
          "name": "_userAddress",
          "type": "string"
        },
        {
          "internalType": "string",
          "name": "_fullName",
          "type": "string"
        },
        {
          "internalType": "string",
          "name": "_emailAddress",
          "type": "string"
        },
        {
          "internalType": "uint256",
          "name": "_age",
          "type": "uint256"
        },
        {
          "internalType": "string",
          "name": "_picture",
          "type": "string"
        },
        {
          "internalType": "string",
          "name": "_IDnumber",
          "type": "string"
        },
        {
          "internalType": "string",
          "name": "_password",
          "type": "string"
        }
      ],
      "name": "createUser",
      "outputs": [],
      "stateMutability": "nonpayable",
      "type": "function"
    },
    {
      "inputs": [
        {
          "internalType": "string",
          "name": "_userAddress",
          "type": "string"
        },
        {
          "internalType": "string",
          "name": "_fullName",
          "type": "string"
        },
        {
          "internalType": "string",
          "name": "_emailAddress",
          "type": "string"
        },
        {
          "internalType": "uint256",
          "name": "_age",
          "type": "uint256"
        },
        {
          "internalType": "string",
          "name": "_picture",
          "type": "string"
        },
        {
          "internalType": "string",
          "name": "_password",
          "type": "string"
        }
      ],
      "name": "updateUser",
      "outputs": [],
      "stateMutability": "nonpayable",
      "type": "function"
    }
  ],
  "bytecode": "0x608060405260006001553480156200001657600080fd5b506040518060400160405280601b81526020017f4368656e20262059617264656e2066696e616c2070726f6a656374000000000081525060009080519060200190620000649291906200006b565b5062000180565b82805462000079906200011b565b90600052602060002090601f0160209004810192826200009d5760008555620000e9565b82601f10620000b857805160ff1916838001178555620000e9565b82800160010185558215620000e9579182015b82811115620000e8578251825591602001919060010190620000cb565b5b509050620000f89190620000fc565b5090565b5b8082111562000117576000816000905550600101620000fd565b5090565b600060028204905060018216806200013457607f821691505b602082108114156200014b576200014a62000151565b5b50919050565b7f4e487b7100000000000000000000000000000000000000000000000000000000600052602260045260246000fd5b61110b80620001906000396000f3fe608060405234801561001057600080fd5b50600436106100575760003560e01c806306fdde031461005c578063365b98b21461007a57806357b251e5146100b05780636ba13a82146100cc578063de745d67146100ea575b600080fd5b610064610106565b6040516100719190610d7e565b60405180910390f35b610094600480360381019061008f9190610cc5565b610194565b6040516100a79796959493929190610da0565b60405180910390f35b6100ca60048036038101906100c59190610b97565b610506565b005b6100d46106ce565b6040516100e19190610eb6565b60405180910390f35b61010460048036038101906100ff9190610a96565b6106d4565b005b6000805461011390610fa5565b80601f016020809104026020016040519081016040528092919081815260200182805461013f90610fa5565b801561018c5780601f106101615761010080835404028352916020019161018c565b820191906000526020600020905b81548152906001019060200180831161016f57829003601f168201915b505050505081565b60026020528060005260406000206000915090508060000180546101b790610fa5565b80601f01602080910402602001604051908101604052809291908181526020018280546101e390610fa5565b80156102305780601f1061020557610100808354040283529160200191610230565b820191906000526020600020905b81548152906001019060200180831161021357829003601f168201915b50505050509080600101805461024590610fa5565b80601f016020809104026020016040519081016040528092919081815260200182805461027190610fa5565b80156102be5780601f10610293576101008083540402835291602001916102be565b820191906000526020600020905b8154815290600101906020018083116102a157829003601f168201915b5050505050908060020180546102d390610fa5565b80601f01602080910402602001604051908101604052809291908181526020018280546102ff90610fa5565b801561034c5780601f106103215761010080835404028352916020019161034c565b820191906000526020600020905b81548152906001019060200180831161032f57829003601f168201915b50505050509080600301549080600401805461036790610fa5565b80601f016020809104026020016040519081016040528092919081815260200182805461039390610fa5565b80156103e05780601f106103b5576101008083540402835291602001916103e0565b820191906000526020600020905b8154815290600101906020018083116103c357829003601f168201915b5050505050908060050180546103f590610fa5565b80601f016020809104026020016040519081016040528092919081815260200182805461042190610fa5565b801561046e5780601f106104435761010080835404028352916020019161046e565b820191906000526020600020905b81548152906001019060200180831161045157829003601f168201915b50505050509080600601805461048390610fa5565b80601f01602080910402602001604051908101604052809291908181526020018280546104af90610fa5565b80156104fc5780601f106104d1576101008083540402835291602001916104fc565b820191906000526020600020905b8154815290600101906020018083116104df57829003601f168201915b5050505050905087565b600087511161051457600080fd5b600086511161052257600080fd5b600085511161053057600080fd5b6010841161053d57600080fd5b600083511161054b57600080fd5b600082511161055957600080fd5b600081511161056757600080fd5b6001600081548092919061057a90610fd7565b91905055506040518060e001604052808881526020018781526020018681526020018581526020018481526020018381526020018281525060026000600154815260200190815260200160002060008201518160000190805190602001906105e3929190610976565b506020820151816001019080519060200190610600929190610976565b50604082015181600201908051906020019061061d929190610976565b50606082015181600301556080820151816004019080519060200190610644929190610976565b5060a0820151816005019080519060200190610661929190610976565b5060c082015181600601908051906020019061067e929190610976565b509050507f9fd26ae60bf522d8273513a364a1b684466f03821a0cacf9f40fdc8080a706e8878787878787876040516106bd9796959493929190610da0565b60405180910390a150505050505050565b60015481565b60008651116106e257600080fd5b60008551116106f057600080fd5b60008451116106fe57600080fd5b6010831161070b57600080fd5b600082511161071957600080fd5b600081511161072757600080fd5b6000805b60015481101561092b57600060026000838152602001908152602001600020600001805461075890610fa5565b80601f016020809104026020016040519081016040528092919081815260200182805461078490610fa5565b80156107d15780601f106107a6576101008083540402835291602001916107d1565b820191906000526020600020905b8154815290600101906020018083116107b457829003601f168201915b50505050509050600081905060008a90508051825114156107f157600194505b60008b6040516020016108049190610d67565b604051602081830303815290604052805190602001208460405160200161082b9190610d67565b604051602081830303815290604052805190602001201490508015610916578a600260008781526020019081526020016000206001019080519060200190610874929190610976565b508960026000878152602001908152602001600020600201908051906020019061089f929190610976565b50886002600087815260200190815260200160002060030181905550876002600087815260200190815260200160002060040190805190602001906108e5929190610976565b5086600260008781526020019081526020016000206006019080519060200190610910929190610976565b50600295505b505050508061092490610fd7565b905061072b565b507f99da80c50787a5f315d66b72a51227645933883f5dcc2e76b6bc4fa71c6c949586868686868660405161096596959493929190610e39565b60405180910390a150505050505050565b82805461098290610fa5565b90600052602060002090601f0160209004810192826109a457600085556109eb565b82601f106109bd57805160ff19168380011785556109eb565b828001600101855582156109eb579182015b828111156109ea5782518255916020019190600101906109cf565b5b5090506109f891906109fc565b5090565b5b80821115610a155760008160009055506001016109fd565b5090565b6000610a2c610a2784610f02565b610ed1565b905082815260208101848484011115610a4457600080fd5b610a4f848285610f63565b509392505050565b600082601f830112610a6857600080fd5b8135610a78848260208601610a19565b91505092915050565b600081359050610a90816110be565b92915050565b60008060008060008060c08789031215610aaf57600080fd5b600087013567ffffffffffffffff811115610ac957600080fd5b610ad589828a01610a57565b965050602087013567ffffffffffffffff811115610af257600080fd5b610afe89828a01610a57565b955050604087013567ffffffffffffffff811115610b1b57600080fd5b610b2789828a01610a57565b9450506060610b3889828a01610a81565b935050608087013567ffffffffffffffff811115610b5557600080fd5b610b6189828a01610a57565b92505060a087013567ffffffffffffffff811115610b7e57600080fd5b610b8a89828a01610a57565b9150509295509295509295565b600080600080600080600060e0888a031215610bb257600080fd5b600088013567ffffffffffffffff811115610bcc57600080fd5b610bd88a828b01610a57565b975050602088013567ffffffffffffffff811115610bf557600080fd5b610c018a828b01610a57565b965050604088013567ffffffffffffffff811115610c1e57600080fd5b610c2a8a828b01610a57565b9550506060610c3b8a828b01610a81565b945050608088013567ffffffffffffffff811115610c5857600080fd5b610c648a828b01610a57565b93505060a088013567ffffffffffffffff811115610c8157600080fd5b610c8d8a828b01610a57565b92505060c088013567ffffffffffffffff811115610caa57600080fd5b610cb68a828b01610a57565b91505092959891949750929550565b600060208284031215610cd757600080fd5b6000610ce584828501610a81565b91505092915050565b6000610cf982610f32565b610d038185610f3d565b9350610d13818560208601610f72565b610d1c816110ad565b840191505092915050565b6000610d3282610f32565b610d3c8185610f4e565b9350610d4c818560208601610f72565b80840191505092915050565b610d6181610f59565b82525050565b6000610d738284610d27565b915081905092915050565b60006020820190508181036000830152610d988184610cee565b905092915050565b600060e0820190508181036000830152610dba818a610cee565b90508181036020830152610dce8189610cee565b90508181036040830152610de28188610cee565b9050610df16060830187610d58565b8181036080830152610e038186610cee565b905081810360a0830152610e178185610cee565b905081810360c0830152610e2b8184610cee565b905098975050505050505050565b600060c0820190508181036000830152610e538189610cee565b90508181036020830152610e678188610cee565b9050610e766040830187610d58565b8181036060830152610e888186610cee565b90508181036080830152610e9c8185610cee565b9050610eab60a0830184610d58565b979650505050505050565b6000602082019050610ecb6000830184610d58565b92915050565b6000604051905081810181811067ffffffffffffffff82111715610ef857610ef761107e565b5b8060405250919050565b600067ffffffffffffffff821115610f1d57610f1c61107e565b5b601f19601f8301169050602081019050919050565b600081519050919050565b600082825260208201905092915050565b600081905092915050565b6000819050919050565b82818337600083830152505050565b60005b83811015610f90578082015181840152602081019050610f75565b83811115610f9f576000848401525b50505050565b60006002820490506001821680610fbd57607f821691505b60208210811415610fd157610fd061104f565b5b50919050565b6000610fe282610f59565b91507fffffffffffffffffffffffffffffffffffffffffffffffffffffffffffffffff82141561101557611014611020565b5b600182019050919050565b7f4e487b7100000000000000000000000000000000000000000000000000000000600052601160045260246000fd5b7f4e487b7100000000000000000000000000000000000000000000000000000000600052602260045260246000fd5b7f4e487b7100000000000000000000000000000000000000000000000000000000600052604160045260246000fd5b6000601f19601f8301169050919050565b6110c781610f59565b81146110d257600080fd5b5056fea264697066735822122023146f00f1f6dfdfe54088ee7b2f4e68c1a2b049421c00928a623c09a8c86c6464736f6c63430008000033",
  "immutableReferences": {},
  "source": "// SPDX-License-Identifier: GPL-3.0\r\npragma solidity >=0.5.0 <0.9.0;\r\n\r\ncontract Users {\r\n    string public name;\r\n    uint public usersCount = 0;\r\n    mapping(uint => User) public users;\r\n\r\n    struct User {\r\n        string userAddress;\r\n        string fullName;\r\n        string emailAddress;    \r\n        uint age;\r\n        string picture;\r\n        string IDnumber;\r\n        string password;\r\n    }\r\n    \r\n    event UserCreated(\r\n        string userAddress,\r\n        string fullName,\r\n        string emailAddress,\r\n        uint age,\r\n        string picture,\r\n        string IDnumber,\r\n        string password\r\n    );\r\n\r\n    event UserUpdated(\r\n        string fullName,\r\n        string emailAddress,\r\n        uint age,\r\n        string picture,\r\n        string password,\r\n        uint res\r\n    );\r\n\r\n    constructor() public {\r\n        name = \"Chen & Yarden final project\";\r\n    }\r\n\r\n    function createUser(string memory _userAddress, string memory _fullName, string memory _emailAddress, uint _age, string memory _picture, string memory _IDnumber, string memory _password) public {\r\n        // Require a valid user address\r\n        require(bytes(_userAddress).length > 0);\r\n        // Require a valid name\r\n        require(bytes(_fullName).length > 0);\r\n        // Require a valid email address\r\n        require(bytes(_emailAddress).length > 0);\r\n        // Require a valid age\r\n        require(_age > 16);\r\n        // Require a valid picture\r\n        require(bytes(_picture).length > 0);\r\n        // Require a valid ID number\r\n        require(bytes(_IDnumber).length > 0);\r\n        // Require a valid password\r\n        require(bytes(_password).length > 0);  \r\n        // Increment users count\r\n        usersCount++;\r\n        // Create the user\r\n        users[usersCount] = User(\r\n            _userAddress,\r\n            _fullName,\r\n            _emailAddress,\r\n            _age,\r\n            _picture,\r\n            _IDnumber,\r\n            _password\r\n        );\r\n        // Trigger an event\r\n        emit UserCreated(\r\n            _userAddress,\r\n            _fullName,\r\n            _emailAddress,\r\n            _age,\r\n            _picture,\r\n            _IDnumber,\r\n            _password\r\n        );\r\n    }\r\n\r\n        function updateUser(string memory _userAddress, string memory _fullName, string memory _emailAddress, uint _age, string memory _picture, string memory _password) public {\r\n        // Require a valid user address\r\n        require(bytes(_userAddress).length > 0);\r\n        // Require a valid name\r\n        require(bytes(_fullName).length > 0);\r\n        // Require a valid email address\r\n        require(bytes(_emailAddress).length > 0);\r\n        // Require a valid age\r\n        require(_age > 16);\r\n        // Require a valid picture\r\n        require(bytes(_picture).length > 0);\r\n        // Require a valid ID number\r\n        require(bytes(_password).length > 0);  \r\n        // Update the user\r\n        uint res = 0;\r\n        // address _add1 =  address(bytes20(bytes(users[0].userAddress)));\r\n        // address _add2 =  address(bytes20(bytes(users[0].userAddress)));\r\n\r\n       for(uint i = 0 ; i< usersCount; ++i){\r\n            string memory us = users[i].userAddress;\r\n            bytes memory b1 = bytes(us);\r\n            bytes memory b2 = bytes(_userAddress);\r\n            if(b1.length == b2.length){\r\n                res = 1;\r\n            }\r\n            bool a = keccak256(abi.encodePacked(us)) == keccak256(abi.encodePacked(_userAddress));\r\n            if(a)\r\n            {\r\n                users[i].fullName = _fullName;\r\n                users[i].emailAddress = _emailAddress;\r\n                users[i].age = _age;\r\n                users[i].picture = _picture;\r\n                users[i].password = _password;\r\n                res = 2;\r\n\r\n            }\r\n       }\r\n        // Trigger an event\r\n        emit UserUpdated(\r\n            _fullName,\r\n            _emailAddress,\r\n            _age,\r\n            _picture,\r\n            _password,\r\n            res\r\n        );\r\n    }\r\n}",
  "sourcePath": "C:\\Users\\chenb\\final project\\blockchain-project\\src\\contracts\\users.sol",
  "compiler": {
    "name": "solc",
    "version": "0.8.0+commit.c7dfd78e.Emscripten.clang"
  },
  "schemaVersion": "3.4.13",
  "updatedAt": "2023-06-20T14:56:22.113Z",
  "networkType": "ethereum",
  "devdoc": {
    "kind": "dev",
    "methods": {},
    "version": 1
  },
  "userdoc": {
    "kind": "user",
    "methods": {},
    "version": 1
  }
}