{
  "contractName": "VehicleDoc",
  "abi": [
    {
      "inputs": [],
      "stateMutability": "nonpayable",
      "type": "constructor"
    },
    {
      "anonymous": false,
      "inputs": [
        {
          "indexed": false,
          "internalType": "string",
          "name": "vehicleVin",
          "type": "string"
        },
        {
          "indexed": false,
          "internalType": "string",
          "name": "garageBnNumber",
          "type": "string"
        },
        {
          "indexed": false,
          "internalType": "string",
          "name": "description",
          "type": "string"
        },
        {
          "indexed": false,
          "internalType": "bool",
          "name": "approved",
          "type": "bool"
        }
      ],
      "name": "DocumentCreated",
      "type": "event"
    },
    {
      "inputs": [
        {
          "internalType": "uint256",
          "name": "",
          "type": "uint256"
        }
      ],
      "name": "documentations",
      "outputs": [
        {
          "internalType": "string",
          "name": "vehicleVin",
          "type": "string"
        },
        {
          "internalType": "string",
          "name": "garageBnNumber",
          "type": "string"
        },
        {
          "internalType": "string",
          "name": "description",
          "type": "string"
        },
        {
          "internalType": "bool",
          "name": "approved",
          "type": "bool"
        }
      ],
      "stateMutability": "view",
      "type": "function",
      "constant": true
    },
    {
      "inputs": [],
      "name": "documentationsCount",
      "outputs": [
        {
          "internalType": "uint256",
          "name": "",
          "type": "uint256"
        }
      ],
      "stateMutability": "view",
      "type": "function",
      "constant": true
    },
    {
      "inputs": [],
      "name": "name",
      "outputs": [
        {
          "internalType": "string",
          "name": "",
          "type": "string"
        }
      ],
      "stateMutability": "view",
      "type": "function",
      "constant": true
    },
    {
      "inputs": [
        {
          "internalType": "string",
          "name": "_vehicleVin",
          "type": "string"
        },
        {
          "internalType": "string",
          "name": "_garageBnNumber",
          "type": "string"
        },
        {
          "internalType": "string",
          "name": "_description",
          "type": "string"
        },
        {
          "internalType": "bool",
          "name": "_approved",
          "type": "bool"
        }
      ],
      "name": "createDocument",
      "outputs": [],
      "stateMutability": "nonpayable",
      "type": "function"
    }
  ],
  "bytecode": "0x6080604052600060015534801561001557600080fd5b506040518060400160405280601b81526020017f4368656e20262059617264656e2066696e616c2070726f6a656374000000000081525060009080519060200190610061929190610067565b5061016b565b8280546100739061010a565b90600052602060002090601f01602090048101928261009557600085556100dc565b82601f106100ae57805160ff19168380011785556100dc565b828001600101855582156100dc579182015b828111156100db5782518255916020019190600101906100c0565b5b5090506100e991906100ed565b5090565b5b808211156101065760008160009055506001016100ee565b5090565b6000600282049050600182168061012257607f821691505b602082108114156101365761013561013c565b5b50919050565b7f4e487b7100000000000000000000000000000000000000000000000000000000600052602260045260246000fd5b6109c58061017a6000396000f3fe608060405234801561001057600080fd5b506004361061004c5760003560e01c806306fdde0314610051578063558b175d1461006f578063863dac711461008b578063dbc7d0f8146100be575b600080fd5b6100596100dc565b60405161006691906106dc565b60405180910390f35b610089600480360381019061008491906105b1565b61016a565b005b6100a560048036038101906100a0919061065c565b6102a1565b6040516100b594939291906106fe565b60405180910390f35b6100c6610476565b6040516100d39190610758565b60405180910390f35b600080546100e990610848565b80601f016020809104026020016040519081016040528092919081815260200182805461011590610848565b80156101625780601f1061013757610100808354040283529160200191610162565b820191906000526020600020905b81548152906001019060200180831161014557829003601f168201915b505050505081565b600084511161017857600080fd5b600083511161018657600080fd5b600082511161019457600080fd5b600160008154809291906101a79061087a565b91905055506040518060800160405280858152602001848152602001838152602001821515815250600260006001548152602001908152602001600020600082015181600001908051906020019061020092919061047c565b50602082015181600101908051906020019061021d92919061047c565b50604082015181600201908051906020019061023a92919061047c565b5060608201518160030160006101000a81548160ff0219169083151502179055509050507faac3c7d43a7f9abd9b5345682302f99d1519208b957dd5ec6836dba7bc87a10f8484848460405161029394939291906106fe565b60405180910390a150505050565b60026020528060005260406000206000915090508060000180546102c490610848565b80601f01602080910402602001604051908101604052809291908181526020018280546102f090610848565b801561033d5780601f106103125761010080835404028352916020019161033d565b820191906000526020600020905b81548152906001019060200180831161032057829003601f168201915b50505050509080600101805461035290610848565b80601f016020809104026020016040519081016040528092919081815260200182805461037e90610848565b80156103cb5780601f106103a0576101008083540402835291602001916103cb565b820191906000526020600020905b8154815290600101906020018083116103ae57829003601f168201915b5050505050908060020180546103e090610848565b80601f016020809104026020016040519081016040528092919081815260200182805461040c90610848565b80156104595780601f1061042e57610100808354040283529160200191610459565b820191906000526020600020905b81548152906001019060200180831161043c57829003601f168201915b5050505050908060030160009054906101000a900460ff16905084565b60015481565b82805461048890610848565b90600052602060002090601f0160209004810192826104aa57600085556104f1565b82601f106104c357805160ff19168380011785556104f1565b828001600101855582156104f1579182015b828111156104f05782518255916020019190600101906104d5565b5b5090506104fe9190610502565b5090565b5b8082111561051b576000816000905550600101610503565b5090565b600061053261052d846107a4565b610773565b90508281526020810184848401111561054a57600080fd5b610555848285610806565b509392505050565b60008135905061056c81610961565b92915050565b600082601f83011261058357600080fd5b813561059384826020860161051f565b91505092915050565b6000813590506105ab81610978565b92915050565b600080600080608085870312156105c757600080fd5b600085013567ffffffffffffffff8111156105e157600080fd5b6105ed87828801610572565b945050602085013567ffffffffffffffff81111561060a57600080fd5b61061687828801610572565b935050604085013567ffffffffffffffff81111561063357600080fd5b61063f87828801610572565b92505060606106508782880161055d565b91505092959194509250565b60006020828403121561066e57600080fd5b600061067c8482850161059c565b91505092915050565b61068e816107f0565b82525050565b600061069f826107d4565b6106a981856107df565b93506106b9818560208601610815565b6106c281610950565b840191505092915050565b6106d6816107fc565b82525050565b600060208201905081810360008301526106f68184610694565b905092915050565b600060808201905081810360008301526107188187610694565b9050818103602083015261072c8186610694565b905081810360408301526107408185610694565b905061074f6060830184610685565b95945050505050565b600060208201905061076d60008301846106cd565b92915050565b6000604051905081810181811067ffffffffffffffff8211171561079a57610799610921565b5b8060405250919050565b600067ffffffffffffffff8211156107bf576107be610921565b5b601f19601f8301169050602081019050919050565b600081519050919050565b600082825260208201905092915050565b60008115159050919050565b6000819050919050565b82818337600083830152505050565b60005b83811015610833578082015181840152602081019050610818565b83811115610842576000848401525b50505050565b6000600282049050600182168061086057607f821691505b60208210811415610874576108736108f2565b5b50919050565b6000610885826107fc565b91507fffffffffffffffffffffffffffffffffffffffffffffffffffffffffffffffff8214156108b8576108b76108c3565b5b600182019050919050565b7f4e487b7100000000000000000000000000000000000000000000000000000000600052601160045260246000fd5b7f4e487b7100000000000000000000000000000000000000000000000000000000600052602260045260246000fd5b7f4e487b7100000000000000000000000000000000000000000000000000000000600052604160045260246000fd5b6000601f19601f8301169050919050565b61096a816107f0565b811461097557600080fd5b50565b610981816107fc565b811461098c57600080fd5b5056fea264697066735822122094356b1b43f00a9717ef494b3580760d9a4ce710623ee319867153cf6f95367d64736f6c63430008000033",
  "immutableReferences": {},
  "source": "// SPDX-License-Identifier: GPL-3.0\r\npragma solidity >=0.5.0 <0.9.0;\r\n\r\ncontract VehicleDoc {\r\n    string public name;\r\n    uint public documentationsCount = 0;\r\n    mapping(uint => Document) public documentations;\r\n\r\n    struct Document {\r\n        string vehicleVin;\r\n        string garageBnNumber;\r\n        string description;\r\n        bool approved;\r\n    }\r\n\r\n    event DocumentCreated(\r\n        string vehicleVin,\r\n        string garageBnNumber,\r\n        string description,\r\n        bool approved\r\n    );\r\n\r\n    constructor() public {\r\n        name = \"Chen & Yarden final project\";\r\n    }\r\n\r\n    function createDocument(string memory _vehicleVin, string memory _garageBnNumber, string memory _description, bool _approved) public {\r\n        // Require a valid vehicle vin\r\n        require(bytes(_vehicleVin).length > 0);\r\n        // Require a valid garage Bn number\r\n        require(bytes(_garageBnNumber).length > 0);\r\n        // Require a valid description\r\n        require(bytes(_description).length > 0);\r\n\r\n        // Increment documentations count\r\n        documentationsCount++;\r\n        // Create the Vehicle\r\n        documentations[documentationsCount] = Document(\r\n            _vehicleVin,\r\n            _garageBnNumber,\r\n            _description,\r\n            _approved\r\n        );\r\n        // Trigger an event\r\n        emit DocumentCreated(\r\n            _vehicleVin,\r\n            _garageBnNumber,\r\n            _description,\r\n            _approved\r\n        );\r\n    }\r\n}\r\n",
  "sourcePath": "C:\\Users\\hovav\\finalproject\\src\\contracts\\VehicleDoc.sol",
  "compiler": {
    "name": "solc",
    "version": "0.8.0+commit.c7dfd78e.Emscripten.clang"
  },
  "schemaVersion": "3.4.13",
  "updatedAt": "2023-05-24T10:10:12.964Z",
  "networkType": "ethereum",
  "devdoc": {
    "kind": "dev",
    "methods": {},
    "version": 1
  },
  "userdoc": {
    "kind": "user",
    "methods": {},
    "version": 1
  }
}