{
  "contractName": "VehicleDoc",
  "abi": [
    {
      "inputs": [],
      "stateMutability": "nonpayable",
      "type": "constructor"
    },
    {
      "anonymous": false,
      "inputs": [
        {
          "indexed": false,
          "internalType": "uint256",
          "name": "id",
          "type": "uint256"
        },
        {
          "indexed": false,
          "internalType": "string",
          "name": "vehicleVin",
          "type": "string"
        },
        {
          "indexed": false,
          "internalType": "string",
          "name": "garageBnNumber",
          "type": "string"
        },
        {
          "indexed": false,
          "internalType": "string",
          "name": "description",
          "type": "string"
        },
        {
          "indexed": false,
          "internalType": "string",
          "name": "date",
          "type": "string"
        },
        {
          "indexed": false,
          "internalType": "bool",
          "name": "approved",
          "type": "bool"
        }
      ],
      "name": "DocumentApproved",
      "type": "event"
    },
    {
      "anonymous": false,
      "inputs": [
        {
          "indexed": false,
          "internalType": "uint256",
          "name": "id",
          "type": "uint256"
        },
        {
          "indexed": false,
          "internalType": "string",
          "name": "vehicleVin",
          "type": "string"
        },
        {
          "indexed": false,
          "internalType": "string",
          "name": "garageBnNumber",
          "type": "string"
        },
        {
          "indexed": false,
          "internalType": "string",
          "name": "description",
          "type": "string"
        },
        {
          "indexed": false,
          "internalType": "string",
          "name": "date",
          "type": "string"
        },
        {
          "indexed": false,
          "internalType": "bool",
          "name": "approved",
          "type": "bool"
        }
      ],
      "name": "DocumentCreated",
      "type": "event"
    },
    {
      "inputs": [
        {
          "internalType": "uint256",
          "name": "",
          "type": "uint256"
        }
      ],
      "name": "documentations",
      "outputs": [
        {
          "internalType": "uint256",
          "name": "id",
          "type": "uint256"
        },
        {
          "internalType": "string",
          "name": "vehicleVin",
          "type": "string"
        },
        {
          "internalType": "string",
          "name": "garageBnNumber",
          "type": "string"
        },
        {
          "internalType": "string",
          "name": "description",
          "type": "string"
        },
        {
          "internalType": "string",
          "name": "date",
          "type": "string"
        },
        {
          "internalType": "bool",
          "name": "approved",
          "type": "bool"
        }
      ],
      "stateMutability": "view",
      "type": "function",
      "constant": true
    },
    {
      "inputs": [],
      "name": "documentationsCount",
      "outputs": [
        {
          "internalType": "uint256",
          "name": "",
          "type": "uint256"
        }
      ],
      "stateMutability": "view",
      "type": "function",
      "constant": true
    },
    {
      "inputs": [],
      "name": "name",
      "outputs": [
        {
          "internalType": "string",
          "name": "",
          "type": "string"
        }
      ],
      "stateMutability": "view",
      "type": "function",
      "constant": true
    },
    {
      "inputs": [
        {
          "internalType": "string",
          "name": "_vehicleVin",
          "type": "string"
        },
        {
          "internalType": "string",
          "name": "_garageBnNumber",
          "type": "string"
        },
        {
          "internalType": "string",
          "name": "_description",
          "type": "string"
        },
        {
          "internalType": "string",
          "name": "_date",
          "type": "string"
        },
        {
          "internalType": "bool",
          "name": "_approved",
          "type": "bool"
        }
      ],
      "name": "createDocument",
      "outputs": [],
      "stateMutability": "nonpayable",
      "type": "function"
    },
    {
      "inputs": [
        {
          "internalType": "uint256",
          "name": "_id",
          "type": "uint256"
        }
      ],
      "name": "approveDoc",
      "outputs": [],
      "stateMutability": "payable",
      "type": "function",
      "payable": true
    }
  ],
  "bytecode": "0x608060405260006001553480156200001657600080fd5b506040518060400160405280601b81526020017f4368656e20262059617264656e2066696e616c2070726f6a656374000000000081525060009080519060200190620000649291906200006b565b5062000180565b82805462000079906200011b565b90600052602060002090601f0160209004810192826200009d5760008555620000e9565b82601f10620000b857805160ff1916838001178555620000e9565b82800160010185558215620000e9579182015b82811115620000e8578251825591602001919060010190620000cb565b5b509050620000f89190620000fc565b5090565b5b8082111562000117576000816000905550600101620000fd565b5090565b600060028204905060018216806200013457607f821691505b602082108114156200014b576200014a62000151565b5b50919050565b7f4e487b7100000000000000000000000000000000000000000000000000000000600052602260045260246000fd5b610f2180620001906000396000f3fe60806040526004361061004a5760003560e01c806306fdde031461004f5780630c0e09701461007a578063863dac71146100a3578063dbc7d0f8146100e5578063e604491414610110575b600080fd5b34801561005b57600080fd5b5061006461012c565b6040516100719190610c15565b60405180910390f35b34801561008657600080fd5b506100a1600480360381019061009c9190610abe565b6101ba565b005b3480156100af57600080fd5b506100ca60048036038101906100c59190610b95565b61033b565b6040516100dc96959493929190610c52565b60405180910390f35b3480156100f157600080fd5b506100fa6105a4565b6040516101079190610c37565b60405180910390f35b61012a60048036038101906101259190610b95565b6105aa565b005b6000805461013990610da4565b80601f016020809104026020016040519081016040528092919081815260200182805461016590610da4565b80156101b25780601f10610187576101008083540402835291602001916101b2565b820191906000526020600020905b81548152906001019060200180831161019557829003601f168201915b505050505081565b60008551116101c857600080fd5b60008451116101d657600080fd5b60008351116101e457600080fd5b60008251116101f257600080fd5b6001600081548092919061020590610dd6565b91905055506040518060c001604052806001548152602001868152602001858152602001848152602001838152602001821515815250600260006001548152602001908152602001600020600082015181600001556020820151816001019080519060200190610276929190610989565b506040820151816002019080519060200190610293929190610989565b5060608201518160030190805190602001906102b0929190610989565b5060808201518160040190805190602001906102cd929190610989565b5060a08201518160050160006101000a81548160ff0219169083151502179055509050507fea07259f94a806036ce8fccfc904a00de1814fc9c31a3f548703351de8518390600154868686868660405161032c96959493929190610c52565b60405180910390a15050505050565b600260205280600052604060002060009150905080600001549080600101805461036490610da4565b80601f016020809104026020016040519081016040528092919081815260200182805461039090610da4565b80156103dd5780601f106103b2576101008083540402835291602001916103dd565b820191906000526020600020905b8154815290600101906020018083116103c057829003601f168201915b5050505050908060020180546103f290610da4565b80601f016020809104026020016040519081016040528092919081815260200182805461041e90610da4565b801561046b5780601f106104405761010080835404028352916020019161046b565b820191906000526020600020905b81548152906001019060200180831161044e57829003601f168201915b50505050509080600301805461048090610da4565b80601f01602080910402602001604051908101604052809291908181526020018280546104ac90610da4565b80156104f95780601f106104ce576101008083540402835291602001916104f9565b820191906000526020600020905b8154815290600101906020018083116104dc57829003601f168201915b50505050509080600401805461050e90610da4565b80601f016020809104026020016040519081016040528092919081815260200182805461053a90610da4565b80156105875780601f1061055c57610100808354040283529160200191610587565b820191906000526020600020905b81548152906001019060200180831161056a57829003601f168201915b5050505050908060050160009054906101000a900460ff16905086565b60015481565b6000600260008381526020019081526020016000206040518060c0016040529081600082015481526020016001820180546105e490610da4565b80601f016020809104026020016040519081016040528092919081815260200182805461061090610da4565b801561065d5780601f106106325761010080835404028352916020019161065d565b820191906000526020600020905b81548152906001019060200180831161064057829003601f168201915b5050505050815260200160028201805461067690610da4565b80601f01602080910402602001604051908101604052809291908181526020018280546106a290610da4565b80156106ef5780601f106106c4576101008083540402835291602001916106ef565b820191906000526020600020905b8154815290600101906020018083116106d257829003601f168201915b5050505050815260200160038201805461070890610da4565b80601f016020809104026020016040519081016040528092919081815260200182805461073490610da4565b80156107815780601f1061075657610100808354040283529160200191610781565b820191906000526020600020905b81548152906001019060200180831161076457829003601f168201915b5050505050815260200160048201805461079a90610da4565b80601f01602080910402602001604051908101604052809291908181526020018280546107c690610da4565b80156108135780601f106107e857610100808354040283529160200191610813565b820191906000526020600020905b8154815290600101906020018083116107f657829003601f168201915b505050505081526020016005820160009054906101000a900460ff1615151515815250509050600081600001511180156108535750600154816000015111155b61085c57600080fd5b8060a001511561086b57600080fd5b60018160a001901515908115158152505080600260008481526020019081526020016000206000820151816000015560208201518160010190805190602001906108b6929190610989565b5060408201518160020190805190602001906108d3929190610989565b5060608201518160030190805190602001906108f0929190610989565b50608082015181600401908051906020019061090d929190610989565b5060a08201518160050160006101000a81548160ff0219169083151502179055509050507f24726ed18447a8c6ae07378fc7e029a8a448fb802b75e21ca3eefabafa93c8a86001548260200151836040015184606001518560800151600160405161097d96959493929190610c52565b60405180910390a15050565b82805461099590610da4565b90600052602060002090601f0160209004810192826109b757600085556109fe565b82601f106109d057805160ff19168380011785556109fe565b828001600101855582156109fe579182015b828111156109fd5782518255916020019190600101906109e2565b5b509050610a0b9190610a0f565b5090565b5b80821115610a28576000816000905550600101610a10565b5090565b6000610a3f610a3a84610d00565b610ccf565b905082815260208101848484011115610a5757600080fd5b610a62848285610d62565b509392505050565b600081359050610a7981610ebd565b92915050565b600082601f830112610a9057600080fd5b8135610aa0848260208601610a2c565b91505092915050565b600081359050610ab881610ed4565b92915050565b600080600080600060a08688031215610ad657600080fd5b600086013567ffffffffffffffff811115610af057600080fd5b610afc88828901610a7f565b955050602086013567ffffffffffffffff811115610b1957600080fd5b610b2588828901610a7f565b945050604086013567ffffffffffffffff811115610b4257600080fd5b610b4e88828901610a7f565b935050606086013567ffffffffffffffff811115610b6b57600080fd5b610b7788828901610a7f565b9250506080610b8888828901610a6a565b9150509295509295909350565b600060208284031215610ba757600080fd5b6000610bb584828501610aa9565b91505092915050565b610bc781610d4c565b82525050565b6000610bd882610d30565b610be28185610d3b565b9350610bf2818560208601610d71565b610bfb81610eac565b840191505092915050565b610c0f81610d58565b82525050565b60006020820190508181036000830152610c2f8184610bcd565b905092915050565b6000602082019050610c4c6000830184610c06565b92915050565b600060c082019050610c676000830189610c06565b8181036020830152610c798188610bcd565b90508181036040830152610c8d8187610bcd565b90508181036060830152610ca18186610bcd565b90508181036080830152610cb58185610bcd565b9050610cc460a0830184610bbe565b979650505050505050565b6000604051905081810181811067ffffffffffffffff82111715610cf657610cf5610e7d565b5b8060405250919050565b600067ffffffffffffffff821115610d1b57610d1a610e7d565b5b601f19601f8301169050602081019050919050565b600081519050919050565b600082825260208201905092915050565b60008115159050919050565b6000819050919050565b82818337600083830152505050565b60005b83811015610d8f578082015181840152602081019050610d74565b83811115610d9e576000848401525b50505050565b60006002820490506001821680610dbc57607f821691505b60208210811415610dd057610dcf610e4e565b5b50919050565b6000610de182610d58565b91507fffffffffffffffffffffffffffffffffffffffffffffffffffffffffffffffff821415610e1457610e13610e1f565b5b600182019050919050565b7f4e487b7100000000000000000000000000000000000000000000000000000000600052601160045260246000fd5b7f4e487b7100000000000000000000000000000000000000000000000000000000600052602260045260246000fd5b7f4e487b7100000000000000000000000000000000000000000000000000000000600052604160045260246000fd5b6000601f19601f8301169050919050565b610ec681610d4c565b8114610ed157600080fd5b50565b610edd81610d58565b8114610ee857600080fd5b5056fea2646970667358221220b9922db6f148b5114392bf380b8c9ecd64755d27438caa9c5a471b5018a3bdad64736f6c63430008000033",
  "immutableReferences": {},
  "source": "// SPDX-License-Identifier: GPL-3.0\r\npragma solidity >=0.5.0 <0.9.0;\r\n\r\ncontract VehicleDoc {\r\n    string public name;\r\n    uint public documentationsCount = 0;\r\n    mapping(uint => Document) public documentations;\r\n\r\n    struct Document {\r\n        uint id;\r\n        string vehicleVin;\r\n        string garageBnNumber;\r\n        string description;\r\n        string date;\r\n        bool approved;\r\n    }\r\n\r\n    event DocumentCreated(\r\n        uint id,\r\n        string vehicleVin,\r\n        string garageBnNumber,\r\n        string description,\r\n        string date,\r\n        bool approved\r\n    );\r\n\r\n    event DocumentApproved(\r\n        uint id,\r\n        string vehicleVin,\r\n        string garageBnNumber,\r\n        string description,\r\n        string date,\r\n        bool approved\r\n    );\r\n\r\n    constructor() public {\r\n        name = \"Chen & Yarden final project\";\r\n    }\r\n\r\n    function createDocument(string memory _vehicleVin, string memory _garageBnNumber, string memory _description, string memory _date, bool _approved) public {\r\n        // Require a valid vehicle vin\r\n        require(bytes(_vehicleVin).length > 0);\r\n        // Require a valid garage Bn number\r\n        require(bytes(_garageBnNumber).length > 0);\r\n        // Require a valid description\r\n        require(bytes(_description).length > 0);\r\n        // Require a valid date\r\n        require(bytes(_date).length > 0);\r\n\r\n        // Increment documentations count\r\n        documentationsCount++;\r\n        // Create the Vehicle\r\n        documentations[documentationsCount] = Document(\r\n            documentationsCount,\r\n            _vehicleVin,\r\n            _garageBnNumber,\r\n            _description,\r\n            _date,\r\n            _approved\r\n        );\r\n        // Trigger an event\r\n        emit DocumentCreated(\r\n            documentationsCount,\r\n            _vehicleVin,\r\n            _garageBnNumber,\r\n            _description,\r\n            _date,\r\n            _approved\r\n        );\r\n    }\r\n\r\n    function approveDoc(uint _id) public payable {\r\n        // Fetch the product\r\n        Document memory _document = documentations[_id];\r\n        // Make sure the product has a valid id\r\n        require(_document.id > 0 && _document.id <= documentationsCount);\r\n        // Require that the product has not been purchased already\r\n        require(!_document.approved);\r\n        //TODO -   msg.sender     \r\n        // Mark as approved\r\n        _document.approved = true;\r\n        // Update the product\r\n        documentations[_id] = _document;\r\n        // Trigger an event\r\n        emit DocumentApproved(\r\n            documentationsCount,\r\n            _document.vehicleVin,\r\n            _document.garageBnNumber,\r\n            _document.description,\r\n            _document.date,\r\n            true\r\n        );\r\n    }\r\n\r\n}\r\n",
  "sourcePath": "C:\\Users\\chenb\\final project\\blockchain-project\\src\\contracts\\VehicleDoc.sol",
  "compiler": {
    "name": "solc",
    "version": "0.8.0+commit.c7dfd78e.Emscripten.clang"
  },
  "schemaVersion": "3.4.13",
  "updatedAt": "2023-06-19T14:54:41.035Z",
  "networkType": "ethereum",
  "devdoc": {
    "kind": "dev",
    "methods": {},
    "version": 1
  },
  "userdoc": {
    "kind": "user",
    "methods": {},
    "version": 1
  }
}