{
  "contractName": "VehicleDoc",
  "abi": [
    {
      "inputs": [],
      "stateMutability": "nonpayable",
      "type": "constructor"
    },
    {
      "anonymous": false,
      "inputs": [
        {
          "indexed": false,
          "internalType": "uint256",
          "name": "id",
          "type": "uint256"
        },
        {
          "indexed": false,
          "internalType": "string",
          "name": "vehicleVin",
          "type": "string"
        },
        {
          "indexed": false,
          "internalType": "string",
          "name": "garageBnNumber",
          "type": "string"
        },
        {
          "indexed": false,
          "internalType": "string",
          "name": "description",
          "type": "string"
        },
        {
          "indexed": false,
          "internalType": "string",
          "name": "date",
          "type": "string"
        },
        {
          "indexed": false,
          "internalType": "string",
          "name": "approved",
          "type": "string"
        }
      ],
      "name": "DocumentCreated",
      "type": "event"
    },
    {
      "anonymous": false,
      "inputs": [
        {
          "indexed": false,
          "internalType": "uint256",
          "name": "id",
          "type": "uint256"
        },
        {
          "indexed": false,
          "internalType": "string",
          "name": "vehicleVin",
          "type": "string"
        },
        {
          "indexed": false,
          "internalType": "string",
          "name": "garageBnNumber",
          "type": "string"
        },
        {
          "indexed": false,
          "internalType": "string",
          "name": "description",
          "type": "string"
        },
        {
          "indexed": false,
          "internalType": "string",
          "name": "date",
          "type": "string"
        },
        {
          "indexed": false,
          "internalType": "string",
          "name": "approved",
          "type": "string"
        }
      ],
      "name": "DocumentUpdated",
      "type": "event"
    },
    {
      "inputs": [
        {
          "internalType": "uint256",
          "name": "",
          "type": "uint256"
        }
      ],
      "name": "documentations",
      "outputs": [
        {
          "internalType": "uint256",
          "name": "id",
          "type": "uint256"
        },
        {
          "internalType": "string",
          "name": "vehicleVin",
          "type": "string"
        },
        {
          "internalType": "string",
          "name": "garageBnNumber",
          "type": "string"
        },
        {
          "internalType": "string",
          "name": "description",
          "type": "string"
        },
        {
          "internalType": "string",
          "name": "date",
          "type": "string"
        },
        {
          "internalType": "string",
          "name": "approved",
          "type": "string"
        }
      ],
      "stateMutability": "view",
      "type": "function",
      "constant": true
    },
    {
      "inputs": [],
      "name": "documentationsCount",
      "outputs": [
        {
          "internalType": "uint256",
          "name": "",
          "type": "uint256"
        }
      ],
      "stateMutability": "view",
      "type": "function",
      "constant": true
    },
    {
      "inputs": [],
      "name": "name",
      "outputs": [
        {
          "internalType": "string",
          "name": "",
          "type": "string"
        }
      ],
      "stateMutability": "view",
      "type": "function",
      "constant": true
    },
    {
      "inputs": [
        {
          "internalType": "string",
          "name": "_vehicleVin",
          "type": "string"
        },
        {
          "internalType": "string",
          "name": "_garageBnNumber",
          "type": "string"
        },
        {
          "internalType": "string",
          "name": "_description",
          "type": "string"
        },
        {
          "internalType": "string",
          "name": "_date",
          "type": "string"
        },
        {
          "internalType": "string",
          "name": "_approved",
          "type": "string"
        }
      ],
      "name": "createDocument",
      "outputs": [],
      "stateMutability": "nonpayable",
      "type": "function"
    },
    {
      "inputs": [
        {
          "internalType": "uint256",
          "name": "_id",
          "type": "uint256"
        },
        {
          "internalType": "string",
          "name": "_approved",
          "type": "string"
        }
      ],
      "name": "updateDoc",
      "outputs": [],
      "stateMutability": "payable",
      "type": "function",
      "payable": true
    }
  ],
  "bytecode": "0x608060405260006001553480156200001657600080fd5b506040518060400160405280601b81526020017f4368656e20262059617264656e2066696e616c2070726f6a656374000000000081525060009080519060200190620000649291906200006b565b5062000180565b82805462000079906200011b565b90600052602060002090601f0160209004810192826200009d5760008555620000e9565b82601f10620000b857805160ff1916838001178555620000e9565b82800160010185558215620000e9579182015b82811115620000e8578251825591602001919060010190620000cb565b5b509050620000f89190620000fc565b5090565b5b8082111562000117576000816000905550600101620000fd565b5090565b600060028204905060018216806200013457607f821691505b602082108114156200014b576200014a62000151565b5b50919050565b7f4e487b7100000000000000000000000000000000000000000000000000000000600052602260045260246000fd5b61102080620001906000396000f3fe60806040526004361061004a5760003560e01c806306fdde031461004f57806312665ecb1461007a5780635ee4b8ec14610096578063863dac71146100bf578063dbc7d0f814610101575b600080fd5b34801561005b57600080fd5b5061006461012c565b6040516100719190610d30565b60405180910390f35b610094600480360381019061008f9190610c94565b6101ba565b005b3480156100a257600080fd5b506100bd60048036038101906100b89190610b7c565b6105f6565b005b3480156100cb57600080fd5b506100e660048036038101906100e19190610c6b565b610772565b6040516100f896959493929190610d6d565b60405180910390f35b34801561010d57600080fd5b50610116610a56565b6040516101239190610d52565b60405180910390f35b6000805461013990610eba565b80601f016020809104026020016040519081016040528092919081815260200182805461016590610eba565b80156101b25780601f10610187576101008083540402835291602001916101b2565b820191906000526020600020905b81548152906001019060200180831161019557829003601f168201915b505050505081565b6000600260008481526020019081526020016000206040518060c0016040529081600082015481526020016001820180546101f490610eba565b80601f016020809104026020016040519081016040528092919081815260200182805461022090610eba565b801561026d5780601f106102425761010080835404028352916020019161026d565b820191906000526020600020905b81548152906001019060200180831161025057829003601f168201915b5050505050815260200160028201805461028690610eba565b80601f01602080910402602001604051908101604052809291908181526020018280546102b290610eba565b80156102ff5780601f106102d4576101008083540402835291602001916102ff565b820191906000526020600020905b8154815290600101906020018083116102e257829003601f168201915b5050505050815260200160038201805461031890610eba565b80601f016020809104026020016040519081016040528092919081815260200182805461034490610eba565b80156103915780601f1061036657610100808354040283529160200191610391565b820191906000526020600020905b81548152906001019060200180831161037457829003601f168201915b505050505081526020016004820180546103aa90610eba565b80601f01602080910402602001604051908101604052809291908181526020018280546103d690610eba565b80156104235780601f106103f857610100808354040283529160200191610423565b820191906000526020600020905b81548152906001019060200180831161040657829003601f168201915b5050505050815260200160058201805461043c90610eba565b80601f016020809104026020016040519081016040528092919081815260200182805461046890610eba565b80156104b55780601f1061048a576101008083540402835291602001916104b5565b820191906000526020600020905b81548152906001019060200180831161049857829003601f168201915b5050505050815250509050600081600001511180156104da5750600154816000015111155b6104e357600080fd5b818160a001819052508060026000858152602001908152602001600020600082015181600001556020820151816001019080519060200190610526929190610a5c565b506040820151816002019080519060200190610543929190610a5c565b506060820151816003019080519060200190610560929190610a5c565b50608082015181600401908051906020019061057d929190610a5c565b5060a082015181600501908051906020019061059a929190610a5c565b509050507fc1c9078bbb67c63e635b0273667fe31c0ba3bc2c75ea5ecbe2dc48362bc995b86001548260200151836040015184606001518560800151876040516105e996959493929190610d6d565b60405180910390a1505050565b600085511161060457600080fd5b600084511161061257600080fd5b600083511161062057600080fd5b600082511161062e57600080fd5b6001600081548092919061064190610eec565b91905055506040518060c001604052806001548152602001868152602001858152602001848152602001838152602001828152506002600060015481526020019081526020016000206000820151816000015560208201518160010190805190602001906106b0929190610a5c565b5060408201518160020190805190602001906106cd929190610a5c565b5060608201518160030190805190602001906106ea929190610a5c565b506080820151816004019080519060200190610707929190610a5c565b5060a0820151816005019080519060200190610724929190610a5c565b509050507fbd15b7de7fbb0998b0784442911aacb8c66636d0834ca571d1adea2dd6571575600154868686868660405161076396959493929190610d6d565b60405180910390a15050505050565b600260205280600052604060002060009150905080600001549080600101805461079b90610eba565b80601f01602080910402602001604051908101604052809291908181526020018280546107c790610eba565b80156108145780601f106107e957610100808354040283529160200191610814565b820191906000526020600020905b8154815290600101906020018083116107f757829003601f168201915b50505050509080600201805461082990610eba565b80601f016020809104026020016040519081016040528092919081815260200182805461085590610eba565b80156108a25780601f10610877576101008083540402835291602001916108a2565b820191906000526020600020905b81548152906001019060200180831161088557829003601f168201915b5050505050908060030180546108b790610eba565b80601f01602080910402602001604051908101604052809291908181526020018280546108e390610eba565b80156109305780601f1061090557610100808354040283529160200191610930565b820191906000526020600020905b81548152906001019060200180831161091357829003601f168201915b50505050509080600401805461094590610eba565b80601f016020809104026020016040519081016040528092919081815260200182805461097190610eba565b80156109be5780601f10610993576101008083540402835291602001916109be565b820191906000526020600020905b8154815290600101906020018083116109a157829003601f168201915b5050505050908060050180546109d390610eba565b80601f01602080910402602001604051908101604052809291908181526020018280546109ff90610eba565b8015610a4c5780601f10610a2157610100808354040283529160200191610a4c565b820191906000526020600020905b815481529060010190602001808311610a2f57829003601f168201915b5050505050905086565b60015481565b828054610a6890610eba565b90600052602060002090601f016020900481019282610a8a5760008555610ad1565b82601f10610aa357805160ff1916838001178555610ad1565b82800160010185558215610ad1579182015b82811115610ad0578251825591602001919060010190610ab5565b5b509050610ade9190610ae2565b5090565b5b80821115610afb576000816000905550600101610ae3565b5090565b6000610b12610b0d84610e22565b610df1565b905082815260208101848484011115610b2a57600080fd5b610b35848285610e78565b509392505050565b600082601f830112610b4e57600080fd5b8135610b5e848260208601610aff565b91505092915050565b600081359050610b7681610fd3565b92915050565b600080600080600060a08688031215610b9457600080fd5b600086013567ffffffffffffffff811115610bae57600080fd5b610bba88828901610b3d565b955050602086013567ffffffffffffffff811115610bd757600080fd5b610be388828901610b3d565b945050604086013567ffffffffffffffff811115610c0057600080fd5b610c0c88828901610b3d565b935050606086013567ffffffffffffffff811115610c2957600080fd5b610c3588828901610b3d565b925050608086013567ffffffffffffffff811115610c5257600080fd5b610c5e88828901610b3d565b9150509295509295909350565b600060208284031215610c7d57600080fd5b6000610c8b84828501610b67565b91505092915050565b60008060408385031215610ca757600080fd5b6000610cb585828601610b67565b925050602083013567ffffffffffffffff811115610cd257600080fd5b610cde85828601610b3d565b9150509250929050565b6000610cf382610e52565b610cfd8185610e5d565b9350610d0d818560208601610e87565b610d1681610fc2565b840191505092915050565b610d2a81610e6e565b82525050565b60006020820190508181036000830152610d4a8184610ce8565b905092915050565b6000602082019050610d676000830184610d21565b92915050565b600060c082019050610d826000830189610d21565b8181036020830152610d948188610ce8565b90508181036040830152610da88187610ce8565b90508181036060830152610dbc8186610ce8565b90508181036080830152610dd08185610ce8565b905081810360a0830152610de48184610ce8565b9050979650505050505050565b6000604051905081810181811067ffffffffffffffff82111715610e1857610e17610f93565b5b8060405250919050565b600067ffffffffffffffff821115610e3d57610e3c610f93565b5b601f19601f8301169050602081019050919050565b600081519050919050565b600082825260208201905092915050565b6000819050919050565b82818337600083830152505050565b60005b83811015610ea5578082015181840152602081019050610e8a565b83811115610eb4576000848401525b50505050565b60006002820490506001821680610ed257607f821691505b60208210811415610ee657610ee5610f64565b5b50919050565b6000610ef782610e6e565b91507fffffffffffffffffffffffffffffffffffffffffffffffffffffffffffffffff821415610f2a57610f29610f35565b5b600182019050919050565b7f4e487b7100000000000000000000000000000000000000000000000000000000600052601160045260246000fd5b7f4e487b7100000000000000000000000000000000000000000000000000000000600052602260045260246000fd5b7f4e487b7100000000000000000000000000000000000000000000000000000000600052604160045260246000fd5b6000601f19601f8301169050919050565b610fdc81610e6e565b8114610fe757600080fd5b5056fea2646970667358221220db19538757e11cb1347cb269f365eb0675a18609a2640d1c00fa2e9ea925937a64736f6c63430008000033",
  "immutableReferences": {},
  "source": "// SPDX-License-Identifier: GPL-3.0\r\npragma solidity >=0.5.0 <0.9.0;\r\n\r\ncontract VehicleDoc {\r\n    string public name;\r\n    uint public documentationsCount = 0;\r\n    mapping(uint => Document) public documentations;\r\n\r\n    struct Document {\r\n        uint id;\r\n        string vehicleVin;\r\n        string garageBnNumber;\r\n        string description;\r\n        string date;\r\n        string approved;\r\n    }\r\n\r\n    event DocumentCreated(\r\n        uint id,\r\n        string vehicleVin,\r\n        string garageBnNumber,\r\n        string description,\r\n        string date,\r\n        string approved\r\n    );\r\n\r\n    event DocumentUpdated(\r\n        uint id,\r\n        string vehicleVin,\r\n        string garageBnNumber,\r\n        string description,\r\n        string date,\r\n        string approved\r\n    );\r\n\r\n    constructor() public {\r\n        name = \"Chen & Yarden final project\";\r\n    }\r\n\r\n    function createDocument(string memory _vehicleVin, string memory _garageBnNumber, string memory _description, string memory _date, string memory _approved) public {\r\n        // Require a valid vehicle vin\r\n        require(bytes(_vehicleVin).length > 0);\r\n        // Require a valid garage Bn number\r\n        require(bytes(_garageBnNumber).length > 0);\r\n        // Require a valid description\r\n        require(bytes(_description).length > 0);\r\n        // Require a valid date\r\n        require(bytes(_date).length > 0);\r\n\r\n        // Increment documentations count\r\n        documentationsCount++;\r\n        // Create the Vehicle\r\n        documentations[documentationsCount] = Document(\r\n            documentationsCount,\r\n            _vehicleVin,\r\n            _garageBnNumber,\r\n            _description,\r\n            _date,\r\n            _approved\r\n        );\r\n        // Trigger an event\r\n        emit DocumentCreated(\r\n            documentationsCount,\r\n            _vehicleVin,\r\n            _garageBnNumber,\r\n            _description,\r\n            _date,\r\n            _approved\r\n        );\r\n    }\r\n\r\n    function updateDoc(uint _id, string memory _approved) public payable {\r\n        // Fetch the product\r\n        Document memory _document = documentations[_id];\r\n        // Make sure the product has a valid id\r\n        require(_document.id > 0 && _document.id <= documentationsCount);\r\n\r\n        //TODO -   msg.sender     \r\n        // Mark as approved\r\n        _document.approved = _approved;\r\n        // Update the product\r\n        documentations[_id] = _document;\r\n        // Trigger an event\r\n        emit DocumentUpdated(\r\n            documentationsCount,\r\n            _document.vehicleVin,\r\n            _document.garageBnNumber,\r\n            _document.description,\r\n            _document.date,\r\n            _approved\r\n        );\r\n    }\r\n\r\n}\r\n",
  "sourcePath": "C:\\Users\\chenb\\final project\\blockchain-project\\src\\contracts\\VehicleDoc.sol",
  "compiler": {
    "name": "solc",
    "version": "0.8.0+commit.c7dfd78e.Emscripten.clang"
  },
  "schemaVersion": "3.4.13",
  "updatedAt": "2023-06-22T14:06:13.536Z",
  "networkType": "ethereum",
  "devdoc": {
    "kind": "dev",
    "methods": {},
    "version": 1
  },
  "userdoc": {
    "kind": "user",
    "methods": {},
    "version": 1
  }
}